{
	"data": {
		"bytecode": {
			"linkReferences": {},
			"object": "608060405234801561001057600080fd5b5061159d806100206000396000f3fe608060405234801561001057600080fd5b5060043610610112576000357c0100000000000000000000000000000000000000000000000000000000900480639ead7222116100b4578063be2a296b11610083578063be2a296b146102d8578063c9630cb0146102f4578063d87c5d7514610310578063da28bd5c1461034757610112565b80639ead722214610237578063a85c38ef14610267578063a8d2021a1461029e578063aa6ca808146102ba57610112565b80635e74e17a116100f05780635e74e17a14610195578063840791c7146101b3578063904194a3146101ea5780639776aacf1461021b57610112565b806317aa080c146101175780632b0b086e1461014757806346e9658b14610165575b600080fd5b610131600480360361012c91908101906110c6565b610363565b60405161013e9190611368565b60405180910390f35b61014f61045c565b60405161015c91906113c7565b60405180910390f35b61017f600480360361017a9190810190610f73565b610466565b60405161018c9190611324565b60405180910390f35b61019d610802565b6040516101aa91906113c7565b60405180910390f35b6101cd60048036036101c89190810190611061565b610808565b6040516101e19897969594939291906113e2565b60405180910390f35b61020460048036036101ff9190810190610f0e565b61088c565b60405161021292919061139e565b60405180910390f35b61023560048036036102309190810190610f37565b6108d0565b005b610251600480360361024c9190810190611061565b61099e565b60405161025e9190611383565b60405180910390f35b610281600480360361027c9190810190611061565b6109c1565b6040516102959897969594939291906113e2565b60405180910390f35b6102b860048036036102b3919081019061108a565b610a36565b005b6102c2610a98565b6040516102cf9190611346565b60405180910390f35b6102f260048036036102ed9190810190610faf565b610bb9565b005b61030e6004803603610309919081019061108a565b610bbe565b005b61032a60048036036103259190810190611061565b610c20565b60405161033e9897969594939291906113e2565b60405180910390f35b610361600480360361035c9190810190610ffe565b610ca4565b005b600061036d610d84565b600460008681526020019081526020016000206101006040519081016040529081600082015481526020016001820160009054906101000a900473ffffffffffffffffffffffffffffffffffffffff1673ffffffffffffffffffffffffffffffffffffffff1673ffffffffffffffffffffffffffffffffffffffff1681526020016001820160149054906101000a900460ff16600181111561040b57fe5b600181111561041657fe5b8152602001600282015481526020016003820154815260200160048201548152602001600582015481526020016006820154815250509050806020015150509392505050565b6000600354905090565b60606000806000600181111561047857fe5b84600181111561048457fe5b141561063357600060018054905090506060816040519080825280602002602001820160405280156104d057816020015b6104bd610dee565b8152602001906001900390816104b55790505b509050600093505b60018054905084101561062757866001858154811015156104f557fe5b906000526020600020906007020160020154141561061a5760018481548110151561051c57fe5b90600052602060002090600702016101006040519081016040529081600082015481526020016001820160009054906101000a900473ffffffffffffffffffffffffffffffffffffffff1673ffffffffffffffffffffffffffffffffffffffff1673ffffffffffffffffffffffffffffffffffffffff1681526020016001820160149054906101000a900460ff1660018111156105b557fe5b60018111156105c057fe5b815260200160028201548152602001600382015481526020016004820154815260200160058201548152602001600682015481525050818481518110151561060457fe5b9060200190602002018190525082806001019350505b83806001019450506104d8565b809450505050506107fc565b60018081111561063f57fe5b84600181111561064b57fe5b14156107f95760008080549050905060608160405190808252806020026020018201604052801561069657816020015b610683610dee565b81526020019060019003908161067b5790505b509050600093505b6000805490508410156107ed57866000858154811015156106bb57fe5b90600052602060002090600702016002015414156107e0576000848154811015156106e257fe5b90600052602060002090600702016101006040519081016040529081600082015481526020016001820160009054906101000a900473ffffffffffffffffffffffffffffffffffffffff1673ffffffffffffffffffffffffffffffffffffffff1673ffffffffffffffffffffffffffffffffffffffff1681526020016001820160149054906101000a900460ff16600181111561077b57fe5b600181111561078657fe5b81526020016002820154815260200160038201548152602001600482015481526020016005820154815260200160068201548152505081848151811015156107ca57fe5b9060200190602002018190525082806001019350505b838060010194505061069e565b809450505050506107fc565b50505b92915050565b60035481565b60018181548110151561081757fe5b90600052602060002090600702016000915090508060000154908060010160009054906101000a900473ffffffffffffffffffffffffffffffffffffffff16908060010160149054906101000a900460ff16908060020154908060030154908060040154908060050154908060060154905088565b60056020528060005260406000206000915090508060000154908060010160009054906101000a900473ffffffffffffffffffffffffffffffffffffffff16905082565b6108d8610e58565b60408051908101604052808481526020018373ffffffffffffffffffffffffffffffffffffffff16815250905080600560008581526020019081526020016000206000820151816000015560208201518160010160006101000a81548173ffffffffffffffffffffffffffffffffffffffff021916908373ffffffffffffffffffffffffffffffffffffffff1602179055509050506006839080600181540180825580915050906001820390600052602060002001600090919290919091505550505050565b6006818154811015156109ad57fe5b906000526020600020016000915090505481565b60046020528060005260406000206000915090508060000154908060010160009054906101000a900473ffffffffffffffffffffffffffffffffffffffff16908060010160149054906101000a900460ff16908060020154908060030154908060040154908060050154908060060154905088565b81600260003373ffffffffffffffffffffffffffffffffffffffff1673ffffffffffffffffffffffffffffffffffffffff1681526020019081526020016000206000838152602001908152602001600020600082825403925050819055505050565b606060006060600680549050604051908082528060200260200182016040528015610add57816020015b610aca610e8b565b815260200190600190039081610ac25790505b509050600091505b600680549050821015610bb15760056000600684815481101515610b0557fe5b90600052602060002001548152602001908152602001600020604080519081016040529081600082015481526020016001820160009054906101000a900473ffffffffffffffffffffffffffffffffffffffff1673ffffffffffffffffffffffffffffffffffffffff1673ffffffffffffffffffffffffffffffffffffffff16815250508183815181101515610b9757fe5b906020019060200201819052508180600101925050610ae5565b809250505090565b505050565b81600260003373ffffffffffffffffffffffffffffffffffffffff1673ffffffffffffffffffffffffffffffffffffffff1681526020019081526020016000206000838152602001908152602001600020600082825401925050819055505050565b600081815481101515610c2f57fe5b90600052602060002090600702016000915090508060000154908060010160009054906101000a900473ffffffffffffffffffffffffffffffffffffffff16908060010160149054906101000a900460ff16908060020154908060030154908060040154908060050154908060060154905088565b610cac610d84565b6101006040519081016040528060035481526020013373ffffffffffffffffffffffffffffffffffffffff168152602001836001811115610ce957fe5b8152602001868152602001858152602001600081526020018481526020014281525090506003600081548092919060010191905055506000806001811115610d2d57fe5b836001811115610d3957fe5b1415610d7c57600090505b600180549050811015610d7b5783600182815481101515610d6157fe5b906000526020600020905050508080600101915050610d44565b5b505050505050565b6101006040519081016040528060008152602001600073ffffffffffffffffffffffffffffffffffffffff16815260200160006001811115610dc257fe5b815260200160008019168152602001600081526020016000815260200160008152602001600081525090565b6101006040519081016040528060008152602001600073ffffffffffffffffffffffffffffffffffffffff16815260200160006001811115610e2c57fe5b815260200160008019168152602001600081526020016000815260200160008152602001600081525090565b604080519081016040528060008019168152602001600073ffffffffffffffffffffffffffffffffffffffff1681525090565b604080519081016040528060008019168152602001600073ffffffffffffffffffffffffffffffffffffffff1681525090565b6000610eca8235611512565b905092915050565b6000610ede8235611524565b905092915050565b6000610ef2823561152e565b905092915050565b6000610f068235611547565b905092915050565b600060208284031215610f2057600080fd5b6000610f2e84828501610ed2565b91505092915050565b60008060408385031215610f4a57600080fd5b6000610f5885828601610ed2565b9250506020610f6985828601610ebe565b9150509250929050565b60008060408385031215610f8657600080fd5b6000610f9485828601610ed2565b9250506020610fa585828601610ee6565b9150509250929050565b600080600060608486031215610fc457600080fd5b6000610fd286828701610ed2565b9350506020610fe386828701610efa565b9250506040610ff486828701610ee6565b9150509250925092565b6000806000806080858703121561101457600080fd5b600061102287828801610ed2565b945050602061103387828801610efa565b935050604061104487828801610efa565b925050606061105587828801610ee6565b91505092959194509250565b60006020828403121561107357600080fd5b600061108184828501610efa565b91505092915050565b6000806040838503121561109d57600080fd5b60006110ab85828601610efa565b92505060206110bc85828601610ed2565b9150509250929050565b6000806000606084860312156110db57600080fd5b60006110e986828701610efa565b93505060206110fa86828701610ed2565b925050604061110b86828701610ee6565b9150509250925092565b61111e816114aa565b82525050565b61112d816114aa565b82525050565b600061113e8261147a565b80845260208401935061115083611460565b60005b8281101561118357611166868351611235565b61116f82611490565b915061010086019550600181019050611153565b50849250505092915050565b600061119a82611485565b8084526020840193506111ac8361146d565b60005b828110156111de576111c28683516112d7565b6111cb8261149d565b91506040860195506001810190506111af565b50849250505092915050565b6111f3816114bc565b82525050565b611202816114c8565b82525050565b611211816114c8565b82525050565b61122081611551565b82525050565b61122f81611551565b82525050565b6101008201600082015161124c6000850182611306565b50602082015161125f6020850182611115565b5060408201516112726040850182611217565b50606082015161128560608501826111f9565b5060808201516112986080850182611306565b5060a08201516112ab60a0850182611306565b5060c08201516112be60c0850182611306565b5060e08201516112d160e0850182611306565b50505050565b6040820160008201516112ed60008501826111f9565b5060208201516113006020850182611115565b50505050565b61130f81611508565b82525050565b61131e81611508565b82525050565b6000602082019050818103600083015261133e8184611133565b905092915050565b60006020820190508181036000830152611360818461118f565b905092915050565b600060208201905061137d60008301846111ea565b92915050565b60006020820190506113986000830184611208565b92915050565b60006040820190506113b36000830185611208565b6113c06020830184611124565b9392505050565b60006020820190506113dc6000830184611315565b92915050565b6000610100820190506113f8600083018b611315565b611405602083018a611124565b6114126040830189611226565b61141f6060830188611208565b61142c6080830187611315565b61143960a0830186611315565b61144660c0830185611315565b61145360e0830184611315565b9998505050505050505050565b6000602082019050919050565b6000602082019050919050565b600081519050919050565b600081519050919050565b6000602082019050919050565b6000602082019050919050565b60006114b5826114e8565b9050919050565b60008115159050919050565b6000819050919050565b60006002821015156114e057fe5b819050919050565b600073ffffffffffffffffffffffffffffffffffffffff82169050919050565b6000819050919050565b600061151d826114e8565b9050919050565b6000819050919050565b600060028210151561153f57600080fd5b819050919050565b6000819050919050565b600061155c826114d2565b905091905056fea265627a7a72305820e32c7642d74b0829e621836130111e7209c4f4a074aff491e0ac39936b7ce3c96c6578706572696d656e74616cf50037",
			"opcodes": "PUSH1 0x80 PUSH1 0x40 MSTORE CALLVALUE DUP1 ISZERO PUSH2 0x10 JUMPI PUSH1 0x0 DUP1 REVERT JUMPDEST POP PUSH2 0x159D DUP1 PUSH2 0x20 PUSH1 0x0 CODECOPY PUSH1 0x0 RETURN INVALID PUSH1 0x80 PUSH1 0x40 MSTORE CALLVALUE DUP1 ISZERO PUSH2 0x10 JUMPI PUSH1 0x0 DUP1 REVERT JUMPDEST POP PUSH1 0x4 CALLDATASIZE LT PUSH2 0x112 JUMPI PUSH1 0x0 CALLDATALOAD PUSH29 0x100000000000000000000000000000000000000000000000000000000 SWAP1 DIV DUP1 PUSH4 0x9EAD7222 GT PUSH2 0xB4 JUMPI DUP1 PUSH4 0xBE2A296B GT PUSH2 0x83 JUMPI DUP1 PUSH4 0xBE2A296B EQ PUSH2 0x2D8 JUMPI DUP1 PUSH4 0xC9630CB0 EQ PUSH2 0x2F4 JUMPI DUP1 PUSH4 0xD87C5D75 EQ PUSH2 0x310 JUMPI DUP1 PUSH4 0xDA28BD5C EQ PUSH2 0x347 JUMPI PUSH2 0x112 JUMP JUMPDEST DUP1 PUSH4 0x9EAD7222 EQ PUSH2 0x237 JUMPI DUP1 PUSH4 0xA85C38EF EQ PUSH2 0x267 JUMPI DUP1 PUSH4 0xA8D2021A EQ PUSH2 0x29E JUMPI DUP1 PUSH4 0xAA6CA808 EQ PUSH2 0x2BA JUMPI PUSH2 0x112 JUMP JUMPDEST DUP1 PUSH4 0x5E74E17A GT PUSH2 0xF0 JUMPI DUP1 PUSH4 0x5E74E17A EQ PUSH2 0x195 JUMPI DUP1 PUSH4 0x840791C7 EQ PUSH2 0x1B3 JUMPI DUP1 PUSH4 0x904194A3 EQ PUSH2 0x1EA JUMPI DUP1 PUSH4 0x9776AACF EQ PUSH2 0x21B JUMPI PUSH2 0x112 JUMP JUMPDEST DUP1 PUSH4 0x17AA080C EQ PUSH2 0x117 JUMPI DUP1 PUSH4 0x2B0B086E EQ PUSH2 0x147 JUMPI DUP1 PUSH4 0x46E9658B EQ PUSH2 0x165 JUMPI JUMPDEST PUSH1 0x0 DUP1 REVERT JUMPDEST PUSH2 0x131 PUSH1 0x4 DUP1 CALLDATASIZE SUB PUSH2 0x12C SWAP2 SWAP1 DUP2 ADD SWAP1 PUSH2 0x10C6 JUMP JUMPDEST PUSH2 0x363 JUMP JUMPDEST PUSH1 0x40 MLOAD PUSH2 0x13E SWAP2 SWAP1 PUSH2 0x1368 JUMP JUMPDEST PUSH1 0x40 MLOAD DUP1 SWAP2 SUB SWAP1 RETURN JUMPDEST PUSH2 0x14F PUSH2 0x45C JUMP JUMPDEST PUSH1 0x40 MLOAD PUSH2 0x15C SWAP2 SWAP1 PUSH2 0x13C7 JUMP JUMPDEST PUSH1 0x40 MLOAD DUP1 SWAP2 SUB SWAP1 RETURN JUMPDEST PUSH2 0x17F PUSH1 0x4 DUP1 CALLDATASIZE SUB PUSH2 0x17A SWAP2 SWAP1 DUP2 ADD SWAP1 PUSH2 0xF73 JUMP JUMPDEST PUSH2 0x466 JUMP JUMPDEST PUSH1 0x40 MLOAD PUSH2 0x18C SWAP2 SWAP1 PUSH2 0x1324 JUMP JUMPDEST PUSH1 0x40 MLOAD DUP1 SWAP2 SUB SWAP1 RETURN JUMPDEST PUSH2 0x19D PUSH2 0x802 JUMP JUMPDEST PUSH1 0x40 MLOAD PUSH2 0x1AA SWAP2 SWAP1 PUSH2 0x13C7 JUMP JUMPDEST PUSH1 0x40 MLOAD DUP1 SWAP2 SUB SWAP1 RETURN JUMPDEST PUSH2 0x1CD PUSH1 0x4 DUP1 CALLDATASIZE SUB PUSH2 0x1C8 SWAP2 SWAP1 DUP2 ADD SWAP1 PUSH2 0x1061 JUMP JUMPDEST PUSH2 0x808 JUMP JUMPDEST PUSH1 0x40 MLOAD PUSH2 0x1E1 SWAP9 SWAP8 SWAP7 SWAP6 SWAP5 SWAP4 SWAP3 SWAP2 SWAP1 PUSH2 0x13E2 JUMP JUMPDEST PUSH1 0x40 MLOAD DUP1 SWAP2 SUB SWAP1 RETURN JUMPDEST PUSH2 0x204 PUSH1 0x4 DUP1 CALLDATASIZE SUB PUSH2 0x1FF SWAP2 SWAP1 DUP2 ADD SWAP1 PUSH2 0xF0E JUMP JUMPDEST PUSH2 0x88C JUMP JUMPDEST PUSH1 0x40 MLOAD PUSH2 0x212 SWAP3 SWAP2 SWAP1 PUSH2 0x139E JUMP JUMPDEST PUSH1 0x40 MLOAD DUP1 SWAP2 SUB SWAP1 RETURN JUMPDEST PUSH2 0x235 PUSH1 0x4 DUP1 CALLDATASIZE SUB PUSH2 0x230 SWAP2 SWAP1 DUP2 ADD SWAP1 PUSH2 0xF37 JUMP JUMPDEST PUSH2 0x8D0 JUMP JUMPDEST STOP JUMPDEST PUSH2 0x251 PUSH1 0x4 DUP1 CALLDATASIZE SUB PUSH2 0x24C SWAP2 SWAP1 DUP2 ADD SWAP1 PUSH2 0x1061 JUMP JUMPDEST PUSH2 0x99E JUMP JUMPDEST PUSH1 0x40 MLOAD PUSH2 0x25E SWAP2 SWAP1 PUSH2 0x1383 JUMP JUMPDEST PUSH1 0x40 MLOAD DUP1 SWAP2 SUB SWAP1 RETURN JUMPDEST PUSH2 0x281 PUSH1 0x4 DUP1 CALLDATASIZE SUB PUSH2 0x27C SWAP2 SWAP1 DUP2 ADD SWAP1 PUSH2 0x1061 JUMP JUMPDEST PUSH2 0x9C1 JUMP JUMPDEST PUSH1 0x40 MLOAD PUSH2 0x295 SWAP9 SWAP8 SWAP7 SWAP6 SWAP5 SWAP4 SWAP3 SWAP2 SWAP1 PUSH2 0x13E2 JUMP JUMPDEST PUSH1 0x40 MLOAD DUP1 SWAP2 SUB SWAP1 RETURN JUMPDEST PUSH2 0x2B8 PUSH1 0x4 DUP1 CALLDATASIZE SUB PUSH2 0x2B3 SWAP2 SWAP1 DUP2 ADD SWAP1 PUSH2 0x108A JUMP JUMPDEST PUSH2 0xA36 JUMP JUMPDEST STOP JUMPDEST PUSH2 0x2C2 PUSH2 0xA98 JUMP JUMPDEST PUSH1 0x40 MLOAD PUSH2 0x2CF SWAP2 SWAP1 PUSH2 0x1346 JUMP JUMPDEST PUSH1 0x40 MLOAD DUP1 SWAP2 SUB SWAP1 RETURN JUMPDEST PUSH2 0x2F2 PUSH1 0x4 DUP1 CALLDATASIZE SUB PUSH2 0x2ED SWAP2 SWAP1 DUP2 ADD SWAP1 PUSH2 0xFAF JUMP JUMPDEST PUSH2 0xBB9 JUMP JUMPDEST STOP JUMPDEST PUSH2 0x30E PUSH1 0x4 DUP1 CALLDATASIZE SUB PUSH2 0x309 SWAP2 SWAP1 DUP2 ADD SWAP1 PUSH2 0x108A JUMP JUMPDEST PUSH2 0xBBE JUMP JUMPDEST STOP JUMPDEST PUSH2 0x32A PUSH1 0x4 DUP1 CALLDATASIZE SUB PUSH2 0x325 SWAP2 SWAP1 DUP2 ADD SWAP1 PUSH2 0x1061 JUMP JUMPDEST PUSH2 0xC20 JUMP JUMPDEST PUSH1 0x40 MLOAD PUSH2 0x33E SWAP9 SWAP8 SWAP7 SWAP6 SWAP5 SWAP4 SWAP3 SWAP2 SWAP1 PUSH2 0x13E2 JUMP JUMPDEST PUSH1 0x40 MLOAD DUP1 SWAP2 SUB SWAP1 RETURN JUMPDEST PUSH2 0x361 PUSH1 0x4 DUP1 CALLDATASIZE SUB PUSH2 0x35C SWAP2 SWAP1 DUP2 ADD SWAP1 PUSH2 0xFFE JUMP JUMPDEST PUSH2 0xCA4 JUMP JUMPDEST STOP JUMPDEST PUSH1 0x0 PUSH2 0x36D PUSH2 0xD84 JUMP JUMPDEST PUSH1 0x4 PUSH1 0x0 DUP7 DUP2 MSTORE PUSH1 0x20 ADD SWAP1 DUP2 MSTORE PUSH1 0x20 ADD PUSH1 0x0 KECCAK256 PUSH2 0x100 PUSH1 0x40 MLOAD SWAP1 DUP2 ADD PUSH1 0x40 MSTORE SWAP1 DUP2 PUSH1 0x0 DUP3 ADD SLOAD DUP2 MSTORE PUSH1 0x20 ADD PUSH1 0x1 DUP3 ADD PUSH1 0x0 SWAP1 SLOAD SWAP1 PUSH2 0x100 EXP SWAP1 DIV PUSH20 0xFFFFFFFFFFFFFFFFFFFFFFFFFFFFFFFFFFFFFFFF AND PUSH20 0xFFFFFFFFFFFFFFFFFFFFFFFFFFFFFFFFFFFFFFFF AND PUSH20 0xFFFFFFFFFFFFFFFFFFFFFFFFFFFFFFFFFFFFFFFF AND DUP2 MSTORE PUSH1 0x20 ADD PUSH1 0x1 DUP3 ADD PUSH1 0x14 SWAP1 SLOAD SWAP1 PUSH2 0x100 EXP SWAP1 DIV PUSH1 0xFF AND PUSH1 0x1 DUP2 GT ISZERO PUSH2 0x40B JUMPI INVALID JUMPDEST PUSH1 0x1 DUP2 GT ISZERO PUSH2 0x416 JUMPI INVALID JUMPDEST DUP2 MSTORE PUSH1 0x20 ADD PUSH1 0x2 DUP3 ADD SLOAD DUP2 MSTORE PUSH1 0x20 ADD PUSH1 0x3 DUP3 ADD SLOAD DUP2 MSTORE PUSH1 0x20 ADD PUSH1 0x4 DUP3 ADD SLOAD DUP2 MSTORE PUSH1 0x20 ADD PUSH1 0x5 DUP3 ADD SLOAD DUP2 MSTORE PUSH1 0x20 ADD PUSH1 0x6 DUP3 ADD SLOAD DUP2 MSTORE POP POP SWAP1 POP DUP1 PUSH1 0x20 ADD MLOAD POP POP SWAP4 SWAP3 POP POP POP JUMP JUMPDEST PUSH1 0x0 PUSH1 0x3 SLOAD SWAP1 POP SWAP1 JUMP JUMPDEST PUSH1 0x60 PUSH1 0x0 DUP1 PUSH1 0x0 PUSH1 0x1 DUP2 GT ISZERO PUSH2 0x478 JUMPI INVALID JUMPDEST DUP5 PUSH1 0x1 DUP2 GT ISZERO PUSH2 0x484 JUMPI INVALID JUMPDEST EQ ISZERO PUSH2 0x633 JUMPI PUSH1 0x0 PUSH1 0x1 DUP1 SLOAD SWAP1 POP SWAP1 POP PUSH1 0x60 DUP2 PUSH1 0x40 MLOAD SWAP1 DUP1 DUP3 MSTORE DUP1 PUSH1 0x20 MUL PUSH1 0x20 ADD DUP3 ADD PUSH1 0x40 MSTORE DUP1 ISZERO PUSH2 0x4D0 JUMPI DUP2 PUSH1 0x20 ADD JUMPDEST PUSH2 0x4BD PUSH2 0xDEE JUMP JUMPDEST DUP2 MSTORE PUSH1 0x20 ADD SWAP1 PUSH1 0x1 SWAP1 SUB SWAP1 DUP2 PUSH2 0x4B5 JUMPI SWAP1 POP JUMPDEST POP SWAP1 POP PUSH1 0x0 SWAP4 POP JUMPDEST PUSH1 0x1 DUP1 SLOAD SWAP1 POP DUP5 LT ISZERO PUSH2 0x627 JUMPI DUP7 PUSH1 0x1 DUP6 DUP2 SLOAD DUP2 LT ISZERO ISZERO PUSH2 0x4F5 JUMPI INVALID JUMPDEST SWAP1 PUSH1 0x0 MSTORE PUSH1 0x20 PUSH1 0x0 KECCAK256 SWAP1 PUSH1 0x7 MUL ADD PUSH1 0x2 ADD SLOAD EQ ISZERO PUSH2 0x61A JUMPI PUSH1 0x1 DUP5 DUP2 SLOAD DUP2 LT ISZERO ISZERO PUSH2 0x51C JUMPI INVALID JUMPDEST SWAP1 PUSH1 0x0 MSTORE PUSH1 0x20 PUSH1 0x0 KECCAK256 SWAP1 PUSH1 0x7 MUL ADD PUSH2 0x100 PUSH1 0x40 MLOAD SWAP1 DUP2 ADD PUSH1 0x40 MSTORE SWAP1 DUP2 PUSH1 0x0 DUP3 ADD SLOAD DUP2 MSTORE PUSH1 0x20 ADD PUSH1 0x1 DUP3 ADD PUSH1 0x0 SWAP1 SLOAD SWAP1 PUSH2 0x100 EXP SWAP1 DIV PUSH20 0xFFFFFFFFFFFFFFFFFFFFFFFFFFFFFFFFFFFFFFFF AND PUSH20 0xFFFFFFFFFFFFFFFFFFFFFFFFFFFFFFFFFFFFFFFF AND PUSH20 0xFFFFFFFFFFFFFFFFFFFFFFFFFFFFFFFFFFFFFFFF AND DUP2 MSTORE PUSH1 0x20 ADD PUSH1 0x1 DUP3 ADD PUSH1 0x14 SWAP1 SLOAD SWAP1 PUSH2 0x100 EXP SWAP1 DIV PUSH1 0xFF AND PUSH1 0x1 DUP2 GT ISZERO PUSH2 0x5B5 JUMPI INVALID JUMPDEST PUSH1 0x1 DUP2 GT ISZERO PUSH2 0x5C0 JUMPI INVALID JUMPDEST DUP2 MSTORE PUSH1 0x20 ADD PUSH1 0x2 DUP3 ADD SLOAD DUP2 MSTORE PUSH1 0x20 ADD PUSH1 0x3 DUP3 ADD SLOAD DUP2 MSTORE PUSH1 0x20 ADD PUSH1 0x4 DUP3 ADD SLOAD DUP2 MSTORE PUSH1 0x20 ADD PUSH1 0x5 DUP3 ADD SLOAD DUP2 MSTORE PUSH1 0x20 ADD PUSH1 0x6 DUP3 ADD SLOAD DUP2 MSTORE POP POP DUP2 DUP5 DUP2 MLOAD DUP2 LT ISZERO ISZERO PUSH2 0x604 JUMPI INVALID JUMPDEST SWAP1 PUSH1 0x20 ADD SWAP1 PUSH1 0x20 MUL ADD DUP2 SWAP1 MSTORE POP DUP3 DUP1 PUSH1 0x1 ADD SWAP4 POP POP JUMPDEST DUP4 DUP1 PUSH1 0x1 ADD SWAP5 POP POP PUSH2 0x4D8 JUMP JUMPDEST DUP1 SWAP5 POP POP POP POP POP PUSH2 0x7FC JUMP JUMPDEST PUSH1 0x1 DUP1 DUP2 GT ISZERO PUSH2 0x63F JUMPI INVALID JUMPDEST DUP5 PUSH1 0x1 DUP2 GT ISZERO PUSH2 0x64B JUMPI INVALID JUMPDEST EQ ISZERO PUSH2 0x7F9 JUMPI PUSH1 0x0 DUP1 DUP1 SLOAD SWAP1 POP SWAP1 POP PUSH1 0x60 DUP2 PUSH1 0x40 MLOAD SWAP1 DUP1 DUP3 MSTORE DUP1 PUSH1 0x20 MUL PUSH1 0x20 ADD DUP3 ADD PUSH1 0x40 MSTORE DUP1 ISZERO PUSH2 0x696 JUMPI DUP2 PUSH1 0x20 ADD JUMPDEST PUSH2 0x683 PUSH2 0xDEE JUMP JUMPDEST DUP2 MSTORE PUSH1 0x20 ADD SWAP1 PUSH1 0x1 SWAP1 SUB SWAP1 DUP2 PUSH2 0x67B JUMPI SWAP1 POP JUMPDEST POP SWAP1 POP PUSH1 0x0 SWAP4 POP JUMPDEST PUSH1 0x0 DUP1 SLOAD SWAP1 POP DUP5 LT ISZERO PUSH2 0x7ED JUMPI DUP7 PUSH1 0x0 DUP6 DUP2 SLOAD DUP2 LT ISZERO ISZERO PUSH2 0x6BB JUMPI INVALID JUMPDEST SWAP1 PUSH1 0x0 MSTORE PUSH1 0x20 PUSH1 0x0 KECCAK256 SWAP1 PUSH1 0x7 MUL ADD PUSH1 0x2 ADD SLOAD EQ ISZERO PUSH2 0x7E0 JUMPI PUSH1 0x0 DUP5 DUP2 SLOAD DUP2 LT ISZERO ISZERO PUSH2 0x6E2 JUMPI INVALID JUMPDEST SWAP1 PUSH1 0x0 MSTORE PUSH1 0x20 PUSH1 0x0 KECCAK256 SWAP1 PUSH1 0x7 MUL ADD PUSH2 0x100 PUSH1 0x40 MLOAD SWAP1 DUP2 ADD PUSH1 0x40 MSTORE SWAP1 DUP2 PUSH1 0x0 DUP3 ADD SLOAD DUP2 MSTORE PUSH1 0x20 ADD PUSH1 0x1 DUP3 ADD PUSH1 0x0 SWAP1 SLOAD SWAP1 PUSH2 0x100 EXP SWAP1 DIV PUSH20 0xFFFFFFFFFFFFFFFFFFFFFFFFFFFFFFFFFFFFFFFF AND PUSH20 0xFFFFFFFFFFFFFFFFFFFFFFFFFFFFFFFFFFFFFFFF AND PUSH20 0xFFFFFFFFFFFFFFFFFFFFFFFFFFFFFFFFFFFFFFFF AND DUP2 MSTORE PUSH1 0x20 ADD PUSH1 0x1 DUP3 ADD PUSH1 0x14 SWAP1 SLOAD SWAP1 PUSH2 0x100 EXP SWAP1 DIV PUSH1 0xFF AND PUSH1 0x1 DUP2 GT ISZERO PUSH2 0x77B JUMPI INVALID JUMPDEST PUSH1 0x1 DUP2 GT ISZERO PUSH2 0x786 JUMPI INVALID JUMPDEST DUP2 MSTORE PUSH1 0x20 ADD PUSH1 0x2 DUP3 ADD SLOAD DUP2 MSTORE PUSH1 0x20 ADD PUSH1 0x3 DUP3 ADD SLOAD DUP2 MSTORE PUSH1 0x20 ADD PUSH1 0x4 DUP3 ADD SLOAD DUP2 MSTORE PUSH1 0x20 ADD PUSH1 0x5 DUP3 ADD SLOAD DUP2 MSTORE PUSH1 0x20 ADD PUSH1 0x6 DUP3 ADD SLOAD DUP2 MSTORE POP POP DUP2 DUP5 DUP2 MLOAD DUP2 LT ISZERO ISZERO PUSH2 0x7CA JUMPI INVALID JUMPDEST SWAP1 PUSH1 0x20 ADD SWAP1 PUSH1 0x20 MUL ADD DUP2 SWAP1 MSTORE POP DUP3 DUP1 PUSH1 0x1 ADD SWAP4 POP POP JUMPDEST DUP4 DUP1 PUSH1 0x1 ADD SWAP5 POP POP PUSH2 0x69E JUMP JUMPDEST DUP1 SWAP5 POP POP POP POP POP PUSH2 0x7FC JUMP JUMPDEST POP POP JUMPDEST SWAP3 SWAP2 POP POP JUMP JUMPDEST PUSH1 0x3 SLOAD DUP2 JUMP JUMPDEST PUSH1 0x1 DUP2 DUP2 SLOAD DUP2 LT ISZERO ISZERO PUSH2 0x817 JUMPI INVALID JUMPDEST SWAP1 PUSH1 0x0 MSTORE PUSH1 0x20 PUSH1 0x0 KECCAK256 SWAP1 PUSH1 0x7 MUL ADD PUSH1 0x0 SWAP2 POP SWAP1 POP DUP1 PUSH1 0x0 ADD SLOAD SWAP1 DUP1 PUSH1 0x1 ADD PUSH1 0x0 SWAP1 SLOAD SWAP1 PUSH2 0x100 EXP SWAP1 DIV PUSH20 0xFFFFFFFFFFFFFFFFFFFFFFFFFFFFFFFFFFFFFFFF AND SWAP1 DUP1 PUSH1 0x1 ADD PUSH1 0x14 SWAP1 SLOAD SWAP1 PUSH2 0x100 EXP SWAP1 DIV PUSH1 0xFF AND SWAP1 DUP1 PUSH1 0x2 ADD SLOAD SWAP1 DUP1 PUSH1 0x3 ADD SLOAD SWAP1 DUP1 PUSH1 0x4 ADD SLOAD SWAP1 DUP1 PUSH1 0x5 ADD SLOAD SWAP1 DUP1 PUSH1 0x6 ADD SLOAD SWAP1 POP DUP9 JUMP JUMPDEST PUSH1 0x5 PUSH1 0x20 MSTORE DUP1 PUSH1 0x0 MSTORE PUSH1 0x40 PUSH1 0x0 KECCAK256 PUSH1 0x0 SWAP2 POP SWAP1 POP DUP1 PUSH1 0x0 ADD SLOAD SWAP1 DUP1 PUSH1 0x1 ADD PUSH1 0x0 SWAP1 SLOAD SWAP1 PUSH2 0x100 EXP SWAP1 DIV PUSH20 0xFFFFFFFFFFFFFFFFFFFFFFFFFFFFFFFFFFFFFFFF AND SWAP1 POP DUP3 JUMP JUMPDEST PUSH2 0x8D8 PUSH2 0xE58 JUMP JUMPDEST PUSH1 0x40 DUP1 MLOAD SWAP1 DUP2 ADD PUSH1 0x40 MSTORE DUP1 DUP5 DUP2 MSTORE PUSH1 0x20 ADD DUP4 PUSH20 0xFFFFFFFFFFFFFFFFFFFFFFFFFFFFFFFFFFFFFFFF AND DUP2 MSTORE POP SWAP1 POP DUP1 PUSH1 0x5 PUSH1 0x0 DUP6 DUP2 MSTORE PUSH1 0x20 ADD SWAP1 DUP2 MSTORE PUSH1 0x20 ADD PUSH1 0x0 KECCAK256 PUSH1 0x0 DUP3 ADD MLOAD DUP2 PUSH1 0x0 ADD SSTORE PUSH1 0x20 DUP3 ADD MLOAD DUP2 PUSH1 0x1 ADD PUSH1 0x0 PUSH2 0x100 EXP DUP2 SLOAD DUP2 PUSH20 0xFFFFFFFFFFFFFFFFFFFFFFFFFFFFFFFFFFFFFFFF MUL NOT AND SWAP1 DUP4 PUSH20 0xFFFFFFFFFFFFFFFFFFFFFFFFFFFFFFFFFFFFFFFF AND MUL OR SWAP1 SSTORE POP SWAP1 POP POP PUSH1 0x6 DUP4 SWAP1 DUP1 PUSH1 0x1 DUP2 SLOAD ADD DUP1 DUP3 SSTORE DUP1 SWAP2 POP POP SWAP1 PUSH1 0x1 DUP3 SUB SWAP1 PUSH1 0x0 MSTORE PUSH1 0x20 PUSH1 0x0 KECCAK256 ADD PUSH1 0x0 SWAP1 SWAP2 SWAP3 SWAP1 SWAP2 SWAP1 SWAP2 POP SSTORE POP POP POP POP JUMP JUMPDEST PUSH1 0x6 DUP2 DUP2 SLOAD DUP2 LT ISZERO ISZERO PUSH2 0x9AD JUMPI INVALID JUMPDEST SWAP1 PUSH1 0x0 MSTORE PUSH1 0x20 PUSH1 0x0 KECCAK256 ADD PUSH1 0x0 SWAP2 POP SWAP1 POP SLOAD DUP2 JUMP JUMPDEST PUSH1 0x4 PUSH1 0x20 MSTORE DUP1 PUSH1 0x0 MSTORE PUSH1 0x40 PUSH1 0x0 KECCAK256 PUSH1 0x0 SWAP2 POP SWAP1 POP DUP1 PUSH1 0x0 ADD SLOAD SWAP1 DUP1 PUSH1 0x1 ADD PUSH1 0x0 SWAP1 SLOAD SWAP1 PUSH2 0x100 EXP SWAP1 DIV PUSH20 0xFFFFFFFFFFFFFFFFFFFFFFFFFFFFFFFFFFFFFFFF AND SWAP1 DUP1 PUSH1 0x1 ADD PUSH1 0x14 SWAP1 SLOAD SWAP1 PUSH2 0x100 EXP SWAP1 DIV PUSH1 0xFF AND SWAP1 DUP1 PUSH1 0x2 ADD SLOAD SWAP1 DUP1 PUSH1 0x3 ADD SLOAD SWAP1 DUP1 PUSH1 0x4 ADD SLOAD SWAP1 DUP1 PUSH1 0x5 ADD SLOAD SWAP1 DUP1 PUSH1 0x6 ADD SLOAD SWAP1 POP DUP9 JUMP JUMPDEST DUP2 PUSH1 0x2 PUSH1 0x0 CALLER PUSH20 0xFFFFFFFFFFFFFFFFFFFFFFFFFFFFFFFFFFFFFFFF AND PUSH20 0xFFFFFFFFFFFFFFFFFFFFFFFFFFFFFFFFFFFFFFFF AND DUP2 MSTORE PUSH1 0x20 ADD SWAP1 DUP2 MSTORE PUSH1 0x20 ADD PUSH1 0x0 KECCAK256 PUSH1 0x0 DUP4 DUP2 MSTORE PUSH1 0x20 ADD SWAP1 DUP2 MSTORE PUSH1 0x20 ADD PUSH1 0x0 KECCAK256 PUSH1 0x0 DUP3 DUP3 SLOAD SUB SWAP3 POP POP DUP2 SWAP1 SSTORE POP POP POP JUMP JUMPDEST PUSH1 0x60 PUSH1 0x0 PUSH1 0x60 PUSH1 0x6 DUP1 SLOAD SWAP1 POP PUSH1 0x40 MLOAD SWAP1 DUP1 DUP3 MSTORE DUP1 PUSH1 0x20 MUL PUSH1 0x20 ADD DUP3 ADD PUSH1 0x40 MSTORE DUP1 ISZERO PUSH2 0xADD JUMPI DUP2 PUSH1 0x20 ADD JUMPDEST PUSH2 0xACA PUSH2 0xE8B JUMP JUMPDEST DUP2 MSTORE PUSH1 0x20 ADD SWAP1 PUSH1 0x1 SWAP1 SUB SWAP1 DUP2 PUSH2 0xAC2 JUMPI SWAP1 POP JUMPDEST POP SWAP1 POP PUSH1 0x0 SWAP2 POP JUMPDEST PUSH1 0x6 DUP1 SLOAD SWAP1 POP DUP3 LT ISZERO PUSH2 0xBB1 JUMPI PUSH1 0x5 PUSH1 0x0 PUSH1 0x6 DUP5 DUP2 SLOAD DUP2 LT ISZERO ISZERO PUSH2 0xB05 JUMPI INVALID JUMPDEST SWAP1 PUSH1 0x0 MSTORE PUSH1 0x20 PUSH1 0x0 KECCAK256 ADD SLOAD DUP2 MSTORE PUSH1 0x20 ADD SWAP1 DUP2 MSTORE PUSH1 0x20 ADD PUSH1 0x0 KECCAK256 PUSH1 0x40 DUP1 MLOAD SWAP1 DUP2 ADD PUSH1 0x40 MSTORE SWAP1 DUP2 PUSH1 0x0 DUP3 ADD SLOAD DUP2 MSTORE PUSH1 0x20 ADD PUSH1 0x1 DUP3 ADD PUSH1 0x0 SWAP1 SLOAD SWAP1 PUSH2 0x100 EXP SWAP1 DIV PUSH20 0xFFFFFFFFFFFFFFFFFFFFFFFFFFFFFFFFFFFFFFFF AND PUSH20 0xFFFFFFFFFFFFFFFFFFFFFFFFFFFFFFFFFFFFFFFF AND PUSH20 0xFFFFFFFFFFFFFFFFFFFFFFFFFFFFFFFFFFFFFFFF AND DUP2 MSTORE POP POP DUP2 DUP4 DUP2 MLOAD DUP2 LT ISZERO ISZERO PUSH2 0xB97 JUMPI INVALID JUMPDEST SWAP1 PUSH1 0x20 ADD SWAP1 PUSH1 0x20 MUL ADD DUP2 SWAP1 MSTORE POP DUP2 DUP1 PUSH1 0x1 ADD SWAP3 POP POP PUSH2 0xAE5 JUMP JUMPDEST DUP1 SWAP3 POP POP POP SWAP1 JUMP JUMPDEST POP POP POP JUMP JUMPDEST DUP2 PUSH1 0x2 PUSH1 0x0 CALLER PUSH20 0xFFFFFFFFFFFFFFFFFFFFFFFFFFFFFFFFFFFFFFFF AND PUSH20 0xFFFFFFFFFFFFFFFFFFFFFFFFFFFFFFFFFFFFFFFF AND DUP2 MSTORE PUSH1 0x20 ADD SWAP1 DUP2 MSTORE PUSH1 0x20 ADD PUSH1 0x0 KECCAK256 PUSH1 0x0 DUP4 DUP2 MSTORE PUSH1 0x20 ADD SWAP1 DUP2 MSTORE PUSH1 0x20 ADD PUSH1 0x0 KECCAK256 PUSH1 0x0 DUP3 DUP3 SLOAD ADD SWAP3 POP POP DUP2 SWAP1 SSTORE POP POP POP JUMP JUMPDEST PUSH1 0x0 DUP2 DUP2 SLOAD DUP2 LT ISZERO ISZERO PUSH2 0xC2F JUMPI INVALID JUMPDEST SWAP1 PUSH1 0x0 MSTORE PUSH1 0x20 PUSH1 0x0 KECCAK256 SWAP1 PUSH1 0x7 MUL ADD PUSH1 0x0 SWAP2 POP SWAP1 POP DUP1 PUSH1 0x0 ADD SLOAD SWAP1 DUP1 PUSH1 0x1 ADD PUSH1 0x0 SWAP1 SLOAD SWAP1 PUSH2 0x100 EXP SWAP1 DIV PUSH20 0xFFFFFFFFFFFFFFFFFFFFFFFFFFFFFFFFFFFFFFFF AND SWAP1 DUP1 PUSH1 0x1 ADD PUSH1 0x14 SWAP1 SLOAD SWAP1 PUSH2 0x100 EXP SWAP1 DIV PUSH1 0xFF AND SWAP1 DUP1 PUSH1 0x2 ADD SLOAD SWAP1 DUP1 PUSH1 0x3 ADD SLOAD SWAP1 DUP1 PUSH1 0x4 ADD SLOAD SWAP1 DUP1 PUSH1 0x5 ADD SLOAD SWAP1 DUP1 PUSH1 0x6 ADD SLOAD SWAP1 POP DUP9 JUMP JUMPDEST PUSH2 0xCAC PUSH2 0xD84 JUMP JUMPDEST PUSH2 0x100 PUSH1 0x40 MLOAD SWAP1 DUP2 ADD PUSH1 0x40 MSTORE DUP1 PUSH1 0x3 SLOAD DUP2 MSTORE PUSH1 0x20 ADD CALLER PUSH20 0xFFFFFFFFFFFFFFFFFFFFFFFFFFFFFFFFFFFFFFFF AND DUP2 MSTORE PUSH1 0x20 ADD DUP4 PUSH1 0x1 DUP2 GT ISZERO PUSH2 0xCE9 JUMPI INVALID JUMPDEST DUP2 MSTORE PUSH1 0x20 ADD DUP7 DUP2 MSTORE PUSH1 0x20 ADD DUP6 DUP2 MSTORE PUSH1 0x20 ADD PUSH1 0x0 DUP2 MSTORE PUSH1 0x20 ADD DUP5 DUP2 MSTORE PUSH1 0x20 ADD TIMESTAMP DUP2 MSTORE POP SWAP1 POP PUSH1 0x3 PUSH1 0x0 DUP2 SLOAD DUP1 SWAP3 SWAP2 SWAP1 PUSH1 0x1 ADD SWAP2 SWAP1 POP SSTORE POP PUSH1 0x0 DUP1 PUSH1 0x1 DUP2 GT ISZERO PUSH2 0xD2D JUMPI INVALID JUMPDEST DUP4 PUSH1 0x1 DUP2 GT ISZERO PUSH2 0xD39 JUMPI INVALID JUMPDEST EQ ISZERO PUSH2 0xD7C JUMPI PUSH1 0x0 SWAP1 POP JUMPDEST PUSH1 0x1 DUP1 SLOAD SWAP1 POP DUP2 LT ISZERO PUSH2 0xD7B JUMPI DUP4 PUSH1 0x1 DUP3 DUP2 SLOAD DUP2 LT ISZERO ISZERO PUSH2 0xD61 JUMPI INVALID JUMPDEST SWAP1 PUSH1 0x0 MSTORE PUSH1 0x20 PUSH1 0x0 KECCAK256 SWAP1 POP POP POP DUP1 DUP1 PUSH1 0x1 ADD SWAP2 POP POP PUSH2 0xD44 JUMP JUMPDEST JUMPDEST POP POP POP POP POP POP JUMP JUMPDEST PUSH2 0x100 PUSH1 0x40 MLOAD SWAP1 DUP2 ADD PUSH1 0x40 MSTORE DUP1 PUSH1 0x0 DUP2 MSTORE PUSH1 0x20 ADD PUSH1 0x0 PUSH20 0xFFFFFFFFFFFFFFFFFFFFFFFFFFFFFFFFFFFFFFFF AND DUP2 MSTORE PUSH1 0x20 ADD PUSH1 0x0 PUSH1 0x1 DUP2 GT ISZERO PUSH2 0xDC2 JUMPI INVALID JUMPDEST DUP2 MSTORE PUSH1 0x20 ADD PUSH1 0x0 DUP1 NOT AND DUP2 MSTORE PUSH1 0x20 ADD PUSH1 0x0 DUP2 MSTORE PUSH1 0x20 ADD PUSH1 0x0 DUP2 MSTORE PUSH1 0x20 ADD PUSH1 0x0 DUP2 MSTORE PUSH1 0x20 ADD PUSH1 0x0 DUP2 MSTORE POP SWAP1 JUMP JUMPDEST PUSH2 0x100 PUSH1 0x40 MLOAD SWAP1 DUP2 ADD PUSH1 0x40 MSTORE DUP1 PUSH1 0x0 DUP2 MSTORE PUSH1 0x20 ADD PUSH1 0x0 PUSH20 0xFFFFFFFFFFFFFFFFFFFFFFFFFFFFFFFFFFFFFFFF AND DUP2 MSTORE PUSH1 0x20 ADD PUSH1 0x0 PUSH1 0x1 DUP2 GT ISZERO PUSH2 0xE2C JUMPI INVALID JUMPDEST DUP2 MSTORE PUSH1 0x20 ADD PUSH1 0x0 DUP1 NOT AND DUP2 MSTORE PUSH1 0x20 ADD PUSH1 0x0 DUP2 MSTORE PUSH1 0x20 ADD PUSH1 0x0 DUP2 MSTORE PUSH1 0x20 ADD PUSH1 0x0 DUP2 MSTORE PUSH1 0x20 ADD PUSH1 0x0 DUP2 MSTORE POP SWAP1 JUMP JUMPDEST PUSH1 0x40 DUP1 MLOAD SWAP1 DUP2 ADD PUSH1 0x40 MSTORE DUP1 PUSH1 0x0 DUP1 NOT AND DUP2 MSTORE PUSH1 0x20 ADD PUSH1 0x0 PUSH20 0xFFFFFFFFFFFFFFFFFFFFFFFFFFFFFFFFFFFFFFFF AND DUP2 MSTORE POP SWAP1 JUMP JUMPDEST PUSH1 0x40 DUP1 MLOAD SWAP1 DUP2 ADD PUSH1 0x40 MSTORE DUP1 PUSH1 0x0 DUP1 NOT AND DUP2 MSTORE PUSH1 0x20 ADD PUSH1 0x0 PUSH20 0xFFFFFFFFFFFFFFFFFFFFFFFFFFFFFFFFFFFFFFFF AND DUP2 MSTORE POP SWAP1 JUMP JUMPDEST PUSH1 0x0 PUSH2 0xECA DUP3 CALLDATALOAD PUSH2 0x1512 JUMP JUMPDEST SWAP1 POP SWAP3 SWAP2 POP POP JUMP JUMPDEST PUSH1 0x0 PUSH2 0xEDE DUP3 CALLDATALOAD PUSH2 0x1524 JUMP JUMPDEST SWAP1 POP SWAP3 SWAP2 POP POP JUMP JUMPDEST PUSH1 0x0 PUSH2 0xEF2 DUP3 CALLDATALOAD PUSH2 0x152E JUMP JUMPDEST SWAP1 POP SWAP3 SWAP2 POP POP JUMP JUMPDEST PUSH1 0x0 PUSH2 0xF06 DUP3 CALLDATALOAD PUSH2 0x1547 JUMP JUMPDEST SWAP1 POP SWAP3 SWAP2 POP POP JUMP JUMPDEST PUSH1 0x0 PUSH1 0x20 DUP3 DUP5 SUB SLT ISZERO PUSH2 0xF20 JUMPI PUSH1 0x0 DUP1 REVERT JUMPDEST PUSH1 0x0 PUSH2 0xF2E DUP5 DUP3 DUP6 ADD PUSH2 0xED2 JUMP JUMPDEST SWAP2 POP POP SWAP3 SWAP2 POP POP JUMP JUMPDEST PUSH1 0x0 DUP1 PUSH1 0x40 DUP4 DUP6 SUB SLT ISZERO PUSH2 0xF4A JUMPI PUSH1 0x0 DUP1 REVERT JUMPDEST PUSH1 0x0 PUSH2 0xF58 DUP6 DUP3 DUP7 ADD PUSH2 0xED2 JUMP JUMPDEST SWAP3 POP POP PUSH1 0x20 PUSH2 0xF69 DUP6 DUP3 DUP7 ADD PUSH2 0xEBE JUMP JUMPDEST SWAP2 POP POP SWAP3 POP SWAP3 SWAP1 POP JUMP JUMPDEST PUSH1 0x0 DUP1 PUSH1 0x40 DUP4 DUP6 SUB SLT ISZERO PUSH2 0xF86 JUMPI PUSH1 0x0 DUP1 REVERT JUMPDEST PUSH1 0x0 PUSH2 0xF94 DUP6 DUP3 DUP7 ADD PUSH2 0xED2 JUMP JUMPDEST SWAP3 POP POP PUSH1 0x20 PUSH2 0xFA5 DUP6 DUP3 DUP7 ADD PUSH2 0xEE6 JUMP JUMPDEST SWAP2 POP POP SWAP3 POP SWAP3 SWAP1 POP JUMP JUMPDEST PUSH1 0x0 DUP1 PUSH1 0x0 PUSH1 0x60 DUP5 DUP7 SUB SLT ISZERO PUSH2 0xFC4 JUMPI PUSH1 0x0 DUP1 REVERT JUMPDEST PUSH1 0x0 PUSH2 0xFD2 DUP7 DUP3 DUP8 ADD PUSH2 0xED2 JUMP JUMPDEST SWAP4 POP POP PUSH1 0x20 PUSH2 0xFE3 DUP7 DUP3 DUP8 ADD PUSH2 0xEFA JUMP JUMPDEST SWAP3 POP POP PUSH1 0x40 PUSH2 0xFF4 DUP7 DUP3 DUP8 ADD PUSH2 0xEE6 JUMP JUMPDEST SWAP2 POP POP SWAP3 POP SWAP3 POP SWAP3 JUMP JUMPDEST PUSH1 0x0 DUP1 PUSH1 0x0 DUP1 PUSH1 0x80 DUP6 DUP8 SUB SLT ISZERO PUSH2 0x1014 JUMPI PUSH1 0x0 DUP1 REVERT JUMPDEST PUSH1 0x0 PUSH2 0x1022 DUP8 DUP3 DUP9 ADD PUSH2 0xED2 JUMP JUMPDEST SWAP5 POP POP PUSH1 0x20 PUSH2 0x1033 DUP8 DUP3 DUP9 ADD PUSH2 0xEFA JUMP JUMPDEST SWAP4 POP POP PUSH1 0x40 PUSH2 0x1044 DUP8 DUP3 DUP9 ADD PUSH2 0xEFA JUMP JUMPDEST SWAP3 POP POP PUSH1 0x60 PUSH2 0x1055 DUP8 DUP3 DUP9 ADD PUSH2 0xEE6 JUMP JUMPDEST SWAP2 POP POP SWAP3 SWAP6 SWAP2 SWAP5 POP SWAP3 POP JUMP JUMPDEST PUSH1 0x0 PUSH1 0x20 DUP3 DUP5 SUB SLT ISZERO PUSH2 0x1073 JUMPI PUSH1 0x0 DUP1 REVERT JUMPDEST PUSH1 0x0 PUSH2 0x1081 DUP5 DUP3 DUP6 ADD PUSH2 0xEFA JUMP JUMPDEST SWAP2 POP POP SWAP3 SWAP2 POP POP JUMP JUMPDEST PUSH1 0x0 DUP1 PUSH1 0x40 DUP4 DUP6 SUB SLT ISZERO PUSH2 0x109D JUMPI PUSH1 0x0 DUP1 REVERT JUMPDEST PUSH1 0x0 PUSH2 0x10AB DUP6 DUP3 DUP7 ADD PUSH2 0xEFA JUMP JUMPDEST SWAP3 POP POP PUSH1 0x20 PUSH2 0x10BC DUP6 DUP3 DUP7 ADD PUSH2 0xED2 JUMP JUMPDEST SWAP2 POP POP SWAP3 POP SWAP3 SWAP1 POP JUMP JUMPDEST PUSH1 0x0 DUP1 PUSH1 0x0 PUSH1 0x60 DUP5 DUP7 SUB SLT ISZERO PUSH2 0x10DB JUMPI PUSH1 0x0 DUP1 REVERT JUMPDEST PUSH1 0x0 PUSH2 0x10E9 DUP7 DUP3 DUP8 ADD PUSH2 0xEFA JUMP JUMPDEST SWAP4 POP POP PUSH1 0x20 PUSH2 0x10FA DUP7 DUP3 DUP8 ADD PUSH2 0xED2 JUMP JUMPDEST SWAP3 POP POP PUSH1 0x40 PUSH2 0x110B DUP7 DUP3 DUP8 ADD PUSH2 0xEE6 JUMP JUMPDEST SWAP2 POP POP SWAP3 POP SWAP3 POP SWAP3 JUMP JUMPDEST PUSH2 0x111E DUP2 PUSH2 0x14AA JUMP JUMPDEST DUP3 MSTORE POP POP JUMP JUMPDEST PUSH2 0x112D DUP2 PUSH2 0x14AA JUMP JUMPDEST DUP3 MSTORE POP POP JUMP JUMPDEST PUSH1 0x0 PUSH2 0x113E DUP3 PUSH2 0x147A JUMP JUMPDEST DUP1 DUP5 MSTORE PUSH1 0x20 DUP5 ADD SWAP4 POP PUSH2 0x1150 DUP4 PUSH2 0x1460 JUMP JUMPDEST PUSH1 0x0 JUMPDEST DUP3 DUP2 LT ISZERO PUSH2 0x1183 JUMPI PUSH2 0x1166 DUP7 DUP4 MLOAD PUSH2 0x1235 JUMP JUMPDEST PUSH2 0x116F DUP3 PUSH2 0x1490 JUMP JUMPDEST SWAP2 POP PUSH2 0x100 DUP7 ADD SWAP6 POP PUSH1 0x1 DUP2 ADD SWAP1 POP PUSH2 0x1153 JUMP JUMPDEST POP DUP5 SWAP3 POP POP POP SWAP3 SWAP2 POP POP JUMP JUMPDEST PUSH1 0x0 PUSH2 0x119A DUP3 PUSH2 0x1485 JUMP JUMPDEST DUP1 DUP5 MSTORE PUSH1 0x20 DUP5 ADD SWAP4 POP PUSH2 0x11AC DUP4 PUSH2 0x146D JUMP JUMPDEST PUSH1 0x0 JUMPDEST DUP3 DUP2 LT ISZERO PUSH2 0x11DE JUMPI PUSH2 0x11C2 DUP7 DUP4 MLOAD PUSH2 0x12D7 JUMP JUMPDEST PUSH2 0x11CB DUP3 PUSH2 0x149D JUMP JUMPDEST SWAP2 POP PUSH1 0x40 DUP7 ADD SWAP6 POP PUSH1 0x1 DUP2 ADD SWAP1 POP PUSH2 0x11AF JUMP JUMPDEST POP DUP5 SWAP3 POP POP POP SWAP3 SWAP2 POP POP JUMP JUMPDEST PUSH2 0x11F3 DUP2 PUSH2 0x14BC JUMP JUMPDEST DUP3 MSTORE POP POP JUMP JUMPDEST PUSH2 0x1202 DUP2 PUSH2 0x14C8 JUMP JUMPDEST DUP3 MSTORE POP POP JUMP JUMPDEST PUSH2 0x1211 DUP2 PUSH2 0x14C8 JUMP JUMPDEST DUP3 MSTORE POP POP JUMP JUMPDEST PUSH2 0x1220 DUP2 PUSH2 0x1551 JUMP JUMPDEST DUP3 MSTORE POP POP JUMP JUMPDEST PUSH2 0x122F DUP2 PUSH2 0x1551 JUMP JUMPDEST DUP3 MSTORE POP POP JUMP JUMPDEST PUSH2 0x100 DUP3 ADD PUSH1 0x0 DUP3 ADD MLOAD PUSH2 0x124C PUSH1 0x0 DUP6 ADD DUP3 PUSH2 0x1306 JUMP JUMPDEST POP PUSH1 0x20 DUP3 ADD MLOAD PUSH2 0x125F PUSH1 0x20 DUP6 ADD DUP3 PUSH2 0x1115 JUMP JUMPDEST POP PUSH1 0x40 DUP3 ADD MLOAD PUSH2 0x1272 PUSH1 0x40 DUP6 ADD DUP3 PUSH2 0x1217 JUMP JUMPDEST POP PUSH1 0x60 DUP3 ADD MLOAD PUSH2 0x1285 PUSH1 0x60 DUP6 ADD DUP3 PUSH2 0x11F9 JUMP JUMPDEST POP PUSH1 0x80 DUP3 ADD MLOAD PUSH2 0x1298 PUSH1 0x80 DUP6 ADD DUP3 PUSH2 0x1306 JUMP JUMPDEST POP PUSH1 0xA0 DUP3 ADD MLOAD PUSH2 0x12AB PUSH1 0xA0 DUP6 ADD DUP3 PUSH2 0x1306 JUMP JUMPDEST POP PUSH1 0xC0 DUP3 ADD MLOAD PUSH2 0x12BE PUSH1 0xC0 DUP6 ADD DUP3 PUSH2 0x1306 JUMP JUMPDEST POP PUSH1 0xE0 DUP3 ADD MLOAD PUSH2 0x12D1 PUSH1 0xE0 DUP6 ADD DUP3 PUSH2 0x1306 JUMP JUMPDEST POP POP POP POP JUMP JUMPDEST PUSH1 0x40 DUP3 ADD PUSH1 0x0 DUP3 ADD MLOAD PUSH2 0x12ED PUSH1 0x0 DUP6 ADD DUP3 PUSH2 0x11F9 JUMP JUMPDEST POP PUSH1 0x20 DUP3 ADD MLOAD PUSH2 0x1300 PUSH1 0x20 DUP6 ADD DUP3 PUSH2 0x1115 JUMP JUMPDEST POP POP POP POP JUMP JUMPDEST PUSH2 0x130F DUP2 PUSH2 0x1508 JUMP JUMPDEST DUP3 MSTORE POP POP JUMP JUMPDEST PUSH2 0x131E DUP2 PUSH2 0x1508 JUMP JUMPDEST DUP3 MSTORE POP POP JUMP JUMPDEST PUSH1 0x0 PUSH1 0x20 DUP3 ADD SWAP1 POP DUP2 DUP2 SUB PUSH1 0x0 DUP4 ADD MSTORE PUSH2 0x133E DUP2 DUP5 PUSH2 0x1133 JUMP JUMPDEST SWAP1 POP SWAP3 SWAP2 POP POP JUMP JUMPDEST PUSH1 0x0 PUSH1 0x20 DUP3 ADD SWAP1 POP DUP2 DUP2 SUB PUSH1 0x0 DUP4 ADD MSTORE PUSH2 0x1360 DUP2 DUP5 PUSH2 0x118F JUMP JUMPDEST SWAP1 POP SWAP3 SWAP2 POP POP JUMP JUMPDEST PUSH1 0x0 PUSH1 0x20 DUP3 ADD SWAP1 POP PUSH2 0x137D PUSH1 0x0 DUP4 ADD DUP5 PUSH2 0x11EA JUMP JUMPDEST SWAP3 SWAP2 POP POP JUMP JUMPDEST PUSH1 0x0 PUSH1 0x20 DUP3 ADD SWAP1 POP PUSH2 0x1398 PUSH1 0x0 DUP4 ADD DUP5 PUSH2 0x1208 JUMP JUMPDEST SWAP3 SWAP2 POP POP JUMP JUMPDEST PUSH1 0x0 PUSH1 0x40 DUP3 ADD SWAP1 POP PUSH2 0x13B3 PUSH1 0x0 DUP4 ADD DUP6 PUSH2 0x1208 JUMP JUMPDEST PUSH2 0x13C0 PUSH1 0x20 DUP4 ADD DUP5 PUSH2 0x1124 JUMP JUMPDEST SWAP4 SWAP3 POP POP POP JUMP JUMPDEST PUSH1 0x0 PUSH1 0x20 DUP3 ADD SWAP1 POP PUSH2 0x13DC PUSH1 0x0 DUP4 ADD DUP5 PUSH2 0x1315 JUMP JUMPDEST SWAP3 SWAP2 POP POP JUMP JUMPDEST PUSH1 0x0 PUSH2 0x100 DUP3 ADD SWAP1 POP PUSH2 0x13F8 PUSH1 0x0 DUP4 ADD DUP12 PUSH2 0x1315 JUMP JUMPDEST PUSH2 0x1405 PUSH1 0x20 DUP4 ADD DUP11 PUSH2 0x1124 JUMP JUMPDEST PUSH2 0x1412 PUSH1 0x40 DUP4 ADD DUP10 PUSH2 0x1226 JUMP JUMPDEST PUSH2 0x141F PUSH1 0x60 DUP4 ADD DUP9 PUSH2 0x1208 JUMP JUMPDEST PUSH2 0x142C PUSH1 0x80 DUP4 ADD DUP8 PUSH2 0x1315 JUMP JUMPDEST PUSH2 0x1439 PUSH1 0xA0 DUP4 ADD DUP7 PUSH2 0x1315 JUMP JUMPDEST PUSH2 0x1446 PUSH1 0xC0 DUP4 ADD DUP6 PUSH2 0x1315 JUMP JUMPDEST PUSH2 0x1453 PUSH1 0xE0 DUP4 ADD DUP5 PUSH2 0x1315 JUMP JUMPDEST SWAP10 SWAP9 POP POP POP POP POP POP POP POP POP JUMP JUMPDEST PUSH1 0x0 PUSH1 0x20 DUP3 ADD SWAP1 POP SWAP2 SWAP1 POP JUMP JUMPDEST PUSH1 0x0 PUSH1 0x20 DUP3 ADD SWAP1 POP SWAP2 SWAP1 POP JUMP JUMPDEST PUSH1 0x0 DUP2 MLOAD SWAP1 POP SWAP2 SWAP1 POP JUMP JUMPDEST PUSH1 0x0 DUP2 MLOAD SWAP1 POP SWAP2 SWAP1 POP JUMP JUMPDEST PUSH1 0x0 PUSH1 0x20 DUP3 ADD SWAP1 POP SWAP2 SWAP1 POP JUMP JUMPDEST PUSH1 0x0 PUSH1 0x20 DUP3 ADD SWAP1 POP SWAP2 SWAP1 POP JUMP JUMPDEST PUSH1 0x0 PUSH2 0x14B5 DUP3 PUSH2 0x14E8 JUMP JUMPDEST SWAP1 POP SWAP2 SWAP1 POP JUMP JUMPDEST PUSH1 0x0 DUP2 ISZERO ISZERO SWAP1 POP SWAP2 SWAP1 POP JUMP JUMPDEST PUSH1 0x0 DUP2 SWAP1 POP SWAP2 SWAP1 POP JUMP JUMPDEST PUSH1 0x0 PUSH1 0x2 DUP3 LT ISZERO ISZERO PUSH2 0x14E0 JUMPI INVALID JUMPDEST DUP2 SWAP1 POP SWAP2 SWAP1 POP JUMP JUMPDEST PUSH1 0x0 PUSH20 0xFFFFFFFFFFFFFFFFFFFFFFFFFFFFFFFFFFFFFFFF DUP3 AND SWAP1 POP SWAP2 SWAP1 POP JUMP JUMPDEST PUSH1 0x0 DUP2 SWAP1 POP SWAP2 SWAP1 POP JUMP JUMPDEST PUSH1 0x0 PUSH2 0x151D DUP3 PUSH2 0x14E8 JUMP JUMPDEST SWAP1 POP SWAP2 SWAP1 POP JUMP JUMPDEST PUSH1 0x0 DUP2 SWAP1 POP SWAP2 SWAP1 POP JUMP JUMPDEST PUSH1 0x0 PUSH1 0x2 DUP3 LT ISZERO ISZERO PUSH2 0x153F JUMPI PUSH1 0x0 DUP1 REVERT JUMPDEST DUP2 SWAP1 POP SWAP2 SWAP1 POP JUMP JUMPDEST PUSH1 0x0 DUP2 SWAP1 POP SWAP2 SWAP1 POP JUMP JUMPDEST PUSH1 0x0 PUSH2 0x155C DUP3 PUSH2 0x14D2 JUMP JUMPDEST SWAP1 POP SWAP2 SWAP1 POP JUMP INVALID LOG2 PUSH6 0x627A7A723058 KECCAK256 0xe3 0x2c PUSH23 0x42D74B0829E621836130111E7209C4F4A074AFF491E0AC CODECOPY SWAP4 PUSH12 0x7CE3C96C6578706572696D65 PUSH15 0x74616CF50037000000000000000000 "
		},
		"gasEstimates": {
			"creation": {
				"codeDepositCost": "1106600",
				"executionCost": "1147",
				"totalCost": "1107747"
			},
			"external": {
				"addToken(bytes32,address)": "81519",
				"buy_order_book(uint256)": "infinite",
				"deleteLimitOrder(uint256,bytes32,uint8)": "3188",
				"deposit(uint256,bytes32)": "20924",
				"getNextID()": "588",
				"getOrders(bytes32,uint8)": "infinite",
				"getTokens()": "infinite",
				"id_ticker()": "557",
				"makeLimitOrder(bytes32,uint256,uint256,uint8)": "infinite",
				"makeMarketOrder(bytes32,uint256,uint8)": "649",
				"orders(uint256)": "infinite",
				"sell_order_book(uint256)": "infinite",
				"tokenList(uint256)": "1064",
				"tokens(bytes32)": "1296",
				"withdraw(uint256,bytes32)": "20947"
			}
		},
		"methodIdentifiers": {
			"addToken(bytes32,address)": "9776aacf",
			"buy_order_book(uint256)": "840791c7",
			"deleteLimitOrder(uint256,bytes32,uint8)": "17aa080c",
			"deposit(uint256,bytes32)": "c9630cb0",
			"getNextID()": "2b0b086e",
			"getOrders(bytes32,uint8)": "46e9658b",
			"getTokens()": "aa6ca808",
			"id_ticker()": "5e74e17a",
			"makeLimitOrder(bytes32,uint256,uint256,uint8)": "da28bd5c",
			"makeMarketOrder(bytes32,uint256,uint8)": "be2a296b",
			"orders(uint256)": "a85c38ef",
			"sell_order_book(uint256)": "d87c5d75",
			"tokenList(uint256)": "9ead7222",
			"tokens(bytes32)": "904194a3",
			"withdraw(uint256,bytes32)": "a8d2021a"
		}
	},
	"abi": [
		{
			"constant": false,
			"inputs": [
				{
					"name": "id",
					"type": "uint256"
				},
				{
					"name": "ticker",
					"type": "bytes32"
				},
				{
					"name": "side",
					"type": "uint8"
				}
			],
			"name": "deleteLimitOrder",
			"outputs": [
				{
					"name": "",
					"type": "bool"
				}
			],
			"payable": false,
			"stateMutability": "nonpayable",
			"type": "function"
		},
		{
			"constant": false,
			"inputs": [],
			"name": "getNextID",
			"outputs": [
				{
					"name": "",
					"type": "uint256"
				}
			],
			"payable": false,
			"stateMutability": "nonpayable",
			"type": "function"
		},
		{
			"constant": true,
			"inputs": [
				{
					"name": "ticker",
					"type": "bytes32"
				},
				{
					"name": "side",
					"type": "uint8"
				}
			],
			"name": "getOrders",
			"outputs": [
				{
					"components": [
						{
							"name": "id",
							"type": "uint256"
						},
						{
							"name": "trader",
							"type": "address"
						},
						{
							"name": "side",
							"type": "uint8"
						},
						{
							"name": "ticker",
							"type": "bytes32"
						},
						{
							"name": "amount",
							"type": "uint256"
						},
						{
							"name": "filled",
							"type": "uint256"
						},
						{
							"name": "price",
							"type": "uint256"
						},
						{
							"name": "date",
							"type": "uint256"
						}
					],
					"name": "",
					"type": "tuple[]"
				}
			],
			"payable": false,
			"stateMutability": "view",
			"type": "function"
		},
		{
			"constant": true,
			"inputs": [],
			"name": "id_ticker",
			"outputs": [
				{
					"name": "",
					"type": "uint256"
				}
			],
			"payable": false,
			"stateMutability": "view",
			"type": "function"
		},
		{
			"constant": true,
			"inputs": [
				{
					"name": "",
					"type": "uint256"
				}
			],
			"name": "buy_order_book",
			"outputs": [
				{
					"name": "id",
					"type": "uint256"
				},
				{
					"name": "trader",
					"type": "address"
				},
				{
					"name": "side",
					"type": "uint8"
				},
				{
					"name": "ticker",
					"type": "bytes32"
				},
				{
					"name": "amount",
					"type": "uint256"
				},
				{
					"name": "filled",
					"type": "uint256"
				},
				{
					"name": "price",
					"type": "uint256"
				},
				{
					"name": "date",
					"type": "uint256"
				}
			],
			"payable": false,
			"stateMutability": "view",
			"type": "function"
		},
		{
			"constant": true,
			"inputs": [
				{
					"name": "",
					"type": "bytes32"
				}
			],
			"name": "tokens",
			"outputs": [
				{
					"name": "ticker",
					"type": "bytes32"
				},
				{
					"name": "tokenAddress",
					"type": "address"
				}
			],
			"payable": false,
			"stateMutability": "view",
			"type": "function"
		},
		{
			"constant": false,
			"inputs": [
				{
					"name": "ticker",
					"type": "bytes32"
				},
				{
					"name": "tokenAddress",
					"type": "address"
				}
			],
			"name": "addToken",
			"outputs": [],
			"payable": false,
			"stateMutability": "nonpayable",
			"type": "function"
		},
		{
			"constant": true,
			"inputs": [
				{
					"name": "",
					"type": "uint256"
				}
			],
			"name": "tokenList",
			"outputs": [
				{
					"name": "",
					"type": "bytes32"
				}
			],
			"payable": false,
			"stateMutability": "view",
			"type": "function"
		},
		{
			"constant": true,
			"inputs": [
				{
					"name": "",
					"type": "uint256"
				}
			],
			"name": "orders",
			"outputs": [
				{
					"name": "id",
					"type": "uint256"
				},
				{
					"name": "trader",
					"type": "address"
				},
				{
					"name": "side",
					"type": "uint8"
				},
				{
					"name": "ticker",
					"type": "bytes32"
				},
				{
					"name": "amount",
					"type": "uint256"
				},
				{
					"name": "filled",
					"type": "uint256"
				},
				{
					"name": "price",
					"type": "uint256"
				},
				{
					"name": "date",
					"type": "uint256"
				}
			],
			"payable": false,
			"stateMutability": "view",
			"type": "function"
		},
		{
			"constant": false,
			"inputs": [
				{
					"name": "amount",
					"type": "uint256"
				},
				{
					"name": "ticker",
					"type": "bytes32"
				}
			],
			"name": "withdraw",
			"outputs": [],
			"payable": false,
			"stateMutability": "nonpayable",
			"type": "function"
		},
		{
			"constant": true,
			"inputs": [],
			"name": "getTokens",
			"outputs": [
				{
					"components": [
						{
							"name": "ticker",
							"type": "bytes32"
						},
						{
							"name": "tokenAddress",
							"type": "address"
						}
					],
					"name": "",
					"type": "tuple[]"
				}
			],
			"payable": false,
			"stateMutability": "view",
			"type": "function"
		},
		{
			"constant": false,
			"inputs": [
				{
					"name": "ticker",
					"type": "bytes32"
				},
				{
					"name": "amount",
					"type": "uint256"
				},
				{
					"name": "side",
					"type": "uint8"
				}
			],
			"name": "makeMarketOrder",
			"outputs": [],
			"payable": false,
			"stateMutability": "nonpayable",
			"type": "function"
		},
		{
			"constant": false,
			"inputs": [
				{
					"name": "amount",
					"type": "uint256"
				},
				{
					"name": "ticker",
					"type": "bytes32"
				}
			],
			"name": "deposit",
			"outputs": [],
			"payable": false,
			"stateMutability": "nonpayable",
			"type": "function"
		},
		{
			"constant": true,
			"inputs": [
				{
					"name": "",
					"type": "uint256"
				}
			],
			"name": "sell_order_book",
			"outputs": [
				{
					"name": "id",
					"type": "uint256"
				},
				{
					"name": "trader",
					"type": "address"
				},
				{
					"name": "side",
					"type": "uint8"
				},
				{
					"name": "ticker",
					"type": "bytes32"
				},
				{
					"name": "amount",
					"type": "uint256"
				},
				{
					"name": "filled",
					"type": "uint256"
				},
				{
					"name": "price",
					"type": "uint256"
				},
				{
					"name": "date",
					"type": "uint256"
				}
			],
			"payable": false,
			"stateMutability": "view",
			"type": "function"
		},
		{
			"constant": false,
			"inputs": [
				{
					"name": "ticker",
					"type": "bytes32"
				},
				{
					"name": "amount",
					"type": "uint256"
				},
				{
					"name": "price",
					"type": "uint256"
				},
				{
					"name": "side",
					"type": "uint8"
				}
			],
			"name": "makeLimitOrder",
			"outputs": [],
			"payable": false,
			"stateMutability": "nonpayable",
			"type": "function"
		},
		{
			"anonymous": false,
			"inputs": [
				{
					"indexed": false,
					"name": "tradeId",
					"type": "uint256"
				},
				{
					"indexed": false,
					"name": "orderId",
					"type": "uint256"
				},
				{
					"indexed": true,
					"name": "ticker",
					"type": "bytes32"
				},
				{
					"indexed": true,
					"name": "trader1",
					"type": "address"
				},
				{
					"indexed": true,
					"name": "trader2",
					"type": "address"
				},
				{
					"indexed": false,
					"name": "amount",
					"type": "uint256"
				},
				{
					"indexed": false,
					"name": "price",
					"type": "uint256"
				},
				{
					"indexed": false,
					"name": "date",
					"type": "uint256"
				}
			],
			"name": "NewTrade",
			"type": "event"
		}
	]
}