{
	"data": {
		"bytecode": {
			"linkReferences": {},
			"object": "608060405234801561001057600080fd5b50612b42806100206000396000f3fe608060405234801561001057600080fd5b5060043610610149576000357c0100000000000000000000000000000000000000000000000000000000900480639776aacf116100ca578063aa6ca8081161008e578063aa6ca808146103b6578063be2a296b146103d4578063c9630cb0146103f0578063da28bd5c1461040c578063eb5945e41461042857610149565b80639776aacf146102e75780639ead722214610303578063a56cce4614610333578063a85c38ef14610363578063a8d2021a1461039a57610149565b80635f697363116101115780635f6973631461021a578063653a839e1461023857806372ce957e146102565780638ac3937114610286578063904194a3146102b657610149565b80631238fcf01461014e57806317aa080c1461017e5780632b0b086e146101ae57806346e9658b146101cc5780635e74e17a146101fc575b600080fd5b61016860048036036101639190810190612341565b610458565b60405161017591906128af565b60405180910390f35b610198600480360361019391908101906124f9565b610483565b6040516101a59190612850565b60405180910390f35b6101b6610727565b6040516101c391906128ca565b60405180910390f35b6101e660048036036101e191908101906123a6565b610731565b6040516101f3919061280c565b60405180910390f35b6102046108e9565b60405161021191906128ca565b60405180910390f35b6102226108ef565b60405161022f91906128ca565b60405180910390f35b6102406108f5565b60405161024d91906128ca565b60405180910390f35b610270600480360361026b91908101906122dc565b6108fb565b60405161027d91906128ca565b60405180910390f35b6102a0600480360361029b9190810190612341565b610920565b6040516102ad9190612850565b60405180910390f35b6102d060048036036102cb9190810190612341565b610940565b6040516102de929190612886565b60405180910390f35b61030160048036036102fc919081019061236a565b610984565b005b61031d60048036036103189190810190612494565b610a93565b60405161032a919061286b565b60405180910390f35b61034d60048036036103489190810190612341565b610ab6565b60405161035a91906128af565b60405180910390f35b61037d60048036036103789190810190612494565b610ae1565b6040516103919897969594939291906128e5565b60405180910390f35b6103b460048036036103af91908101906124bd565b610b56565b005b6103be610dd9565b6040516103cb919061282e565b60405180910390f35b6103ee60048036036103e991908101906123e2565b610efa565b005b61040a600480360361040591908101906124bd565b61164d565b005b61042660048036036104219190810190612431565b611791565b005b610442600480360361043d9190810190612494565b611a07565b60405161044f91906128ca565b60405180910390f35b60016020528060005260406000206000915090508060000160009054906101000a9004600f0b905081565b600061048d612021565b600760008681526020019081526020016000206101006040519081016040529081600082015481526020016001820160009054906101000a900473ffffffffffffffffffffffffffffffffffffffff1673ffffffffffffffffffffffffffffffffffffffff1673ffffffffffffffffffffffffffffffffffffffff1681526020016001820160149054906101000a900460ff16600181111561052b57fe5b600181111561053657fe5b8152602001600282015481526020016003820154815260200160048201548152602001600582015481526020016006820154815250509050806020015173ffffffffffffffffffffffffffffffffffffffff163373ffffffffffffffffffffffffffffffffffffffff16141561071a576105ae61208b565b600060018111156105bb57fe5b826040015160018111156105cb57fe5b14156105fd576105f68660016000888152602001908152602001600020611a2a90919063ffffffff16565b9050610647565b60018081111561060957fe5b8260400151600181111561061957fe5b14156106465761064386600080888152602001908152602001600020611a2a90919063ffffffff16565b90505b5b6000816000015114801561065f575060008160200151145b1561066f57600092505050610720565b600760008781526020019081526020016000206000808201600090556001820160006101000a81549073ffffffffffffffffffffffffffffffffffffffff02191690556001820160146101000a81549060ff0219169055600282016000905560038201600090556004820160009055600582016000905560068201600090555050600060038781548110151561070157fe5b9060005260206000200181905550600192505050610720565b60009150505b9392505050565b6000600454905090565b6060600080606060038054905060405190808252806020026020018201604052801561077757816020015b6107646120a5565b81526020019060019003908161075c5790505b509050600092505b6003805490508310156108e057600060038481548110151561079d57fe5b90600052602060002001541415156108cb57600760006003858154811015156107c257fe5b906000526020600020015481526020019081526020016000206101006040519081016040529081600082015481526020016001820160009054906101000a900473ffffffffffffffffffffffffffffffffffffffff1673ffffffffffffffffffffffffffffffffffffffff1673ffffffffffffffffffffffffffffffffffffffff1681526020016001820160149054906101000a900460ff16600181111561086657fe5b600181111561087157fe5b81526020016002820154815260200160038201548152602001600482015481526020016005820154815260200160068201548152505081838151811015156108b557fe5b9060200190602002018190525081806001019250505b8280600101935050828060010193505061077f565b50505092915050565b60045481565b60055481565b60065481565b6002602052816000526040600020602052806000526040600020600091509150505481565b600a6020528060005260406000206000915054906101000a900460ff1681565b60086020528060005260406000206000915090508060000154908060010160009054906101000a900473ffffffffffffffffffffffffffffffffffffffff16905082565b61098c61210f565b60408051908101604052808481526020018373ffffffffffffffffffffffffffffffffffffffff16815250905080600860008581526020019081526020016000206000820151816000015560208201518160010160006101000a81548173ffffffffffffffffffffffffffffffffffffffff021916908373ffffffffffffffffffffffffffffffffffffffff16021790555090505060098054809190600101610a359190612142565b5060098390806001815401808255809150509060018203906000526020600020016000909192909190915055506001600a600085815260200190815260200160002060006101000a81548160ff021916908315150217905550505050565b600981815481101515610aa257fe5b906000526020600020016000915090505481565b60006020528060005260406000206000915090508060000160009054906101000a9004600f0b905081565b60076020528060005260406000206000915090508060000154908060010160009054906101000a900473ffffffffffffffffffffffffffffffffffffffff16908060010160149054906101000a900460ff16908060020154908060030154908060040154908060050154908060060154905088565b81600260003373ffffffffffffffffffffffffffffffffffffffff1673ffffffffffffffffffffffffffffffffffffffff168152602001908152602001600020600083815260200190815260200160002054101515610dd5576008600082815260200190815260200160002060010160009054906101000a900473ffffffffffffffffffffffffffffffffffffffff1673ffffffffffffffffffffffffffffffffffffffff1663095ea7b330846040518363ffffffff167c0100000000000000000000000000000000000000000000000000000000028152600401610c3c9291906127e3565b602060405180830381600087803b158015610c5657600080fd5b505af1158015610c6a573d6000803e3d6000fd5b505050506040513d601f19601f82011682018060405250610c8e9190810190612318565b15610d76576008600082815260200190815260200160002060010160009054906101000a900473ffffffffffffffffffffffffffffffffffffffff1673ffffffffffffffffffffffffffffffffffffffff166323b872dd3033856040518463ffffffff167c0100000000000000000000000000000000000000000000000000000000028152600401610d22939291906127ac565b602060405180830381600087803b158015610d3c57600080fd5b505af1158015610d50573d6000803e3d6000fd5b505050506040513d601f19601f82011682018060405250610d749190810190612318565b505b81600260003373ffffffffffffffffffffffffffffffffffffffff1673ffffffffffffffffffffffffffffffffffffffff1681526020019081526020016000206000838152602001908152602001600020600082825403925050819055505b5050565b606060006060600980549050604051908082528060200260200182016040528015610e1e57816020015b610e0b61216e565b815260200190600190039081610e035790505b509050600091505b600980549050821015610ef25760086000600984815481101515610e4657fe5b90600052602060002001548152602001908152602001600020604080519081016040529081600082015481526020016001820160009054906101000a900473ffffffffffffffffffffffffffffffffffffffff1673ffffffffffffffffffffffffffffffffffffffff1673ffffffffffffffffffffffffffffffffffffffff16815250508183815181101515610ed857fe5b906020019060200201819052508180600101925050610e26565b809250505090565b60006001811115610f0757fe5b816001811115610f1357fe5b14156112a6576000610f3660016000868152602001908152602001600020611a59565b60000151905060008390505b8060076000848152602001908152602001600020600401546007600085815260200190815260200160002060030154031115156111ad57610f8161208b565b610f9c60016000888152602001908152602001600020611a73565b905060006007600085815260200190815260200160002060040154600760008681526020019081526020016000206003015403860390503373ffffffffffffffffffffffffffffffffffffffff166007600086815260200190815260200160002060010160009054906101000a900473ffffffffffffffffffffffffffffffffffffffff1673ffffffffffffffffffffffffffffffffffffffff1660076000878152602001908152602001600020600201547fdb0c486e680ba8026643e6a85f8d157b5e7bcd4b32b54d564542570a9eb2041660055488600760008b815260200190815260200160002060040154600760008c81526020019081526020016000206003015403600760008c815260200190815260200160002060050154426040516110cb959493929190612963565b60405180910390a4600560008154809291906001019190505550600760008581526020019081526020016000206000808201600090556001820160006101000a81549073ffffffffffffffffffffffffffffffffffffffff02191690556001820160146101000a81549060ff0219169055600282016000905560038201600090556004820160009055600582016000905560068201600090555050600060038581548110151561117757fe5b90600052602060002001819055506111a060016000898152602001908152602001600020611a59565b6000015193505050610f42565b8060076000848152602001908152602001600020600401600082825401925050819055503373ffffffffffffffffffffffffffffffffffffffff166007600084815260200190815260200160002060010160009054906101000a900473ffffffffffffffffffffffffffffffffffffffff1673ffffffffffffffffffffffffffffffffffffffff16867fdb0c486e680ba8026643e6a85f8d157b5e7bcd4b32b54d564542570a9eb204166005548686600760008a81526020019081526020016000206005015442604051611285959493929190612963565b60405180910390a46005600081548092919060010191905055505050611648565b6001808111156112b257fe5b8160018111156112be57fe5b14156116475760006112e0600080868152602001908152602001600020611a59565b60000151905060008390505b8060076000848152602001908152602001600020600401546007600085815260200190815260200160002060030154031115156115525761132b61208b565b611345600080888152602001908152602001600020611a73565b90506007600084815260200190815260200160002060040154600760008581526020019081526020016000206003015403850391503373ffffffffffffffffffffffffffffffffffffffff166007600085815260200190815260200160002060010160009054906101000a900473ffffffffffffffffffffffffffffffffffffffff1673ffffffffffffffffffffffffffffffffffffffff1660076000868152602001908152602001600020600201547fdb0c486e680ba8026643e6a85f8d157b5e7bcd4b32b54d564542570a9eb2041660055487600760008a815260200190815260200160002060040154600760008b81526020019081526020016000206003015403600760008b81526020019081526020016000206005015442604051611472959493929190612963565b60405180910390a4600560008154809291906001019190505550600760008481526020019081526020016000206000808201600090556001820160006101000a81549073ffffffffffffffffffffffffffffffffffffffff02191690556001820160146101000a81549060ff0219169055600282016000905560038201600090556004820160009055600582016000905560068201600090555050600060038481548110151561151e57fe5b9060005260206000200181905550611546600080888152602001908152602001600020611a59565b600001519250506112ec565b8060076000848152602001908152602001600020600401600082825401925050819055503373ffffffffffffffffffffffffffffffffffffffff166007600084815260200190815260200160002060010160009054906101000a900473ffffffffffffffffffffffffffffffffffffffff1673ffffffffffffffffffffffffffffffffffffffff16867fdb0c486e680ba8026643e6a85f8d157b5e7bcd4b32b54d564542570a9eb204166005548686600760008a8152602001908152602001600020600501544260405161162a959493929190612963565b60405180910390a460056000815480929190600101919050555050505b5b505050565b6008600082815260200190815260200160002060010160009054906101000a900473ffffffffffffffffffffffffffffffffffffffff1673ffffffffffffffffffffffffffffffffffffffff166323b872dd3330856040518463ffffffff167c01000000000000000000000000000000000000000000000000000000000281526004016116dc93929190612775565b602060405180830381600087803b1580156116f657600080fd5b505af115801561170a573d6000803e3d6000fd5b505050506040513d601f19601f8201168201806040525061172e9190810190612318565b5081600260003373ffffffffffffffffffffffffffffffffffffffff1673ffffffffffffffffffffffffffffffffffffffff1681526020019081526020016000206000838152602001908152602001600020600082825401925050819055505050565b7f50494e000000000000000000000000000000000000000000000000000000000084141580156117de5750600a600085815260200190815260200160002060009054906101000a900460ff165b15156117e957600080fd5b600060045490506117f8612021565b610100604051908101604052808381526020013373ffffffffffffffffffffffffffffffffffffffff16815260200184600181111561183357fe5b815260200187815260200186815260200160008152602001858152602001428152509050600460008154809291906001019190505550600060018081111561187757fe5b84600181111561188357fe5b14156118b7576118b1856004546000808b8152602001908152602001600020611a8d9092919063ffffffff16565b50611900565b600060018111156118c457fe5b8460018111156118d057fe5b14156118ff576118fd8584600160008b8152602001908152602001600020611a8d9092919063ffffffff16565b505b5b81600760008581526020019081526020016000206000820151816000015560208201518160010160006101000a81548173ffffffffffffffffffffffffffffffffffffffff021916908373ffffffffffffffffffffffffffffffffffffffff16021790555060408201518160010160146101000a81548160ff0219169083600181111561198957fe5b0217905550606082015181600201556080820151816003015560a0820151816004015560c0820151816005015560e08201518160060155905050600380548091906001016119d791906121a1565b508160000151600383600001518154811015156119f057fe5b906000526020600020018190555050505050505050565b600381815481101515611a1657fe5b906000526020600020016000915090505481565b611a3261208b565b611a518384600201600085815260200190815260200160002054611b5a565b905092915050565b611a6161208b565b611a6c826001611cda565b9050919050565b611a7b61208b565b611a86826001611b5a565b9050919050565b611a9561208b565b600084600101805490501415611aaf57611aae84611d53565b5b83600001600081819054906101000a9004600f0b8092919060010191906101000a8154816fffffffffffffffffffffffffffffffff0219169083600f0b6fffffffffffffffffffffffffffffffff16021790555050836001018054809190600101611b1a91906121cd565b50611b2361208b565b6040805190810160405280848152602001858152509050611b4f85826001886001018054905003611dc4565b809150509392505050565b611b6261208b565b818360010180549050111580611b79575060008211155b15611b9c5760408051908101604052806000815260200160008152509050611cd4565b611ba461208b565b8360010183815481101515611bb557fe5b90600052602060002090600202016040805190810160405290816000820154815260200160018201548152505090508360020160008260000151815260200190815260200160002060009055611c0961208b565b846001016001866001018054905003815481101515611c2457fe5b906000526020600020906002020160408051908101604052908160008201548152602001600182015481525050905084600101805480919060019003611c6a91906121cd565b508460010180549050841015611cce57611c85858286611dc4565b611ccd858660010186815481101515611c9a57fe5b90600052602060002090600202016040805190810160405290816000820154815260200160018201548152505086611e8b565b5b81925050505b92915050565b611ce261208b565b81836001018054905011611d0c576040805190810160405280600081526020016000815250611d4b565b8260010182815481101515611d1d57fe5b9060005260206000209060020201604080519081016040529081600082015481526020016001820154815250505b905092915050565b600081600101805490501415611dc1578060010160408051908101604052806000815260200160008152509080600181540180825580915050906001820390600052602060002090600202016000909192909190915060008201518160000155602082015181600101555050505b50565b6001811480611e05575082600101600282811515611dde57fe5b04815481101515611deb57fe5b906000526020600020906002020160010154826020015111155b15611e1a57611e15838383611fc7565b611e86565b611e6e8384600101600284811515611e2e57fe5b04815481101515611e3b57fe5b90600052602060002090600202016040805190810160405290816000820154815260200160018201548152505083611fc7565b611e858383600284811515611e7f57fe5b04611dc4565b5b505050565b60008360010180549050905060006002830290508082111515611eb857611eb3858585611fc7565b611fc0565b611ec061208b565b8560010182815481101515611ed157fe5b90600052602060002090600202016040805190810160405290816000820154815260200160018201548152505090506001820183118015611f3a575080602001518660010160018401815481101515611f2657fe5b906000526020600020906002020160010154115b15611f86578560010182600101925082815481101515611f5657fe5b90600052602060002090600202016040805190810160405290816000820154815260200160018201548152505090505b84602001518160200151111515611fa757611fa2868686611fc7565b611fbe565b611fb2868286611fc7565b611fbd868684611e8b565b5b505b5050505050565b818360010182815481101515611fd957fe5b90600052602060002090600202016000820151816000015560208201518160010155905050808360020160008460000151815260200190815260200160002081905550505050565b6101006040519081016040528060008152602001600073ffffffffffffffffffffffffffffffffffffffff1681526020016000600181111561205f57fe5b815260200160008019168152602001600081526020016000815260200160008152602001600081525090565b604080519081016040528060008152602001600081525090565b6101006040519081016040528060008152602001600073ffffffffffffffffffffffffffffffffffffffff168152602001600060018111156120e357fe5b815260200160008019168152602001600081526020016000815260200160008152602001600081525090565b604080519081016040528060008019168152602001600073ffffffffffffffffffffffffffffffffffffffff1681525090565b8154818355818111156121695781836000526020600020918201910161216891906121ff565b5b505050565b604080519081016040528060008019168152602001600073ffffffffffffffffffffffffffffffffffffffff1681525090565b8154818355818111156121c8578183600052602060002091820191016121c79190612224565b5b505050565b8154818355818111156121fa576002028160020283600052602060002091820191016121f99190612249565b5b505050565b61222191905b8082111561221d576000816000905550600101612205565b5090565b90565b61224691905b8082111561224257600081600090555060010161222a565b5090565b90565b61227591905b808211156122715760008082016000905560018201600090555060020161224f565b5090565b90565b60006122848235612a75565b905092915050565b60006122988251612a87565b905092915050565b60006122ac8235612a93565b905092915050565b60006122c08235612a9d565b905092915050565b60006122d48235612ab6565b905092915050565b600080604083850312156122ef57600080fd5b60006122fd85828601612278565b925050602061230e858286016122a0565b9150509250929050565b60006020828403121561232a57600080fd5b60006123388482850161228c565b91505092915050565b60006020828403121561235357600080fd5b6000612361848285016122a0565b91505092915050565b6000806040838503121561237d57600080fd5b600061238b858286016122a0565b925050602061239c85828601612278565b9150509250929050565b600080604083850312156123b957600080fd5b60006123c7858286016122a0565b92505060206123d8858286016122b4565b9150509250929050565b6000806000606084860312156123f757600080fd5b6000612405868287016122a0565b9350506020612416868287016122c8565b9250506040612427868287016122b4565b9150509250925092565b6000806000806080858703121561244757600080fd5b6000612455878288016122a0565b9450506020612466878288016122c8565b9350506040612477878288016122c8565b9250506060612488878288016122b4565b91505092959194509250565b6000602082840312156124a657600080fd5b60006124b4848285016122c8565b91505092915050565b600080604083850312156124d057600080fd5b60006124de858286016122c8565b92505060206124ef858286016122a0565b9150509250929050565b60008060006060848603121561250e57600080fd5b600061251c868287016122c8565b935050602061252d868287016122a0565b925050604061253e868287016122b4565b9150509250925092565b61255181612ac0565b82525050565b61256081612a00565b82525050565b61256f81612a00565b82525050565b6000612580826129d0565b808452602084019350612592836129b6565b60005b828110156125c5576125a8868351612686565b6125b1826129e6565b915061010086019550600181019050612595565b50849250505092915050565b60006125dc826129db565b8084526020840193506125ee836129c3565b60005b8281101561262057612604868351612728565b61260d826129f3565b91506040860195506001810190506125f1565b50849250505092915050565b61263581612a12565b82525050565b61264481612a1e565b82525050565b61265381612a1e565b82525050565b61266281612ad2565b82525050565b61267181612ad2565b82525050565b61268081612a3e565b82525050565b6101008201600082015161269d6000850182612757565b5060208201516126b06020850182612557565b5060408201516126c36040850182612659565b5060608201516126d6606085018261263b565b5060808201516126e96080850182612757565b5060a08201516126fc60a0850182612757565b5060c082015161270f60c0850182612757565b5060e082015161272260e0850182612757565b50505050565b60408201600082015161273e600085018261263b565b5060208201516127516020850182612557565b50505050565b61276081612a6b565b82525050565b61276f81612a6b565b82525050565b600060608201905061278a6000830186612548565b6127976020830185612566565b6127a46040830184612766565b949350505050565b60006060820190506127c16000830186612566565b6127ce6020830185612548565b6127db6040830184612766565b949350505050565b60006040820190506127f86000830185612566565b6128056020830184612766565b9392505050565b600060208201905081810360008301526128268184612575565b905092915050565b6000602082019050818103600083015261284881846125d1565b905092915050565b6000602082019050612865600083018461262c565b92915050565b6000602082019050612880600083018461264a565b92915050565b600060408201905061289b600083018561264a565b6128a86020830184612566565b9392505050565b60006020820190506128c46000830184612677565b92915050565b60006020820190506128df6000830184612766565b92915050565b6000610100820190506128fb600083018b612766565b612908602083018a612566565b6129156040830189612668565b612922606083018861264a565b61292f6080830187612766565b61293c60a0830186612766565b61294960c0830185612766565b61295660e0830184612766565b9998505050505050505050565b600060a0820190506129786000830188612766565b6129856020830187612766565b6129926040830186612766565b61299f6060830185612766565b6129ac6080830184612766565b9695505050505050565b6000602082019050919050565b6000602082019050919050565b600081519050919050565b600081519050919050565b6000602082019050919050565b6000602082019050919050565b6000612a0b82612a4b565b9050919050565b60008115159050919050565b6000819050919050565b6000600282101515612a3657fe5b819050919050565b600081600f0b9050919050565b600073ffffffffffffffffffffffffffffffffffffffff82169050919050565b6000819050919050565b6000612a8082612a4b565b9050919050565b60008115159050919050565b6000819050919050565b6000600282101515612aae57600080fd5b819050919050565b6000819050919050565b6000612acb82612ae4565b9050919050565b6000612add82612a28565b9050919050565b6000612aef82612af6565b9050919050565b6000612b0182612a4b565b905091905056fea265627a7a72305820d4c98dd91a7687ca4eaade145019cee5f763ff5165ca61c0a70beafd3c9113f46c6578706572696d656e74616cf50037",
			"opcodes": "PUSH1 0x80 PUSH1 0x40 MSTORE CALLVALUE DUP1 ISZERO PUSH2 0x10 JUMPI PUSH1 0x0 DUP1 REVERT JUMPDEST POP PUSH2 0x2B42 DUP1 PUSH2 0x20 PUSH1 0x0 CODECOPY PUSH1 0x0 RETURN INVALID PUSH1 0x80 PUSH1 0x40 MSTORE CALLVALUE DUP1 ISZERO PUSH2 0x10 JUMPI PUSH1 0x0 DUP1 REVERT JUMPDEST POP PUSH1 0x4 CALLDATASIZE LT PUSH2 0x149 JUMPI PUSH1 0x0 CALLDATALOAD PUSH29 0x100000000000000000000000000000000000000000000000000000000 SWAP1 DIV DUP1 PUSH4 0x9776AACF GT PUSH2 0xCA JUMPI DUP1 PUSH4 0xAA6CA808 GT PUSH2 0x8E JUMPI DUP1 PUSH4 0xAA6CA808 EQ PUSH2 0x3B6 JUMPI DUP1 PUSH4 0xBE2A296B EQ PUSH2 0x3D4 JUMPI DUP1 PUSH4 0xC9630CB0 EQ PUSH2 0x3F0 JUMPI DUP1 PUSH4 0xDA28BD5C EQ PUSH2 0x40C JUMPI DUP1 PUSH4 0xEB5945E4 EQ PUSH2 0x428 JUMPI PUSH2 0x149 JUMP JUMPDEST DUP1 PUSH4 0x9776AACF EQ PUSH2 0x2E7 JUMPI DUP1 PUSH4 0x9EAD7222 EQ PUSH2 0x303 JUMPI DUP1 PUSH4 0xA56CCE46 EQ PUSH2 0x333 JUMPI DUP1 PUSH4 0xA85C38EF EQ PUSH2 0x363 JUMPI DUP1 PUSH4 0xA8D2021A EQ PUSH2 0x39A JUMPI PUSH2 0x149 JUMP JUMPDEST DUP1 PUSH4 0x5F697363 GT PUSH2 0x111 JUMPI DUP1 PUSH4 0x5F697363 EQ PUSH2 0x21A JUMPI DUP1 PUSH4 0x653A839E EQ PUSH2 0x238 JUMPI DUP1 PUSH4 0x72CE957E EQ PUSH2 0x256 JUMPI DUP1 PUSH4 0x8AC39371 EQ PUSH2 0x286 JUMPI DUP1 PUSH4 0x904194A3 EQ PUSH2 0x2B6 JUMPI PUSH2 0x149 JUMP JUMPDEST DUP1 PUSH4 0x1238FCF0 EQ PUSH2 0x14E JUMPI DUP1 PUSH4 0x17AA080C EQ PUSH2 0x17E JUMPI DUP1 PUSH4 0x2B0B086E EQ PUSH2 0x1AE JUMPI DUP1 PUSH4 0x46E9658B EQ PUSH2 0x1CC JUMPI DUP1 PUSH4 0x5E74E17A EQ PUSH2 0x1FC JUMPI JUMPDEST PUSH1 0x0 DUP1 REVERT JUMPDEST PUSH2 0x168 PUSH1 0x4 DUP1 CALLDATASIZE SUB PUSH2 0x163 SWAP2 SWAP1 DUP2 ADD SWAP1 PUSH2 0x2341 JUMP JUMPDEST PUSH2 0x458 JUMP JUMPDEST PUSH1 0x40 MLOAD PUSH2 0x175 SWAP2 SWAP1 PUSH2 0x28AF JUMP JUMPDEST PUSH1 0x40 MLOAD DUP1 SWAP2 SUB SWAP1 RETURN JUMPDEST PUSH2 0x198 PUSH1 0x4 DUP1 CALLDATASIZE SUB PUSH2 0x193 SWAP2 SWAP1 DUP2 ADD SWAP1 PUSH2 0x24F9 JUMP JUMPDEST PUSH2 0x483 JUMP JUMPDEST PUSH1 0x40 MLOAD PUSH2 0x1A5 SWAP2 SWAP1 PUSH2 0x2850 JUMP JUMPDEST PUSH1 0x40 MLOAD DUP1 SWAP2 SUB SWAP1 RETURN JUMPDEST PUSH2 0x1B6 PUSH2 0x727 JUMP JUMPDEST PUSH1 0x40 MLOAD PUSH2 0x1C3 SWAP2 SWAP1 PUSH2 0x28CA JUMP JUMPDEST PUSH1 0x40 MLOAD DUP1 SWAP2 SUB SWAP1 RETURN JUMPDEST PUSH2 0x1E6 PUSH1 0x4 DUP1 CALLDATASIZE SUB PUSH2 0x1E1 SWAP2 SWAP1 DUP2 ADD SWAP1 PUSH2 0x23A6 JUMP JUMPDEST PUSH2 0x731 JUMP JUMPDEST PUSH1 0x40 MLOAD PUSH2 0x1F3 SWAP2 SWAP1 PUSH2 0x280C JUMP JUMPDEST PUSH1 0x40 MLOAD DUP1 SWAP2 SUB SWAP1 RETURN JUMPDEST PUSH2 0x204 PUSH2 0x8E9 JUMP JUMPDEST PUSH1 0x40 MLOAD PUSH2 0x211 SWAP2 SWAP1 PUSH2 0x28CA JUMP JUMPDEST PUSH1 0x40 MLOAD DUP1 SWAP2 SUB SWAP1 RETURN JUMPDEST PUSH2 0x222 PUSH2 0x8EF JUMP JUMPDEST PUSH1 0x40 MLOAD PUSH2 0x22F SWAP2 SWAP1 PUSH2 0x28CA JUMP JUMPDEST PUSH1 0x40 MLOAD DUP1 SWAP2 SUB SWAP1 RETURN JUMPDEST PUSH2 0x240 PUSH2 0x8F5 JUMP JUMPDEST PUSH1 0x40 MLOAD PUSH2 0x24D SWAP2 SWAP1 PUSH2 0x28CA JUMP JUMPDEST PUSH1 0x40 MLOAD DUP1 SWAP2 SUB SWAP1 RETURN JUMPDEST PUSH2 0x270 PUSH1 0x4 DUP1 CALLDATASIZE SUB PUSH2 0x26B SWAP2 SWAP1 DUP2 ADD SWAP1 PUSH2 0x22DC JUMP JUMPDEST PUSH2 0x8FB JUMP JUMPDEST PUSH1 0x40 MLOAD PUSH2 0x27D SWAP2 SWAP1 PUSH2 0x28CA JUMP JUMPDEST PUSH1 0x40 MLOAD DUP1 SWAP2 SUB SWAP1 RETURN JUMPDEST PUSH2 0x2A0 PUSH1 0x4 DUP1 CALLDATASIZE SUB PUSH2 0x29B SWAP2 SWAP1 DUP2 ADD SWAP1 PUSH2 0x2341 JUMP JUMPDEST PUSH2 0x920 JUMP JUMPDEST PUSH1 0x40 MLOAD PUSH2 0x2AD SWAP2 SWAP1 PUSH2 0x2850 JUMP JUMPDEST PUSH1 0x40 MLOAD DUP1 SWAP2 SUB SWAP1 RETURN JUMPDEST PUSH2 0x2D0 PUSH1 0x4 DUP1 CALLDATASIZE SUB PUSH2 0x2CB SWAP2 SWAP1 DUP2 ADD SWAP1 PUSH2 0x2341 JUMP JUMPDEST PUSH2 0x940 JUMP JUMPDEST PUSH1 0x40 MLOAD PUSH2 0x2DE SWAP3 SWAP2 SWAP1 PUSH2 0x2886 JUMP JUMPDEST PUSH1 0x40 MLOAD DUP1 SWAP2 SUB SWAP1 RETURN JUMPDEST PUSH2 0x301 PUSH1 0x4 DUP1 CALLDATASIZE SUB PUSH2 0x2FC SWAP2 SWAP1 DUP2 ADD SWAP1 PUSH2 0x236A JUMP JUMPDEST PUSH2 0x984 JUMP JUMPDEST STOP JUMPDEST PUSH2 0x31D PUSH1 0x4 DUP1 CALLDATASIZE SUB PUSH2 0x318 SWAP2 SWAP1 DUP2 ADD SWAP1 PUSH2 0x2494 JUMP JUMPDEST PUSH2 0xA93 JUMP JUMPDEST PUSH1 0x40 MLOAD PUSH2 0x32A SWAP2 SWAP1 PUSH2 0x286B JUMP JUMPDEST PUSH1 0x40 MLOAD DUP1 SWAP2 SUB SWAP1 RETURN JUMPDEST PUSH2 0x34D PUSH1 0x4 DUP1 CALLDATASIZE SUB PUSH2 0x348 SWAP2 SWAP1 DUP2 ADD SWAP1 PUSH2 0x2341 JUMP JUMPDEST PUSH2 0xAB6 JUMP JUMPDEST PUSH1 0x40 MLOAD PUSH2 0x35A SWAP2 SWAP1 PUSH2 0x28AF JUMP JUMPDEST PUSH1 0x40 MLOAD DUP1 SWAP2 SUB SWAP1 RETURN JUMPDEST PUSH2 0x37D PUSH1 0x4 DUP1 CALLDATASIZE SUB PUSH2 0x378 SWAP2 SWAP1 DUP2 ADD SWAP1 PUSH2 0x2494 JUMP JUMPDEST PUSH2 0xAE1 JUMP JUMPDEST PUSH1 0x40 MLOAD PUSH2 0x391 SWAP9 SWAP8 SWAP7 SWAP6 SWAP5 SWAP4 SWAP3 SWAP2 SWAP1 PUSH2 0x28E5 JUMP JUMPDEST PUSH1 0x40 MLOAD DUP1 SWAP2 SUB SWAP1 RETURN JUMPDEST PUSH2 0x3B4 PUSH1 0x4 DUP1 CALLDATASIZE SUB PUSH2 0x3AF SWAP2 SWAP1 DUP2 ADD SWAP1 PUSH2 0x24BD JUMP JUMPDEST PUSH2 0xB56 JUMP JUMPDEST STOP JUMPDEST PUSH2 0x3BE PUSH2 0xDD9 JUMP JUMPDEST PUSH1 0x40 MLOAD PUSH2 0x3CB SWAP2 SWAP1 PUSH2 0x282E JUMP JUMPDEST PUSH1 0x40 MLOAD DUP1 SWAP2 SUB SWAP1 RETURN JUMPDEST PUSH2 0x3EE PUSH1 0x4 DUP1 CALLDATASIZE SUB PUSH2 0x3E9 SWAP2 SWAP1 DUP2 ADD SWAP1 PUSH2 0x23E2 JUMP JUMPDEST PUSH2 0xEFA JUMP JUMPDEST STOP JUMPDEST PUSH2 0x40A PUSH1 0x4 DUP1 CALLDATASIZE SUB PUSH2 0x405 SWAP2 SWAP1 DUP2 ADD SWAP1 PUSH2 0x24BD JUMP JUMPDEST PUSH2 0x164D JUMP JUMPDEST STOP JUMPDEST PUSH2 0x426 PUSH1 0x4 DUP1 CALLDATASIZE SUB PUSH2 0x421 SWAP2 SWAP1 DUP2 ADD SWAP1 PUSH2 0x2431 JUMP JUMPDEST PUSH2 0x1791 JUMP JUMPDEST STOP JUMPDEST PUSH2 0x442 PUSH1 0x4 DUP1 CALLDATASIZE SUB PUSH2 0x43D SWAP2 SWAP1 DUP2 ADD SWAP1 PUSH2 0x2494 JUMP JUMPDEST PUSH2 0x1A07 JUMP JUMPDEST PUSH1 0x40 MLOAD PUSH2 0x44F SWAP2 SWAP1 PUSH2 0x28CA JUMP JUMPDEST PUSH1 0x40 MLOAD DUP1 SWAP2 SUB SWAP1 RETURN JUMPDEST PUSH1 0x1 PUSH1 0x20 MSTORE DUP1 PUSH1 0x0 MSTORE PUSH1 0x40 PUSH1 0x0 KECCAK256 PUSH1 0x0 SWAP2 POP SWAP1 POP DUP1 PUSH1 0x0 ADD PUSH1 0x0 SWAP1 SLOAD SWAP1 PUSH2 0x100 EXP SWAP1 DIV PUSH1 0xF SIGNEXTEND SWAP1 POP DUP2 JUMP JUMPDEST PUSH1 0x0 PUSH2 0x48D PUSH2 0x2021 JUMP JUMPDEST PUSH1 0x7 PUSH1 0x0 DUP7 DUP2 MSTORE PUSH1 0x20 ADD SWAP1 DUP2 MSTORE PUSH1 0x20 ADD PUSH1 0x0 KECCAK256 PUSH2 0x100 PUSH1 0x40 MLOAD SWAP1 DUP2 ADD PUSH1 0x40 MSTORE SWAP1 DUP2 PUSH1 0x0 DUP3 ADD SLOAD DUP2 MSTORE PUSH1 0x20 ADD PUSH1 0x1 DUP3 ADD PUSH1 0x0 SWAP1 SLOAD SWAP1 PUSH2 0x100 EXP SWAP1 DIV PUSH20 0xFFFFFFFFFFFFFFFFFFFFFFFFFFFFFFFFFFFFFFFF AND PUSH20 0xFFFFFFFFFFFFFFFFFFFFFFFFFFFFFFFFFFFFFFFF AND PUSH20 0xFFFFFFFFFFFFFFFFFFFFFFFFFFFFFFFFFFFFFFFF AND DUP2 MSTORE PUSH1 0x20 ADD PUSH1 0x1 DUP3 ADD PUSH1 0x14 SWAP1 SLOAD SWAP1 PUSH2 0x100 EXP SWAP1 DIV PUSH1 0xFF AND PUSH1 0x1 DUP2 GT ISZERO PUSH2 0x52B JUMPI INVALID JUMPDEST PUSH1 0x1 DUP2 GT ISZERO PUSH2 0x536 JUMPI INVALID JUMPDEST DUP2 MSTORE PUSH1 0x20 ADD PUSH1 0x2 DUP3 ADD SLOAD DUP2 MSTORE PUSH1 0x20 ADD PUSH1 0x3 DUP3 ADD SLOAD DUP2 MSTORE PUSH1 0x20 ADD PUSH1 0x4 DUP3 ADD SLOAD DUP2 MSTORE PUSH1 0x20 ADD PUSH1 0x5 DUP3 ADD SLOAD DUP2 MSTORE PUSH1 0x20 ADD PUSH1 0x6 DUP3 ADD SLOAD DUP2 MSTORE POP POP SWAP1 POP DUP1 PUSH1 0x20 ADD MLOAD PUSH20 0xFFFFFFFFFFFFFFFFFFFFFFFFFFFFFFFFFFFFFFFF AND CALLER PUSH20 0xFFFFFFFFFFFFFFFFFFFFFFFFFFFFFFFFFFFFFFFF AND EQ ISZERO PUSH2 0x71A JUMPI PUSH2 0x5AE PUSH2 0x208B JUMP JUMPDEST PUSH1 0x0 PUSH1 0x1 DUP2 GT ISZERO PUSH2 0x5BB JUMPI INVALID JUMPDEST DUP3 PUSH1 0x40 ADD MLOAD PUSH1 0x1 DUP2 GT ISZERO PUSH2 0x5CB JUMPI INVALID JUMPDEST EQ ISZERO PUSH2 0x5FD JUMPI PUSH2 0x5F6 DUP7 PUSH1 0x1 PUSH1 0x0 DUP9 DUP2 MSTORE PUSH1 0x20 ADD SWAP1 DUP2 MSTORE PUSH1 0x20 ADD PUSH1 0x0 KECCAK256 PUSH2 0x1A2A SWAP1 SWAP2 SWAP1 PUSH4 0xFFFFFFFF AND JUMP JUMPDEST SWAP1 POP PUSH2 0x647 JUMP JUMPDEST PUSH1 0x1 DUP1 DUP2 GT ISZERO PUSH2 0x609 JUMPI INVALID JUMPDEST DUP3 PUSH1 0x40 ADD MLOAD PUSH1 0x1 DUP2 GT ISZERO PUSH2 0x619 JUMPI INVALID JUMPDEST EQ ISZERO PUSH2 0x646 JUMPI PUSH2 0x643 DUP7 PUSH1 0x0 DUP1 DUP9 DUP2 MSTORE PUSH1 0x20 ADD SWAP1 DUP2 MSTORE PUSH1 0x20 ADD PUSH1 0x0 KECCAK256 PUSH2 0x1A2A SWAP1 SWAP2 SWAP1 PUSH4 0xFFFFFFFF AND JUMP JUMPDEST SWAP1 POP JUMPDEST JUMPDEST PUSH1 0x0 DUP2 PUSH1 0x0 ADD MLOAD EQ DUP1 ISZERO PUSH2 0x65F JUMPI POP PUSH1 0x0 DUP2 PUSH1 0x20 ADD MLOAD EQ JUMPDEST ISZERO PUSH2 0x66F JUMPI PUSH1 0x0 SWAP3 POP POP POP PUSH2 0x720 JUMP JUMPDEST PUSH1 0x7 PUSH1 0x0 DUP8 DUP2 MSTORE PUSH1 0x20 ADD SWAP1 DUP2 MSTORE PUSH1 0x20 ADD PUSH1 0x0 KECCAK256 PUSH1 0x0 DUP1 DUP3 ADD PUSH1 0x0 SWAP1 SSTORE PUSH1 0x1 DUP3 ADD PUSH1 0x0 PUSH2 0x100 EXP DUP2 SLOAD SWAP1 PUSH20 0xFFFFFFFFFFFFFFFFFFFFFFFFFFFFFFFFFFFFFFFF MUL NOT AND SWAP1 SSTORE PUSH1 0x1 DUP3 ADD PUSH1 0x14 PUSH2 0x100 EXP DUP2 SLOAD SWAP1 PUSH1 0xFF MUL NOT AND SWAP1 SSTORE PUSH1 0x2 DUP3 ADD PUSH1 0x0 SWAP1 SSTORE PUSH1 0x3 DUP3 ADD PUSH1 0x0 SWAP1 SSTORE PUSH1 0x4 DUP3 ADD PUSH1 0x0 SWAP1 SSTORE PUSH1 0x5 DUP3 ADD PUSH1 0x0 SWAP1 SSTORE PUSH1 0x6 DUP3 ADD PUSH1 0x0 SWAP1 SSTORE POP POP PUSH1 0x0 PUSH1 0x3 DUP8 DUP2 SLOAD DUP2 LT ISZERO ISZERO PUSH2 0x701 JUMPI INVALID JUMPDEST SWAP1 PUSH1 0x0 MSTORE PUSH1 0x20 PUSH1 0x0 KECCAK256 ADD DUP2 SWAP1 SSTORE POP PUSH1 0x1 SWAP3 POP POP POP PUSH2 0x720 JUMP JUMPDEST PUSH1 0x0 SWAP2 POP POP JUMPDEST SWAP4 SWAP3 POP POP POP JUMP JUMPDEST PUSH1 0x0 PUSH1 0x4 SLOAD SWAP1 POP SWAP1 JUMP JUMPDEST PUSH1 0x60 PUSH1 0x0 DUP1 PUSH1 0x60 PUSH1 0x3 DUP1 SLOAD SWAP1 POP PUSH1 0x40 MLOAD SWAP1 DUP1 DUP3 MSTORE DUP1 PUSH1 0x20 MUL PUSH1 0x20 ADD DUP3 ADD PUSH1 0x40 MSTORE DUP1 ISZERO PUSH2 0x777 JUMPI DUP2 PUSH1 0x20 ADD JUMPDEST PUSH2 0x764 PUSH2 0x20A5 JUMP JUMPDEST DUP2 MSTORE PUSH1 0x20 ADD SWAP1 PUSH1 0x1 SWAP1 SUB SWAP1 DUP2 PUSH2 0x75C JUMPI SWAP1 POP JUMPDEST POP SWAP1 POP PUSH1 0x0 SWAP3 POP JUMPDEST PUSH1 0x3 DUP1 SLOAD SWAP1 POP DUP4 LT ISZERO PUSH2 0x8E0 JUMPI PUSH1 0x0 PUSH1 0x3 DUP5 DUP2 SLOAD DUP2 LT ISZERO ISZERO PUSH2 0x79D JUMPI INVALID JUMPDEST SWAP1 PUSH1 0x0 MSTORE PUSH1 0x20 PUSH1 0x0 KECCAK256 ADD SLOAD EQ ISZERO ISZERO PUSH2 0x8CB JUMPI PUSH1 0x7 PUSH1 0x0 PUSH1 0x3 DUP6 DUP2 SLOAD DUP2 LT ISZERO ISZERO PUSH2 0x7C2 JUMPI INVALID JUMPDEST SWAP1 PUSH1 0x0 MSTORE PUSH1 0x20 PUSH1 0x0 KECCAK256 ADD SLOAD DUP2 MSTORE PUSH1 0x20 ADD SWAP1 DUP2 MSTORE PUSH1 0x20 ADD PUSH1 0x0 KECCAK256 PUSH2 0x100 PUSH1 0x40 MLOAD SWAP1 DUP2 ADD PUSH1 0x40 MSTORE SWAP1 DUP2 PUSH1 0x0 DUP3 ADD SLOAD DUP2 MSTORE PUSH1 0x20 ADD PUSH1 0x1 DUP3 ADD PUSH1 0x0 SWAP1 SLOAD SWAP1 PUSH2 0x100 EXP SWAP1 DIV PUSH20 0xFFFFFFFFFFFFFFFFFFFFFFFFFFFFFFFFFFFFFFFF AND PUSH20 0xFFFFFFFFFFFFFFFFFFFFFFFFFFFFFFFFFFFFFFFF AND PUSH20 0xFFFFFFFFFFFFFFFFFFFFFFFFFFFFFFFFFFFFFFFF AND DUP2 MSTORE PUSH1 0x20 ADD PUSH1 0x1 DUP3 ADD PUSH1 0x14 SWAP1 SLOAD SWAP1 PUSH2 0x100 EXP SWAP1 DIV PUSH1 0xFF AND PUSH1 0x1 DUP2 GT ISZERO PUSH2 0x866 JUMPI INVALID JUMPDEST PUSH1 0x1 DUP2 GT ISZERO PUSH2 0x871 JUMPI INVALID JUMPDEST DUP2 MSTORE PUSH1 0x20 ADD PUSH1 0x2 DUP3 ADD SLOAD DUP2 MSTORE PUSH1 0x20 ADD PUSH1 0x3 DUP3 ADD SLOAD DUP2 MSTORE PUSH1 0x20 ADD PUSH1 0x4 DUP3 ADD SLOAD DUP2 MSTORE PUSH1 0x20 ADD PUSH1 0x5 DUP3 ADD SLOAD DUP2 MSTORE PUSH1 0x20 ADD PUSH1 0x6 DUP3 ADD SLOAD DUP2 MSTORE POP POP DUP2 DUP4 DUP2 MLOAD DUP2 LT ISZERO ISZERO PUSH2 0x8B5 JUMPI INVALID JUMPDEST SWAP1 PUSH1 0x20 ADD SWAP1 PUSH1 0x20 MUL ADD DUP2 SWAP1 MSTORE POP DUP2 DUP1 PUSH1 0x1 ADD SWAP3 POP POP JUMPDEST DUP3 DUP1 PUSH1 0x1 ADD SWAP4 POP POP DUP3 DUP1 PUSH1 0x1 ADD SWAP4 POP POP PUSH2 0x77F JUMP JUMPDEST POP POP POP SWAP3 SWAP2 POP POP JUMP JUMPDEST PUSH1 0x4 SLOAD DUP2 JUMP JUMPDEST PUSH1 0x5 SLOAD DUP2 JUMP JUMPDEST PUSH1 0x6 SLOAD DUP2 JUMP JUMPDEST PUSH1 0x2 PUSH1 0x20 MSTORE DUP2 PUSH1 0x0 MSTORE PUSH1 0x40 PUSH1 0x0 KECCAK256 PUSH1 0x20 MSTORE DUP1 PUSH1 0x0 MSTORE PUSH1 0x40 PUSH1 0x0 KECCAK256 PUSH1 0x0 SWAP2 POP SWAP2 POP POP SLOAD DUP2 JUMP JUMPDEST PUSH1 0xA PUSH1 0x20 MSTORE DUP1 PUSH1 0x0 MSTORE PUSH1 0x40 PUSH1 0x0 KECCAK256 PUSH1 0x0 SWAP2 POP SLOAD SWAP1 PUSH2 0x100 EXP SWAP1 DIV PUSH1 0xFF AND DUP2 JUMP JUMPDEST PUSH1 0x8 PUSH1 0x20 MSTORE DUP1 PUSH1 0x0 MSTORE PUSH1 0x40 PUSH1 0x0 KECCAK256 PUSH1 0x0 SWAP2 POP SWAP1 POP DUP1 PUSH1 0x0 ADD SLOAD SWAP1 DUP1 PUSH1 0x1 ADD PUSH1 0x0 SWAP1 SLOAD SWAP1 PUSH2 0x100 EXP SWAP1 DIV PUSH20 0xFFFFFFFFFFFFFFFFFFFFFFFFFFFFFFFFFFFFFFFF AND SWAP1 POP DUP3 JUMP JUMPDEST PUSH2 0x98C PUSH2 0x210F JUMP JUMPDEST PUSH1 0x40 DUP1 MLOAD SWAP1 DUP2 ADD PUSH1 0x40 MSTORE DUP1 DUP5 DUP2 MSTORE PUSH1 0x20 ADD DUP4 PUSH20 0xFFFFFFFFFFFFFFFFFFFFFFFFFFFFFFFFFFFFFFFF AND DUP2 MSTORE POP SWAP1 POP DUP1 PUSH1 0x8 PUSH1 0x0 DUP6 DUP2 MSTORE PUSH1 0x20 ADD SWAP1 DUP2 MSTORE PUSH1 0x20 ADD PUSH1 0x0 KECCAK256 PUSH1 0x0 DUP3 ADD MLOAD DUP2 PUSH1 0x0 ADD SSTORE PUSH1 0x20 DUP3 ADD MLOAD DUP2 PUSH1 0x1 ADD PUSH1 0x0 PUSH2 0x100 EXP DUP2 SLOAD DUP2 PUSH20 0xFFFFFFFFFFFFFFFFFFFFFFFFFFFFFFFFFFFFFFFF MUL NOT AND SWAP1 DUP4 PUSH20 0xFFFFFFFFFFFFFFFFFFFFFFFFFFFFFFFFFFFFFFFF AND MUL OR SWAP1 SSTORE POP SWAP1 POP POP PUSH1 0x9 DUP1 SLOAD DUP1 SWAP2 SWAP1 PUSH1 0x1 ADD PUSH2 0xA35 SWAP2 SWAP1 PUSH2 0x2142 JUMP JUMPDEST POP PUSH1 0x9 DUP4 SWAP1 DUP1 PUSH1 0x1 DUP2 SLOAD ADD DUP1 DUP3 SSTORE DUP1 SWAP2 POP POP SWAP1 PUSH1 0x1 DUP3 SUB SWAP1 PUSH1 0x0 MSTORE PUSH1 0x20 PUSH1 0x0 KECCAK256 ADD PUSH1 0x0 SWAP1 SWAP2 SWAP3 SWAP1 SWAP2 SWAP1 SWAP2 POP SSTORE POP PUSH1 0x1 PUSH1 0xA PUSH1 0x0 DUP6 DUP2 MSTORE PUSH1 0x20 ADD SWAP1 DUP2 MSTORE PUSH1 0x20 ADD PUSH1 0x0 KECCAK256 PUSH1 0x0 PUSH2 0x100 EXP DUP2 SLOAD DUP2 PUSH1 0xFF MUL NOT AND SWAP1 DUP4 ISZERO ISZERO MUL OR SWAP1 SSTORE POP POP POP POP JUMP JUMPDEST PUSH1 0x9 DUP2 DUP2 SLOAD DUP2 LT ISZERO ISZERO PUSH2 0xAA2 JUMPI INVALID JUMPDEST SWAP1 PUSH1 0x0 MSTORE PUSH1 0x20 PUSH1 0x0 KECCAK256 ADD PUSH1 0x0 SWAP2 POP SWAP1 POP SLOAD DUP2 JUMP JUMPDEST PUSH1 0x0 PUSH1 0x20 MSTORE DUP1 PUSH1 0x0 MSTORE PUSH1 0x40 PUSH1 0x0 KECCAK256 PUSH1 0x0 SWAP2 POP SWAP1 POP DUP1 PUSH1 0x0 ADD PUSH1 0x0 SWAP1 SLOAD SWAP1 PUSH2 0x100 EXP SWAP1 DIV PUSH1 0xF SIGNEXTEND SWAP1 POP DUP2 JUMP JUMPDEST PUSH1 0x7 PUSH1 0x20 MSTORE DUP1 PUSH1 0x0 MSTORE PUSH1 0x40 PUSH1 0x0 KECCAK256 PUSH1 0x0 SWAP2 POP SWAP1 POP DUP1 PUSH1 0x0 ADD SLOAD SWAP1 DUP1 PUSH1 0x1 ADD PUSH1 0x0 SWAP1 SLOAD SWAP1 PUSH2 0x100 EXP SWAP1 DIV PUSH20 0xFFFFFFFFFFFFFFFFFFFFFFFFFFFFFFFFFFFFFFFF AND SWAP1 DUP1 PUSH1 0x1 ADD PUSH1 0x14 SWAP1 SLOAD SWAP1 PUSH2 0x100 EXP SWAP1 DIV PUSH1 0xFF AND SWAP1 DUP1 PUSH1 0x2 ADD SLOAD SWAP1 DUP1 PUSH1 0x3 ADD SLOAD SWAP1 DUP1 PUSH1 0x4 ADD SLOAD SWAP1 DUP1 PUSH1 0x5 ADD SLOAD SWAP1 DUP1 PUSH1 0x6 ADD SLOAD SWAP1 POP DUP9 JUMP JUMPDEST DUP2 PUSH1 0x2 PUSH1 0x0 CALLER PUSH20 0xFFFFFFFFFFFFFFFFFFFFFFFFFFFFFFFFFFFFFFFF AND PUSH20 0xFFFFFFFFFFFFFFFFFFFFFFFFFFFFFFFFFFFFFFFF AND DUP2 MSTORE PUSH1 0x20 ADD SWAP1 DUP2 MSTORE PUSH1 0x20 ADD PUSH1 0x0 KECCAK256 PUSH1 0x0 DUP4 DUP2 MSTORE PUSH1 0x20 ADD SWAP1 DUP2 MSTORE PUSH1 0x20 ADD PUSH1 0x0 KECCAK256 SLOAD LT ISZERO ISZERO PUSH2 0xDD5 JUMPI PUSH1 0x8 PUSH1 0x0 DUP3 DUP2 MSTORE PUSH1 0x20 ADD SWAP1 DUP2 MSTORE PUSH1 0x20 ADD PUSH1 0x0 KECCAK256 PUSH1 0x1 ADD PUSH1 0x0 SWAP1 SLOAD SWAP1 PUSH2 0x100 EXP SWAP1 DIV PUSH20 0xFFFFFFFFFFFFFFFFFFFFFFFFFFFFFFFFFFFFFFFF AND PUSH20 0xFFFFFFFFFFFFFFFFFFFFFFFFFFFFFFFFFFFFFFFF AND PUSH4 0x95EA7B3 ADDRESS DUP5 PUSH1 0x40 MLOAD DUP4 PUSH4 0xFFFFFFFF AND PUSH29 0x100000000000000000000000000000000000000000000000000000000 MUL DUP2 MSTORE PUSH1 0x4 ADD PUSH2 0xC3C SWAP3 SWAP2 SWAP1 PUSH2 0x27E3 JUMP JUMPDEST PUSH1 0x20 PUSH1 0x40 MLOAD DUP1 DUP4 SUB DUP2 PUSH1 0x0 DUP8 DUP1 EXTCODESIZE ISZERO DUP1 ISZERO PUSH2 0xC56 JUMPI PUSH1 0x0 DUP1 REVERT JUMPDEST POP GAS CALL ISZERO DUP1 ISZERO PUSH2 0xC6A JUMPI RETURNDATASIZE PUSH1 0x0 DUP1 RETURNDATACOPY RETURNDATASIZE PUSH1 0x0 REVERT JUMPDEST POP POP POP POP PUSH1 0x40 MLOAD RETURNDATASIZE PUSH1 0x1F NOT PUSH1 0x1F DUP3 ADD AND DUP3 ADD DUP1 PUSH1 0x40 MSTORE POP PUSH2 0xC8E SWAP2 SWAP1 DUP2 ADD SWAP1 PUSH2 0x2318 JUMP JUMPDEST ISZERO PUSH2 0xD76 JUMPI PUSH1 0x8 PUSH1 0x0 DUP3 DUP2 MSTORE PUSH1 0x20 ADD SWAP1 DUP2 MSTORE PUSH1 0x20 ADD PUSH1 0x0 KECCAK256 PUSH1 0x1 ADD PUSH1 0x0 SWAP1 SLOAD SWAP1 PUSH2 0x100 EXP SWAP1 DIV PUSH20 0xFFFFFFFFFFFFFFFFFFFFFFFFFFFFFFFFFFFFFFFF AND PUSH20 0xFFFFFFFFFFFFFFFFFFFFFFFFFFFFFFFFFFFFFFFF AND PUSH4 0x23B872DD ADDRESS CALLER DUP6 PUSH1 0x40 MLOAD DUP5 PUSH4 0xFFFFFFFF AND PUSH29 0x100000000000000000000000000000000000000000000000000000000 MUL DUP2 MSTORE PUSH1 0x4 ADD PUSH2 0xD22 SWAP4 SWAP3 SWAP2 SWAP1 PUSH2 0x27AC JUMP JUMPDEST PUSH1 0x20 PUSH1 0x40 MLOAD DUP1 DUP4 SUB DUP2 PUSH1 0x0 DUP8 DUP1 EXTCODESIZE ISZERO DUP1 ISZERO PUSH2 0xD3C JUMPI PUSH1 0x0 DUP1 REVERT JUMPDEST POP GAS CALL ISZERO DUP1 ISZERO PUSH2 0xD50 JUMPI RETURNDATASIZE PUSH1 0x0 DUP1 RETURNDATACOPY RETURNDATASIZE PUSH1 0x0 REVERT JUMPDEST POP POP POP POP PUSH1 0x40 MLOAD RETURNDATASIZE PUSH1 0x1F NOT PUSH1 0x1F DUP3 ADD AND DUP3 ADD DUP1 PUSH1 0x40 MSTORE POP PUSH2 0xD74 SWAP2 SWAP1 DUP2 ADD SWAP1 PUSH2 0x2318 JUMP JUMPDEST POP JUMPDEST DUP2 PUSH1 0x2 PUSH1 0x0 CALLER PUSH20 0xFFFFFFFFFFFFFFFFFFFFFFFFFFFFFFFFFFFFFFFF AND PUSH20 0xFFFFFFFFFFFFFFFFFFFFFFFFFFFFFFFFFFFFFFFF AND DUP2 MSTORE PUSH1 0x20 ADD SWAP1 DUP2 MSTORE PUSH1 0x20 ADD PUSH1 0x0 KECCAK256 PUSH1 0x0 DUP4 DUP2 MSTORE PUSH1 0x20 ADD SWAP1 DUP2 MSTORE PUSH1 0x20 ADD PUSH1 0x0 KECCAK256 PUSH1 0x0 DUP3 DUP3 SLOAD SUB SWAP3 POP POP DUP2 SWAP1 SSTORE POP JUMPDEST POP POP JUMP JUMPDEST PUSH1 0x60 PUSH1 0x0 PUSH1 0x60 PUSH1 0x9 DUP1 SLOAD SWAP1 POP PUSH1 0x40 MLOAD SWAP1 DUP1 DUP3 MSTORE DUP1 PUSH1 0x20 MUL PUSH1 0x20 ADD DUP3 ADD PUSH1 0x40 MSTORE DUP1 ISZERO PUSH2 0xE1E JUMPI DUP2 PUSH1 0x20 ADD JUMPDEST PUSH2 0xE0B PUSH2 0x216E JUMP JUMPDEST DUP2 MSTORE PUSH1 0x20 ADD SWAP1 PUSH1 0x1 SWAP1 SUB SWAP1 DUP2 PUSH2 0xE03 JUMPI SWAP1 POP JUMPDEST POP SWAP1 POP PUSH1 0x0 SWAP2 POP JUMPDEST PUSH1 0x9 DUP1 SLOAD SWAP1 POP DUP3 LT ISZERO PUSH2 0xEF2 JUMPI PUSH1 0x8 PUSH1 0x0 PUSH1 0x9 DUP5 DUP2 SLOAD DUP2 LT ISZERO ISZERO PUSH2 0xE46 JUMPI INVALID JUMPDEST SWAP1 PUSH1 0x0 MSTORE PUSH1 0x20 PUSH1 0x0 KECCAK256 ADD SLOAD DUP2 MSTORE PUSH1 0x20 ADD SWAP1 DUP2 MSTORE PUSH1 0x20 ADD PUSH1 0x0 KECCAK256 PUSH1 0x40 DUP1 MLOAD SWAP1 DUP2 ADD PUSH1 0x40 MSTORE SWAP1 DUP2 PUSH1 0x0 DUP3 ADD SLOAD DUP2 MSTORE PUSH1 0x20 ADD PUSH1 0x1 DUP3 ADD PUSH1 0x0 SWAP1 SLOAD SWAP1 PUSH2 0x100 EXP SWAP1 DIV PUSH20 0xFFFFFFFFFFFFFFFFFFFFFFFFFFFFFFFFFFFFFFFF AND PUSH20 0xFFFFFFFFFFFFFFFFFFFFFFFFFFFFFFFFFFFFFFFF AND PUSH20 0xFFFFFFFFFFFFFFFFFFFFFFFFFFFFFFFFFFFFFFFF AND DUP2 MSTORE POP POP DUP2 DUP4 DUP2 MLOAD DUP2 LT ISZERO ISZERO PUSH2 0xED8 JUMPI INVALID JUMPDEST SWAP1 PUSH1 0x20 ADD SWAP1 PUSH1 0x20 MUL ADD DUP2 SWAP1 MSTORE POP DUP2 DUP1 PUSH1 0x1 ADD SWAP3 POP POP PUSH2 0xE26 JUMP JUMPDEST DUP1 SWAP3 POP POP POP SWAP1 JUMP JUMPDEST PUSH1 0x0 PUSH1 0x1 DUP2 GT ISZERO PUSH2 0xF07 JUMPI INVALID JUMPDEST DUP2 PUSH1 0x1 DUP2 GT ISZERO PUSH2 0xF13 JUMPI INVALID JUMPDEST EQ ISZERO PUSH2 0x12A6 JUMPI PUSH1 0x0 PUSH2 0xF36 PUSH1 0x1 PUSH1 0x0 DUP7 DUP2 MSTORE PUSH1 0x20 ADD SWAP1 DUP2 MSTORE PUSH1 0x20 ADD PUSH1 0x0 KECCAK256 PUSH2 0x1A59 JUMP JUMPDEST PUSH1 0x0 ADD MLOAD SWAP1 POP PUSH1 0x0 DUP4 SWAP1 POP JUMPDEST DUP1 PUSH1 0x7 PUSH1 0x0 DUP5 DUP2 MSTORE PUSH1 0x20 ADD SWAP1 DUP2 MSTORE PUSH1 0x20 ADD PUSH1 0x0 KECCAK256 PUSH1 0x4 ADD SLOAD PUSH1 0x7 PUSH1 0x0 DUP6 DUP2 MSTORE PUSH1 0x20 ADD SWAP1 DUP2 MSTORE PUSH1 0x20 ADD PUSH1 0x0 KECCAK256 PUSH1 0x3 ADD SLOAD SUB GT ISZERO ISZERO PUSH2 0x11AD JUMPI PUSH2 0xF81 PUSH2 0x208B JUMP JUMPDEST PUSH2 0xF9C PUSH1 0x1 PUSH1 0x0 DUP9 DUP2 MSTORE PUSH1 0x20 ADD SWAP1 DUP2 MSTORE PUSH1 0x20 ADD PUSH1 0x0 KECCAK256 PUSH2 0x1A73 JUMP JUMPDEST SWAP1 POP PUSH1 0x0 PUSH1 0x7 PUSH1 0x0 DUP6 DUP2 MSTORE PUSH1 0x20 ADD SWAP1 DUP2 MSTORE PUSH1 0x20 ADD PUSH1 0x0 KECCAK256 PUSH1 0x4 ADD SLOAD PUSH1 0x7 PUSH1 0x0 DUP7 DUP2 MSTORE PUSH1 0x20 ADD SWAP1 DUP2 MSTORE PUSH1 0x20 ADD PUSH1 0x0 KECCAK256 PUSH1 0x3 ADD SLOAD SUB DUP7 SUB SWAP1 POP CALLER PUSH20 0xFFFFFFFFFFFFFFFFFFFFFFFFFFFFFFFFFFFFFFFF AND PUSH1 0x7 PUSH1 0x0 DUP7 DUP2 MSTORE PUSH1 0x20 ADD SWAP1 DUP2 MSTORE PUSH1 0x20 ADD PUSH1 0x0 KECCAK256 PUSH1 0x1 ADD PUSH1 0x0 SWAP1 SLOAD SWAP1 PUSH2 0x100 EXP SWAP1 DIV PUSH20 0xFFFFFFFFFFFFFFFFFFFFFFFFFFFFFFFFFFFFFFFF AND PUSH20 0xFFFFFFFFFFFFFFFFFFFFFFFFFFFFFFFFFFFFFFFF AND PUSH1 0x7 PUSH1 0x0 DUP8 DUP2 MSTORE PUSH1 0x20 ADD SWAP1 DUP2 MSTORE PUSH1 0x20 ADD PUSH1 0x0 KECCAK256 PUSH1 0x2 ADD SLOAD PUSH32 0xDB0C486E680BA8026643E6A85F8D157B5E7BCD4B32B54D564542570A9EB20416 PUSH1 0x5 SLOAD DUP9 PUSH1 0x7 PUSH1 0x0 DUP12 DUP2 MSTORE PUSH1 0x20 ADD SWAP1 DUP2 MSTORE PUSH1 0x20 ADD PUSH1 0x0 KECCAK256 PUSH1 0x4 ADD SLOAD PUSH1 0x7 PUSH1 0x0 DUP13 DUP2 MSTORE PUSH1 0x20 ADD SWAP1 DUP2 MSTORE PUSH1 0x20 ADD PUSH1 0x0 KECCAK256 PUSH1 0x3 ADD SLOAD SUB PUSH1 0x7 PUSH1 0x0 DUP13 DUP2 MSTORE PUSH1 0x20 ADD SWAP1 DUP2 MSTORE PUSH1 0x20 ADD PUSH1 0x0 KECCAK256 PUSH1 0x5 ADD SLOAD TIMESTAMP PUSH1 0x40 MLOAD PUSH2 0x10CB SWAP6 SWAP5 SWAP4 SWAP3 SWAP2 SWAP1 PUSH2 0x2963 JUMP JUMPDEST PUSH1 0x40 MLOAD DUP1 SWAP2 SUB SWAP1 LOG4 PUSH1 0x5 PUSH1 0x0 DUP2 SLOAD DUP1 SWAP3 SWAP2 SWAP1 PUSH1 0x1 ADD SWAP2 SWAP1 POP SSTORE POP PUSH1 0x7 PUSH1 0x0 DUP6 DUP2 MSTORE PUSH1 0x20 ADD SWAP1 DUP2 MSTORE PUSH1 0x20 ADD PUSH1 0x0 KECCAK256 PUSH1 0x0 DUP1 DUP3 ADD PUSH1 0x0 SWAP1 SSTORE PUSH1 0x1 DUP3 ADD PUSH1 0x0 PUSH2 0x100 EXP DUP2 SLOAD SWAP1 PUSH20 0xFFFFFFFFFFFFFFFFFFFFFFFFFFFFFFFFFFFFFFFF MUL NOT AND SWAP1 SSTORE PUSH1 0x1 DUP3 ADD PUSH1 0x14 PUSH2 0x100 EXP DUP2 SLOAD SWAP1 PUSH1 0xFF MUL NOT AND SWAP1 SSTORE PUSH1 0x2 DUP3 ADD PUSH1 0x0 SWAP1 SSTORE PUSH1 0x3 DUP3 ADD PUSH1 0x0 SWAP1 SSTORE PUSH1 0x4 DUP3 ADD PUSH1 0x0 SWAP1 SSTORE PUSH1 0x5 DUP3 ADD PUSH1 0x0 SWAP1 SSTORE PUSH1 0x6 DUP3 ADD PUSH1 0x0 SWAP1 SSTORE POP POP PUSH1 0x0 PUSH1 0x3 DUP6 DUP2 SLOAD DUP2 LT ISZERO ISZERO PUSH2 0x1177 JUMPI INVALID JUMPDEST SWAP1 PUSH1 0x0 MSTORE PUSH1 0x20 PUSH1 0x0 KECCAK256 ADD DUP2 SWAP1 SSTORE POP PUSH2 0x11A0 PUSH1 0x1 PUSH1 0x0 DUP10 DUP2 MSTORE PUSH1 0x20 ADD SWAP1 DUP2 MSTORE PUSH1 0x20 ADD PUSH1 0x0 KECCAK256 PUSH2 0x1A59 JUMP JUMPDEST PUSH1 0x0 ADD MLOAD SWAP4 POP POP POP PUSH2 0xF42 JUMP JUMPDEST DUP1 PUSH1 0x7 PUSH1 0x0 DUP5 DUP2 MSTORE PUSH1 0x20 ADD SWAP1 DUP2 MSTORE PUSH1 0x20 ADD PUSH1 0x0 KECCAK256 PUSH1 0x4 ADD PUSH1 0x0 DUP3 DUP3 SLOAD ADD SWAP3 POP POP DUP2 SWAP1 SSTORE POP CALLER PUSH20 0xFFFFFFFFFFFFFFFFFFFFFFFFFFFFFFFFFFFFFFFF AND PUSH1 0x7 PUSH1 0x0 DUP5 DUP2 MSTORE PUSH1 0x20 ADD SWAP1 DUP2 MSTORE PUSH1 0x20 ADD PUSH1 0x0 KECCAK256 PUSH1 0x1 ADD PUSH1 0x0 SWAP1 SLOAD SWAP1 PUSH2 0x100 EXP SWAP1 DIV PUSH20 0xFFFFFFFFFFFFFFFFFFFFFFFFFFFFFFFFFFFFFFFF AND PUSH20 0xFFFFFFFFFFFFFFFFFFFFFFFFFFFFFFFFFFFFFFFF AND DUP7 PUSH32 0xDB0C486E680BA8026643E6A85F8D157B5E7BCD4B32B54D564542570A9EB20416 PUSH1 0x5 SLOAD DUP7 DUP7 PUSH1 0x7 PUSH1 0x0 DUP11 DUP2 MSTORE PUSH1 0x20 ADD SWAP1 DUP2 MSTORE PUSH1 0x20 ADD PUSH1 0x0 KECCAK256 PUSH1 0x5 ADD SLOAD TIMESTAMP PUSH1 0x40 MLOAD PUSH2 0x1285 SWAP6 SWAP5 SWAP4 SWAP3 SWAP2 SWAP1 PUSH2 0x2963 JUMP JUMPDEST PUSH1 0x40 MLOAD DUP1 SWAP2 SUB SWAP1 LOG4 PUSH1 0x5 PUSH1 0x0 DUP2 SLOAD DUP1 SWAP3 SWAP2 SWAP1 PUSH1 0x1 ADD SWAP2 SWAP1 POP SSTORE POP POP POP PUSH2 0x1648 JUMP JUMPDEST PUSH1 0x1 DUP1 DUP2 GT ISZERO PUSH2 0x12B2 JUMPI INVALID JUMPDEST DUP2 PUSH1 0x1 DUP2 GT ISZERO PUSH2 0x12BE JUMPI INVALID JUMPDEST EQ ISZERO PUSH2 0x1647 JUMPI PUSH1 0x0 PUSH2 0x12E0 PUSH1 0x0 DUP1 DUP7 DUP2 MSTORE PUSH1 0x20 ADD SWAP1 DUP2 MSTORE PUSH1 0x20 ADD PUSH1 0x0 KECCAK256 PUSH2 0x1A59 JUMP JUMPDEST PUSH1 0x0 ADD MLOAD SWAP1 POP PUSH1 0x0 DUP4 SWAP1 POP JUMPDEST DUP1 PUSH1 0x7 PUSH1 0x0 DUP5 DUP2 MSTORE PUSH1 0x20 ADD SWAP1 DUP2 MSTORE PUSH1 0x20 ADD PUSH1 0x0 KECCAK256 PUSH1 0x4 ADD SLOAD PUSH1 0x7 PUSH1 0x0 DUP6 DUP2 MSTORE PUSH1 0x20 ADD SWAP1 DUP2 MSTORE PUSH1 0x20 ADD PUSH1 0x0 KECCAK256 PUSH1 0x3 ADD SLOAD SUB GT ISZERO ISZERO PUSH2 0x1552 JUMPI PUSH2 0x132B PUSH2 0x208B JUMP JUMPDEST PUSH2 0x1345 PUSH1 0x0 DUP1 DUP9 DUP2 MSTORE PUSH1 0x20 ADD SWAP1 DUP2 MSTORE PUSH1 0x20 ADD PUSH1 0x0 KECCAK256 PUSH2 0x1A73 JUMP JUMPDEST SWAP1 POP PUSH1 0x7 PUSH1 0x0 DUP5 DUP2 MSTORE PUSH1 0x20 ADD SWAP1 DUP2 MSTORE PUSH1 0x20 ADD PUSH1 0x0 KECCAK256 PUSH1 0x4 ADD SLOAD PUSH1 0x7 PUSH1 0x0 DUP6 DUP2 MSTORE PUSH1 0x20 ADD SWAP1 DUP2 MSTORE PUSH1 0x20 ADD PUSH1 0x0 KECCAK256 PUSH1 0x3 ADD SLOAD SUB DUP6 SUB SWAP2 POP CALLER PUSH20 0xFFFFFFFFFFFFFFFFFFFFFFFFFFFFFFFFFFFFFFFF AND PUSH1 0x7 PUSH1 0x0 DUP6 DUP2 MSTORE PUSH1 0x20 ADD SWAP1 DUP2 MSTORE PUSH1 0x20 ADD PUSH1 0x0 KECCAK256 PUSH1 0x1 ADD PUSH1 0x0 SWAP1 SLOAD SWAP1 PUSH2 0x100 EXP SWAP1 DIV PUSH20 0xFFFFFFFFFFFFFFFFFFFFFFFFFFFFFFFFFFFFFFFF AND PUSH20 0xFFFFFFFFFFFFFFFFFFFFFFFFFFFFFFFFFFFFFFFF AND PUSH1 0x7 PUSH1 0x0 DUP7 DUP2 MSTORE PUSH1 0x20 ADD SWAP1 DUP2 MSTORE PUSH1 0x20 ADD PUSH1 0x0 KECCAK256 PUSH1 0x2 ADD SLOAD PUSH32 0xDB0C486E680BA8026643E6A85F8D157B5E7BCD4B32B54D564542570A9EB20416 PUSH1 0x5 SLOAD DUP8 PUSH1 0x7 PUSH1 0x0 DUP11 DUP2 MSTORE PUSH1 0x20 ADD SWAP1 DUP2 MSTORE PUSH1 0x20 ADD PUSH1 0x0 KECCAK256 PUSH1 0x4 ADD SLOAD PUSH1 0x7 PUSH1 0x0 DUP12 DUP2 MSTORE PUSH1 0x20 ADD SWAP1 DUP2 MSTORE PUSH1 0x20 ADD PUSH1 0x0 KECCAK256 PUSH1 0x3 ADD SLOAD SUB PUSH1 0x7 PUSH1 0x0 DUP12 DUP2 MSTORE PUSH1 0x20 ADD SWAP1 DUP2 MSTORE PUSH1 0x20 ADD PUSH1 0x0 KECCAK256 PUSH1 0x5 ADD SLOAD TIMESTAMP PUSH1 0x40 MLOAD PUSH2 0x1472 SWAP6 SWAP5 SWAP4 SWAP3 SWAP2 SWAP1 PUSH2 0x2963 JUMP JUMPDEST PUSH1 0x40 MLOAD DUP1 SWAP2 SUB SWAP1 LOG4 PUSH1 0x5 PUSH1 0x0 DUP2 SLOAD DUP1 SWAP3 SWAP2 SWAP1 PUSH1 0x1 ADD SWAP2 SWAP1 POP SSTORE POP PUSH1 0x7 PUSH1 0x0 DUP5 DUP2 MSTORE PUSH1 0x20 ADD SWAP1 DUP2 MSTORE PUSH1 0x20 ADD PUSH1 0x0 KECCAK256 PUSH1 0x0 DUP1 DUP3 ADD PUSH1 0x0 SWAP1 SSTORE PUSH1 0x1 DUP3 ADD PUSH1 0x0 PUSH2 0x100 EXP DUP2 SLOAD SWAP1 PUSH20 0xFFFFFFFFFFFFFFFFFFFFFFFFFFFFFFFFFFFFFFFF MUL NOT AND SWAP1 SSTORE PUSH1 0x1 DUP3 ADD PUSH1 0x14 PUSH2 0x100 EXP DUP2 SLOAD SWAP1 PUSH1 0xFF MUL NOT AND SWAP1 SSTORE PUSH1 0x2 DUP3 ADD PUSH1 0x0 SWAP1 SSTORE PUSH1 0x3 DUP3 ADD PUSH1 0x0 SWAP1 SSTORE PUSH1 0x4 DUP3 ADD PUSH1 0x0 SWAP1 SSTORE PUSH1 0x5 DUP3 ADD PUSH1 0x0 SWAP1 SSTORE PUSH1 0x6 DUP3 ADD PUSH1 0x0 SWAP1 SSTORE POP POP PUSH1 0x0 PUSH1 0x3 DUP5 DUP2 SLOAD DUP2 LT ISZERO ISZERO PUSH2 0x151E JUMPI INVALID JUMPDEST SWAP1 PUSH1 0x0 MSTORE PUSH1 0x20 PUSH1 0x0 KECCAK256 ADD DUP2 SWAP1 SSTORE POP PUSH2 0x1546 PUSH1 0x0 DUP1 DUP9 DUP2 MSTORE PUSH1 0x20 ADD SWAP1 DUP2 MSTORE PUSH1 0x20 ADD PUSH1 0x0 KECCAK256 PUSH2 0x1A59 JUMP JUMPDEST PUSH1 0x0 ADD MLOAD SWAP3 POP POP PUSH2 0x12EC JUMP JUMPDEST DUP1 PUSH1 0x7 PUSH1 0x0 DUP5 DUP2 MSTORE PUSH1 0x20 ADD SWAP1 DUP2 MSTORE PUSH1 0x20 ADD PUSH1 0x0 KECCAK256 PUSH1 0x4 ADD PUSH1 0x0 DUP3 DUP3 SLOAD ADD SWAP3 POP POP DUP2 SWAP1 SSTORE POP CALLER PUSH20 0xFFFFFFFFFFFFFFFFFFFFFFFFFFFFFFFFFFFFFFFF AND PUSH1 0x7 PUSH1 0x0 DUP5 DUP2 MSTORE PUSH1 0x20 ADD SWAP1 DUP2 MSTORE PUSH1 0x20 ADD PUSH1 0x0 KECCAK256 PUSH1 0x1 ADD PUSH1 0x0 SWAP1 SLOAD SWAP1 PUSH2 0x100 EXP SWAP1 DIV PUSH20 0xFFFFFFFFFFFFFFFFFFFFFFFFFFFFFFFFFFFFFFFF AND PUSH20 0xFFFFFFFFFFFFFFFFFFFFFFFFFFFFFFFFFFFFFFFF AND DUP7 PUSH32 0xDB0C486E680BA8026643E6A85F8D157B5E7BCD4B32B54D564542570A9EB20416 PUSH1 0x5 SLOAD DUP7 DUP7 PUSH1 0x7 PUSH1 0x0 DUP11 DUP2 MSTORE PUSH1 0x20 ADD SWAP1 DUP2 MSTORE PUSH1 0x20 ADD PUSH1 0x0 KECCAK256 PUSH1 0x5 ADD SLOAD TIMESTAMP PUSH1 0x40 MLOAD PUSH2 0x162A SWAP6 SWAP5 SWAP4 SWAP3 SWAP2 SWAP1 PUSH2 0x2963 JUMP JUMPDEST PUSH1 0x40 MLOAD DUP1 SWAP2 SUB SWAP1 LOG4 PUSH1 0x5 PUSH1 0x0 DUP2 SLOAD DUP1 SWAP3 SWAP2 SWAP1 PUSH1 0x1 ADD SWAP2 SWAP1 POP SSTORE POP POP POP JUMPDEST JUMPDEST POP POP POP JUMP JUMPDEST PUSH1 0x8 PUSH1 0x0 DUP3 DUP2 MSTORE PUSH1 0x20 ADD SWAP1 DUP2 MSTORE PUSH1 0x20 ADD PUSH1 0x0 KECCAK256 PUSH1 0x1 ADD PUSH1 0x0 SWAP1 SLOAD SWAP1 PUSH2 0x100 EXP SWAP1 DIV PUSH20 0xFFFFFFFFFFFFFFFFFFFFFFFFFFFFFFFFFFFFFFFF AND PUSH20 0xFFFFFFFFFFFFFFFFFFFFFFFFFFFFFFFFFFFFFFFF AND PUSH4 0x23B872DD CALLER ADDRESS DUP6 PUSH1 0x40 MLOAD DUP5 PUSH4 0xFFFFFFFF AND PUSH29 0x100000000000000000000000000000000000000000000000000000000 MUL DUP2 MSTORE PUSH1 0x4 ADD PUSH2 0x16DC SWAP4 SWAP3 SWAP2 SWAP1 PUSH2 0x2775 JUMP JUMPDEST PUSH1 0x20 PUSH1 0x40 MLOAD DUP1 DUP4 SUB DUP2 PUSH1 0x0 DUP8 DUP1 EXTCODESIZE ISZERO DUP1 ISZERO PUSH2 0x16F6 JUMPI PUSH1 0x0 DUP1 REVERT JUMPDEST POP GAS CALL ISZERO DUP1 ISZERO PUSH2 0x170A JUMPI RETURNDATASIZE PUSH1 0x0 DUP1 RETURNDATACOPY RETURNDATASIZE PUSH1 0x0 REVERT JUMPDEST POP POP POP POP PUSH1 0x40 MLOAD RETURNDATASIZE PUSH1 0x1F NOT PUSH1 0x1F DUP3 ADD AND DUP3 ADD DUP1 PUSH1 0x40 MSTORE POP PUSH2 0x172E SWAP2 SWAP1 DUP2 ADD SWAP1 PUSH2 0x2318 JUMP JUMPDEST POP DUP2 PUSH1 0x2 PUSH1 0x0 CALLER PUSH20 0xFFFFFFFFFFFFFFFFFFFFFFFFFFFFFFFFFFFFFFFF AND PUSH20 0xFFFFFFFFFFFFFFFFFFFFFFFFFFFFFFFFFFFFFFFF AND DUP2 MSTORE PUSH1 0x20 ADD SWAP1 DUP2 MSTORE PUSH1 0x20 ADD PUSH1 0x0 KECCAK256 PUSH1 0x0 DUP4 DUP2 MSTORE PUSH1 0x20 ADD SWAP1 DUP2 MSTORE PUSH1 0x20 ADD PUSH1 0x0 KECCAK256 PUSH1 0x0 DUP3 DUP3 SLOAD ADD SWAP3 POP POP DUP2 SWAP1 SSTORE POP POP POP JUMP JUMPDEST PUSH32 0x50494E0000000000000000000000000000000000000000000000000000000000 DUP5 EQ ISZERO DUP1 ISZERO PUSH2 0x17DE JUMPI POP PUSH1 0xA PUSH1 0x0 DUP6 DUP2 MSTORE PUSH1 0x20 ADD SWAP1 DUP2 MSTORE PUSH1 0x20 ADD PUSH1 0x0 KECCAK256 PUSH1 0x0 SWAP1 SLOAD SWAP1 PUSH2 0x100 EXP SWAP1 DIV PUSH1 0xFF AND JUMPDEST ISZERO ISZERO PUSH2 0x17E9 JUMPI PUSH1 0x0 DUP1 REVERT JUMPDEST PUSH1 0x0 PUSH1 0x4 SLOAD SWAP1 POP PUSH2 0x17F8 PUSH2 0x2021 JUMP JUMPDEST PUSH2 0x100 PUSH1 0x40 MLOAD SWAP1 DUP2 ADD PUSH1 0x40 MSTORE DUP1 DUP4 DUP2 MSTORE PUSH1 0x20 ADD CALLER PUSH20 0xFFFFFFFFFFFFFFFFFFFFFFFFFFFFFFFFFFFFFFFF AND DUP2 MSTORE PUSH1 0x20 ADD DUP5 PUSH1 0x1 DUP2 GT ISZERO PUSH2 0x1833 JUMPI INVALID JUMPDEST DUP2 MSTORE PUSH1 0x20 ADD DUP8 DUP2 MSTORE PUSH1 0x20 ADD DUP7 DUP2 MSTORE PUSH1 0x20 ADD PUSH1 0x0 DUP2 MSTORE PUSH1 0x20 ADD DUP6 DUP2 MSTORE PUSH1 0x20 ADD TIMESTAMP DUP2 MSTORE POP SWAP1 POP PUSH1 0x4 PUSH1 0x0 DUP2 SLOAD DUP1 SWAP3 SWAP2 SWAP1 PUSH1 0x1 ADD SWAP2 SWAP1 POP SSTORE POP PUSH1 0x0 PUSH1 0x1 DUP1 DUP2 GT ISZERO PUSH2 0x1877 JUMPI INVALID JUMPDEST DUP5 PUSH1 0x1 DUP2 GT ISZERO PUSH2 0x1883 JUMPI INVALID JUMPDEST EQ ISZERO PUSH2 0x18B7 JUMPI PUSH2 0x18B1 DUP6 PUSH1 0x4 SLOAD PUSH1 0x0 DUP1 DUP12 DUP2 MSTORE PUSH1 0x20 ADD SWAP1 DUP2 MSTORE PUSH1 0x20 ADD PUSH1 0x0 KECCAK256 PUSH2 0x1A8D SWAP1 SWAP3 SWAP2 SWAP1 PUSH4 0xFFFFFFFF AND JUMP JUMPDEST POP PUSH2 0x1900 JUMP JUMPDEST PUSH1 0x0 PUSH1 0x1 DUP2 GT ISZERO PUSH2 0x18C4 JUMPI INVALID JUMPDEST DUP5 PUSH1 0x1 DUP2 GT ISZERO PUSH2 0x18D0 JUMPI INVALID JUMPDEST EQ ISZERO PUSH2 0x18FF JUMPI PUSH2 0x18FD DUP6 DUP5 PUSH1 0x1 PUSH1 0x0 DUP12 DUP2 MSTORE PUSH1 0x20 ADD SWAP1 DUP2 MSTORE PUSH1 0x20 ADD PUSH1 0x0 KECCAK256 PUSH2 0x1A8D SWAP1 SWAP3 SWAP2 SWAP1 PUSH4 0xFFFFFFFF AND JUMP JUMPDEST POP JUMPDEST JUMPDEST DUP2 PUSH1 0x7 PUSH1 0x0 DUP6 DUP2 MSTORE PUSH1 0x20 ADD SWAP1 DUP2 MSTORE PUSH1 0x20 ADD PUSH1 0x0 KECCAK256 PUSH1 0x0 DUP3 ADD MLOAD DUP2 PUSH1 0x0 ADD SSTORE PUSH1 0x20 DUP3 ADD MLOAD DUP2 PUSH1 0x1 ADD PUSH1 0x0 PUSH2 0x100 EXP DUP2 SLOAD DUP2 PUSH20 0xFFFFFFFFFFFFFFFFFFFFFFFFFFFFFFFFFFFFFFFF MUL NOT AND SWAP1 DUP4 PUSH20 0xFFFFFFFFFFFFFFFFFFFFFFFFFFFFFFFFFFFFFFFF AND MUL OR SWAP1 SSTORE POP PUSH1 0x40 DUP3 ADD MLOAD DUP2 PUSH1 0x1 ADD PUSH1 0x14 PUSH2 0x100 EXP DUP2 SLOAD DUP2 PUSH1 0xFF MUL NOT AND SWAP1 DUP4 PUSH1 0x1 DUP2 GT ISZERO PUSH2 0x1989 JUMPI INVALID JUMPDEST MUL OR SWAP1 SSTORE POP PUSH1 0x60 DUP3 ADD MLOAD DUP2 PUSH1 0x2 ADD SSTORE PUSH1 0x80 DUP3 ADD MLOAD DUP2 PUSH1 0x3 ADD SSTORE PUSH1 0xA0 DUP3 ADD MLOAD DUP2 PUSH1 0x4 ADD SSTORE PUSH1 0xC0 DUP3 ADD MLOAD DUP2 PUSH1 0x5 ADD SSTORE PUSH1 0xE0 DUP3 ADD MLOAD DUP2 PUSH1 0x6 ADD SSTORE SWAP1 POP POP PUSH1 0x3 DUP1 SLOAD DUP1 SWAP2 SWAP1 PUSH1 0x1 ADD PUSH2 0x19D7 SWAP2 SWAP1 PUSH2 0x21A1 JUMP JUMPDEST POP DUP2 PUSH1 0x0 ADD MLOAD PUSH1 0x3 DUP4 PUSH1 0x0 ADD MLOAD DUP2 SLOAD DUP2 LT ISZERO ISZERO PUSH2 0x19F0 JUMPI INVALID JUMPDEST SWAP1 PUSH1 0x0 MSTORE PUSH1 0x20 PUSH1 0x0 KECCAK256 ADD DUP2 SWAP1 SSTORE POP POP POP POP POP POP POP POP JUMP JUMPDEST PUSH1 0x3 DUP2 DUP2 SLOAD DUP2 LT ISZERO ISZERO PUSH2 0x1A16 JUMPI INVALID JUMPDEST SWAP1 PUSH1 0x0 MSTORE PUSH1 0x20 PUSH1 0x0 KECCAK256 ADD PUSH1 0x0 SWAP2 POP SWAP1 POP SLOAD DUP2 JUMP JUMPDEST PUSH2 0x1A32 PUSH2 0x208B JUMP JUMPDEST PUSH2 0x1A51 DUP4 DUP5 PUSH1 0x2 ADD PUSH1 0x0 DUP6 DUP2 MSTORE PUSH1 0x20 ADD SWAP1 DUP2 MSTORE PUSH1 0x20 ADD PUSH1 0x0 KECCAK256 SLOAD PUSH2 0x1B5A JUMP JUMPDEST SWAP1 POP SWAP3 SWAP2 POP POP JUMP JUMPDEST PUSH2 0x1A61 PUSH2 0x208B JUMP JUMPDEST PUSH2 0x1A6C DUP3 PUSH1 0x1 PUSH2 0x1CDA JUMP JUMPDEST SWAP1 POP SWAP2 SWAP1 POP JUMP JUMPDEST PUSH2 0x1A7B PUSH2 0x208B JUMP JUMPDEST PUSH2 0x1A86 DUP3 PUSH1 0x1 PUSH2 0x1B5A JUMP JUMPDEST SWAP1 POP SWAP2 SWAP1 POP JUMP JUMPDEST PUSH2 0x1A95 PUSH2 0x208B JUMP JUMPDEST PUSH1 0x0 DUP5 PUSH1 0x1 ADD DUP1 SLOAD SWAP1 POP EQ ISZERO PUSH2 0x1AAF JUMPI PUSH2 0x1AAE DUP5 PUSH2 0x1D53 JUMP JUMPDEST JUMPDEST DUP4 PUSH1 0x0 ADD PUSH1 0x0 DUP2 DUP2 SWAP1 SLOAD SWAP1 PUSH2 0x100 EXP SWAP1 DIV PUSH1 0xF SIGNEXTEND DUP1 SWAP3 SWAP2 SWAP1 PUSH1 0x1 ADD SWAP2 SWAP1 PUSH2 0x100 EXP DUP2 SLOAD DUP2 PUSH16 0xFFFFFFFFFFFFFFFFFFFFFFFFFFFFFFFF MUL NOT AND SWAP1 DUP4 PUSH1 0xF SIGNEXTEND PUSH16 0xFFFFFFFFFFFFFFFFFFFFFFFFFFFFFFFF AND MUL OR SWAP1 SSTORE POP POP DUP4 PUSH1 0x1 ADD DUP1 SLOAD DUP1 SWAP2 SWAP1 PUSH1 0x1 ADD PUSH2 0x1B1A SWAP2 SWAP1 PUSH2 0x21CD JUMP JUMPDEST POP PUSH2 0x1B23 PUSH2 0x208B JUMP JUMPDEST PUSH1 0x40 DUP1 MLOAD SWAP1 DUP2 ADD PUSH1 0x40 MSTORE DUP1 DUP5 DUP2 MSTORE PUSH1 0x20 ADD DUP6 DUP2 MSTORE POP SWAP1 POP PUSH2 0x1B4F DUP6 DUP3 PUSH1 0x1 DUP9 PUSH1 0x1 ADD DUP1 SLOAD SWAP1 POP SUB PUSH2 0x1DC4 JUMP JUMPDEST DUP1 SWAP2 POP POP SWAP4 SWAP3 POP POP POP JUMP JUMPDEST PUSH2 0x1B62 PUSH2 0x208B JUMP JUMPDEST DUP2 DUP4 PUSH1 0x1 ADD DUP1 SLOAD SWAP1 POP GT ISZERO DUP1 PUSH2 0x1B79 JUMPI POP PUSH1 0x0 DUP3 GT ISZERO JUMPDEST ISZERO PUSH2 0x1B9C JUMPI PUSH1 0x40 DUP1 MLOAD SWAP1 DUP2 ADD PUSH1 0x40 MSTORE DUP1 PUSH1 0x0 DUP2 MSTORE PUSH1 0x20 ADD PUSH1 0x0 DUP2 MSTORE POP SWAP1 POP PUSH2 0x1CD4 JUMP JUMPDEST PUSH2 0x1BA4 PUSH2 0x208B JUMP JUMPDEST DUP4 PUSH1 0x1 ADD DUP4 DUP2 SLOAD DUP2 LT ISZERO ISZERO PUSH2 0x1BB5 JUMPI INVALID JUMPDEST SWAP1 PUSH1 0x0 MSTORE PUSH1 0x20 PUSH1 0x0 KECCAK256 SWAP1 PUSH1 0x2 MUL ADD PUSH1 0x40 DUP1 MLOAD SWAP1 DUP2 ADD PUSH1 0x40 MSTORE SWAP1 DUP2 PUSH1 0x0 DUP3 ADD SLOAD DUP2 MSTORE PUSH1 0x20 ADD PUSH1 0x1 DUP3 ADD SLOAD DUP2 MSTORE POP POP SWAP1 POP DUP4 PUSH1 0x2 ADD PUSH1 0x0 DUP3 PUSH1 0x0 ADD MLOAD DUP2 MSTORE PUSH1 0x20 ADD SWAP1 DUP2 MSTORE PUSH1 0x20 ADD PUSH1 0x0 KECCAK256 PUSH1 0x0 SWAP1 SSTORE PUSH2 0x1C09 PUSH2 0x208B JUMP JUMPDEST DUP5 PUSH1 0x1 ADD PUSH1 0x1 DUP7 PUSH1 0x1 ADD DUP1 SLOAD SWAP1 POP SUB DUP2 SLOAD DUP2 LT ISZERO ISZERO PUSH2 0x1C24 JUMPI INVALID JUMPDEST SWAP1 PUSH1 0x0 MSTORE PUSH1 0x20 PUSH1 0x0 KECCAK256 SWAP1 PUSH1 0x2 MUL ADD PUSH1 0x40 DUP1 MLOAD SWAP1 DUP2 ADD PUSH1 0x40 MSTORE SWAP1 DUP2 PUSH1 0x0 DUP3 ADD SLOAD DUP2 MSTORE PUSH1 0x20 ADD PUSH1 0x1 DUP3 ADD SLOAD DUP2 MSTORE POP POP SWAP1 POP DUP5 PUSH1 0x1 ADD DUP1 SLOAD DUP1 SWAP2 SWAP1 PUSH1 0x1 SWAP1 SUB PUSH2 0x1C6A SWAP2 SWAP1 PUSH2 0x21CD JUMP JUMPDEST POP DUP5 PUSH1 0x1 ADD DUP1 SLOAD SWAP1 POP DUP5 LT ISZERO PUSH2 0x1CCE JUMPI PUSH2 0x1C85 DUP6 DUP3 DUP7 PUSH2 0x1DC4 JUMP JUMPDEST PUSH2 0x1CCD DUP6 DUP7 PUSH1 0x1 ADD DUP7 DUP2 SLOAD DUP2 LT ISZERO ISZERO PUSH2 0x1C9A JUMPI INVALID JUMPDEST SWAP1 PUSH1 0x0 MSTORE PUSH1 0x20 PUSH1 0x0 KECCAK256 SWAP1 PUSH1 0x2 MUL ADD PUSH1 0x40 DUP1 MLOAD SWAP1 DUP2 ADD PUSH1 0x40 MSTORE SWAP1 DUP2 PUSH1 0x0 DUP3 ADD SLOAD DUP2 MSTORE PUSH1 0x20 ADD PUSH1 0x1 DUP3 ADD SLOAD DUP2 MSTORE POP POP DUP7 PUSH2 0x1E8B JUMP JUMPDEST JUMPDEST DUP2 SWAP3 POP POP POP JUMPDEST SWAP3 SWAP2 POP POP JUMP JUMPDEST PUSH2 0x1CE2 PUSH2 0x208B JUMP JUMPDEST DUP2 DUP4 PUSH1 0x1 ADD DUP1 SLOAD SWAP1 POP GT PUSH2 0x1D0C JUMPI PUSH1 0x40 DUP1 MLOAD SWAP1 DUP2 ADD PUSH1 0x40 MSTORE DUP1 PUSH1 0x0 DUP2 MSTORE PUSH1 0x20 ADD PUSH1 0x0 DUP2 MSTORE POP PUSH2 0x1D4B JUMP JUMPDEST DUP3 PUSH1 0x1 ADD DUP3 DUP2 SLOAD DUP2 LT ISZERO ISZERO PUSH2 0x1D1D JUMPI INVALID JUMPDEST SWAP1 PUSH1 0x0 MSTORE PUSH1 0x20 PUSH1 0x0 KECCAK256 SWAP1 PUSH1 0x2 MUL ADD PUSH1 0x40 DUP1 MLOAD SWAP1 DUP2 ADD PUSH1 0x40 MSTORE SWAP1 DUP2 PUSH1 0x0 DUP3 ADD SLOAD DUP2 MSTORE PUSH1 0x20 ADD PUSH1 0x1 DUP3 ADD SLOAD DUP2 MSTORE POP POP JUMPDEST SWAP1 POP SWAP3 SWAP2 POP POP JUMP JUMPDEST PUSH1 0x0 DUP2 PUSH1 0x1 ADD DUP1 SLOAD SWAP1 POP EQ ISZERO PUSH2 0x1DC1 JUMPI DUP1 PUSH1 0x1 ADD PUSH1 0x40 DUP1 MLOAD SWAP1 DUP2 ADD PUSH1 0x40 MSTORE DUP1 PUSH1 0x0 DUP2 MSTORE PUSH1 0x20 ADD PUSH1 0x0 DUP2 MSTORE POP SWAP1 DUP1 PUSH1 0x1 DUP2 SLOAD ADD DUP1 DUP3 SSTORE DUP1 SWAP2 POP POP SWAP1 PUSH1 0x1 DUP3 SUB SWAP1 PUSH1 0x0 MSTORE PUSH1 0x20 PUSH1 0x0 KECCAK256 SWAP1 PUSH1 0x2 MUL ADD PUSH1 0x0 SWAP1 SWAP2 SWAP3 SWAP1 SWAP2 SWAP1 SWAP2 POP PUSH1 0x0 DUP3 ADD MLOAD DUP2 PUSH1 0x0 ADD SSTORE PUSH1 0x20 DUP3 ADD MLOAD DUP2 PUSH1 0x1 ADD SSTORE POP POP POP JUMPDEST POP JUMP JUMPDEST PUSH1 0x1 DUP2 EQ DUP1 PUSH2 0x1E05 JUMPI POP DUP3 PUSH1 0x1 ADD PUSH1 0x2 DUP3 DUP2 ISZERO ISZERO PUSH2 0x1DDE JUMPI INVALID JUMPDEST DIV DUP2 SLOAD DUP2 LT ISZERO ISZERO PUSH2 0x1DEB JUMPI INVALID JUMPDEST SWAP1 PUSH1 0x0 MSTORE PUSH1 0x20 PUSH1 0x0 KECCAK256 SWAP1 PUSH1 0x2 MUL ADD PUSH1 0x1 ADD SLOAD DUP3 PUSH1 0x20 ADD MLOAD GT ISZERO JUMPDEST ISZERO PUSH2 0x1E1A JUMPI PUSH2 0x1E15 DUP4 DUP4 DUP4 PUSH2 0x1FC7 JUMP JUMPDEST PUSH2 0x1E86 JUMP JUMPDEST PUSH2 0x1E6E DUP4 DUP5 PUSH1 0x1 ADD PUSH1 0x2 DUP5 DUP2 ISZERO ISZERO PUSH2 0x1E2E JUMPI INVALID JUMPDEST DIV DUP2 SLOAD DUP2 LT ISZERO ISZERO PUSH2 0x1E3B JUMPI INVALID JUMPDEST SWAP1 PUSH1 0x0 MSTORE PUSH1 0x20 PUSH1 0x0 KECCAK256 SWAP1 PUSH1 0x2 MUL ADD PUSH1 0x40 DUP1 MLOAD SWAP1 DUP2 ADD PUSH1 0x40 MSTORE SWAP1 DUP2 PUSH1 0x0 DUP3 ADD SLOAD DUP2 MSTORE PUSH1 0x20 ADD PUSH1 0x1 DUP3 ADD SLOAD DUP2 MSTORE POP POP DUP4 PUSH2 0x1FC7 JUMP JUMPDEST PUSH2 0x1E85 DUP4 DUP4 PUSH1 0x2 DUP5 DUP2 ISZERO ISZERO PUSH2 0x1E7F JUMPI INVALID JUMPDEST DIV PUSH2 0x1DC4 JUMP JUMPDEST JUMPDEST POP POP POP JUMP JUMPDEST PUSH1 0x0 DUP4 PUSH1 0x1 ADD DUP1 SLOAD SWAP1 POP SWAP1 POP PUSH1 0x0 PUSH1 0x2 DUP4 MUL SWAP1 POP DUP1 DUP3 GT ISZERO ISZERO PUSH2 0x1EB8 JUMPI PUSH2 0x1EB3 DUP6 DUP6 DUP6 PUSH2 0x1FC7 JUMP JUMPDEST PUSH2 0x1FC0 JUMP JUMPDEST PUSH2 0x1EC0 PUSH2 0x208B JUMP JUMPDEST DUP6 PUSH1 0x1 ADD DUP3 DUP2 SLOAD DUP2 LT ISZERO ISZERO PUSH2 0x1ED1 JUMPI INVALID JUMPDEST SWAP1 PUSH1 0x0 MSTORE PUSH1 0x20 PUSH1 0x0 KECCAK256 SWAP1 PUSH1 0x2 MUL ADD PUSH1 0x40 DUP1 MLOAD SWAP1 DUP2 ADD PUSH1 0x40 MSTORE SWAP1 DUP2 PUSH1 0x0 DUP3 ADD SLOAD DUP2 MSTORE PUSH1 0x20 ADD PUSH1 0x1 DUP3 ADD SLOAD DUP2 MSTORE POP POP SWAP1 POP PUSH1 0x1 DUP3 ADD DUP4 GT DUP1 ISZERO PUSH2 0x1F3A JUMPI POP DUP1 PUSH1 0x20 ADD MLOAD DUP7 PUSH1 0x1 ADD PUSH1 0x1 DUP5 ADD DUP2 SLOAD DUP2 LT ISZERO ISZERO PUSH2 0x1F26 JUMPI INVALID JUMPDEST SWAP1 PUSH1 0x0 MSTORE PUSH1 0x20 PUSH1 0x0 KECCAK256 SWAP1 PUSH1 0x2 MUL ADD PUSH1 0x1 ADD SLOAD GT JUMPDEST ISZERO PUSH2 0x1F86 JUMPI DUP6 PUSH1 0x1 ADD DUP3 PUSH1 0x1 ADD SWAP3 POP DUP3 DUP2 SLOAD DUP2 LT ISZERO ISZERO PUSH2 0x1F56 JUMPI INVALID JUMPDEST SWAP1 PUSH1 0x0 MSTORE PUSH1 0x20 PUSH1 0x0 KECCAK256 SWAP1 PUSH1 0x2 MUL ADD PUSH1 0x40 DUP1 MLOAD SWAP1 DUP2 ADD PUSH1 0x40 MSTORE SWAP1 DUP2 PUSH1 0x0 DUP3 ADD SLOAD DUP2 MSTORE PUSH1 0x20 ADD PUSH1 0x1 DUP3 ADD SLOAD DUP2 MSTORE POP POP SWAP1 POP JUMPDEST DUP5 PUSH1 0x20 ADD MLOAD DUP2 PUSH1 0x20 ADD MLOAD GT ISZERO ISZERO PUSH2 0x1FA7 JUMPI PUSH2 0x1FA2 DUP7 DUP7 DUP7 PUSH2 0x1FC7 JUMP JUMPDEST PUSH2 0x1FBE JUMP JUMPDEST PUSH2 0x1FB2 DUP7 DUP3 DUP7 PUSH2 0x1FC7 JUMP JUMPDEST PUSH2 0x1FBD DUP7 DUP7 DUP5 PUSH2 0x1E8B JUMP JUMPDEST JUMPDEST POP JUMPDEST POP POP POP POP POP JUMP JUMPDEST DUP2 DUP4 PUSH1 0x1 ADD DUP3 DUP2 SLOAD DUP2 LT ISZERO ISZERO PUSH2 0x1FD9 JUMPI INVALID JUMPDEST SWAP1 PUSH1 0x0 MSTORE PUSH1 0x20 PUSH1 0x0 KECCAK256 SWAP1 PUSH1 0x2 MUL ADD PUSH1 0x0 DUP3 ADD MLOAD DUP2 PUSH1 0x0 ADD SSTORE PUSH1 0x20 DUP3 ADD MLOAD DUP2 PUSH1 0x1 ADD SSTORE SWAP1 POP POP DUP1 DUP4 PUSH1 0x2 ADD PUSH1 0x0 DUP5 PUSH1 0x0 ADD MLOAD DUP2 MSTORE PUSH1 0x20 ADD SWAP1 DUP2 MSTORE PUSH1 0x20 ADD PUSH1 0x0 KECCAK256 DUP2 SWAP1 SSTORE POP POP POP POP JUMP JUMPDEST PUSH2 0x100 PUSH1 0x40 MLOAD SWAP1 DUP2 ADD PUSH1 0x40 MSTORE DUP1 PUSH1 0x0 DUP2 MSTORE PUSH1 0x20 ADD PUSH1 0x0 PUSH20 0xFFFFFFFFFFFFFFFFFFFFFFFFFFFFFFFFFFFFFFFF AND DUP2 MSTORE PUSH1 0x20 ADD PUSH1 0x0 PUSH1 0x1 DUP2 GT ISZERO PUSH2 0x205F JUMPI INVALID JUMPDEST DUP2 MSTORE PUSH1 0x20 ADD PUSH1 0x0 DUP1 NOT AND DUP2 MSTORE PUSH1 0x20 ADD PUSH1 0x0 DUP2 MSTORE PUSH1 0x20 ADD PUSH1 0x0 DUP2 MSTORE PUSH1 0x20 ADD PUSH1 0x0 DUP2 MSTORE PUSH1 0x20 ADD PUSH1 0x0 DUP2 MSTORE POP SWAP1 JUMP JUMPDEST PUSH1 0x40 DUP1 MLOAD SWAP1 DUP2 ADD PUSH1 0x40 MSTORE DUP1 PUSH1 0x0 DUP2 MSTORE PUSH1 0x20 ADD PUSH1 0x0 DUP2 MSTORE POP SWAP1 JUMP JUMPDEST PUSH2 0x100 PUSH1 0x40 MLOAD SWAP1 DUP2 ADD PUSH1 0x40 MSTORE DUP1 PUSH1 0x0 DUP2 MSTORE PUSH1 0x20 ADD PUSH1 0x0 PUSH20 0xFFFFFFFFFFFFFFFFFFFFFFFFFFFFFFFFFFFFFFFF AND DUP2 MSTORE PUSH1 0x20 ADD PUSH1 0x0 PUSH1 0x1 DUP2 GT ISZERO PUSH2 0x20E3 JUMPI INVALID JUMPDEST DUP2 MSTORE PUSH1 0x20 ADD PUSH1 0x0 DUP1 NOT AND DUP2 MSTORE PUSH1 0x20 ADD PUSH1 0x0 DUP2 MSTORE PUSH1 0x20 ADD PUSH1 0x0 DUP2 MSTORE PUSH1 0x20 ADD PUSH1 0x0 DUP2 MSTORE PUSH1 0x20 ADD PUSH1 0x0 DUP2 MSTORE POP SWAP1 JUMP JUMPDEST PUSH1 0x40 DUP1 MLOAD SWAP1 DUP2 ADD PUSH1 0x40 MSTORE DUP1 PUSH1 0x0 DUP1 NOT AND DUP2 MSTORE PUSH1 0x20 ADD PUSH1 0x0 PUSH20 0xFFFFFFFFFFFFFFFFFFFFFFFFFFFFFFFFFFFFFFFF AND DUP2 MSTORE POP SWAP1 JUMP JUMPDEST DUP2 SLOAD DUP2 DUP4 SSTORE DUP2 DUP2 GT ISZERO PUSH2 0x2169 JUMPI DUP2 DUP4 PUSH1 0x0 MSTORE PUSH1 0x20 PUSH1 0x0 KECCAK256 SWAP2 DUP3 ADD SWAP2 ADD PUSH2 0x2168 SWAP2 SWAP1 PUSH2 0x21FF JUMP JUMPDEST JUMPDEST POP POP POP JUMP JUMPDEST PUSH1 0x40 DUP1 MLOAD SWAP1 DUP2 ADD PUSH1 0x40 MSTORE DUP1 PUSH1 0x0 DUP1 NOT AND DUP2 MSTORE PUSH1 0x20 ADD PUSH1 0x0 PUSH20 0xFFFFFFFFFFFFFFFFFFFFFFFFFFFFFFFFFFFFFFFF AND DUP2 MSTORE POP SWAP1 JUMP JUMPDEST DUP2 SLOAD DUP2 DUP4 SSTORE DUP2 DUP2 GT ISZERO PUSH2 0x21C8 JUMPI DUP2 DUP4 PUSH1 0x0 MSTORE PUSH1 0x20 PUSH1 0x0 KECCAK256 SWAP2 DUP3 ADD SWAP2 ADD PUSH2 0x21C7 SWAP2 SWAP1 PUSH2 0x2224 JUMP JUMPDEST JUMPDEST POP POP POP JUMP JUMPDEST DUP2 SLOAD DUP2 DUP4 SSTORE DUP2 DUP2 GT ISZERO PUSH2 0x21FA JUMPI PUSH1 0x2 MUL DUP2 PUSH1 0x2 MUL DUP4 PUSH1 0x0 MSTORE PUSH1 0x20 PUSH1 0x0 KECCAK256 SWAP2 DUP3 ADD SWAP2 ADD PUSH2 0x21F9 SWAP2 SWAP1 PUSH2 0x2249 JUMP JUMPDEST JUMPDEST POP POP POP JUMP JUMPDEST PUSH2 0x2221 SWAP2 SWAP1 JUMPDEST DUP1 DUP3 GT ISZERO PUSH2 0x221D JUMPI PUSH1 0x0 DUP2 PUSH1 0x0 SWAP1 SSTORE POP PUSH1 0x1 ADD PUSH2 0x2205 JUMP JUMPDEST POP SWAP1 JUMP JUMPDEST SWAP1 JUMP JUMPDEST PUSH2 0x2246 SWAP2 SWAP1 JUMPDEST DUP1 DUP3 GT ISZERO PUSH2 0x2242 JUMPI PUSH1 0x0 DUP2 PUSH1 0x0 SWAP1 SSTORE POP PUSH1 0x1 ADD PUSH2 0x222A JUMP JUMPDEST POP SWAP1 JUMP JUMPDEST SWAP1 JUMP JUMPDEST PUSH2 0x2275 SWAP2 SWAP1 JUMPDEST DUP1 DUP3 GT ISZERO PUSH2 0x2271 JUMPI PUSH1 0x0 DUP1 DUP3 ADD PUSH1 0x0 SWAP1 SSTORE PUSH1 0x1 DUP3 ADD PUSH1 0x0 SWAP1 SSTORE POP PUSH1 0x2 ADD PUSH2 0x224F JUMP JUMPDEST POP SWAP1 JUMP JUMPDEST SWAP1 JUMP JUMPDEST PUSH1 0x0 PUSH2 0x2284 DUP3 CALLDATALOAD PUSH2 0x2A75 JUMP JUMPDEST SWAP1 POP SWAP3 SWAP2 POP POP JUMP JUMPDEST PUSH1 0x0 PUSH2 0x2298 DUP3 MLOAD PUSH2 0x2A87 JUMP JUMPDEST SWAP1 POP SWAP3 SWAP2 POP POP JUMP JUMPDEST PUSH1 0x0 PUSH2 0x22AC DUP3 CALLDATALOAD PUSH2 0x2A93 JUMP JUMPDEST SWAP1 POP SWAP3 SWAP2 POP POP JUMP JUMPDEST PUSH1 0x0 PUSH2 0x22C0 DUP3 CALLDATALOAD PUSH2 0x2A9D JUMP JUMPDEST SWAP1 POP SWAP3 SWAP2 POP POP JUMP JUMPDEST PUSH1 0x0 PUSH2 0x22D4 DUP3 CALLDATALOAD PUSH2 0x2AB6 JUMP JUMPDEST SWAP1 POP SWAP3 SWAP2 POP POP JUMP JUMPDEST PUSH1 0x0 DUP1 PUSH1 0x40 DUP4 DUP6 SUB SLT ISZERO PUSH2 0x22EF JUMPI PUSH1 0x0 DUP1 REVERT JUMPDEST PUSH1 0x0 PUSH2 0x22FD DUP6 DUP3 DUP7 ADD PUSH2 0x2278 JUMP JUMPDEST SWAP3 POP POP PUSH1 0x20 PUSH2 0x230E DUP6 DUP3 DUP7 ADD PUSH2 0x22A0 JUMP JUMPDEST SWAP2 POP POP SWAP3 POP SWAP3 SWAP1 POP JUMP JUMPDEST PUSH1 0x0 PUSH1 0x20 DUP3 DUP5 SUB SLT ISZERO PUSH2 0x232A JUMPI PUSH1 0x0 DUP1 REVERT JUMPDEST PUSH1 0x0 PUSH2 0x2338 DUP5 DUP3 DUP6 ADD PUSH2 0x228C JUMP JUMPDEST SWAP2 POP POP SWAP3 SWAP2 POP POP JUMP JUMPDEST PUSH1 0x0 PUSH1 0x20 DUP3 DUP5 SUB SLT ISZERO PUSH2 0x2353 JUMPI PUSH1 0x0 DUP1 REVERT JUMPDEST PUSH1 0x0 PUSH2 0x2361 DUP5 DUP3 DUP6 ADD PUSH2 0x22A0 JUMP JUMPDEST SWAP2 POP POP SWAP3 SWAP2 POP POP JUMP JUMPDEST PUSH1 0x0 DUP1 PUSH1 0x40 DUP4 DUP6 SUB SLT ISZERO PUSH2 0x237D JUMPI PUSH1 0x0 DUP1 REVERT JUMPDEST PUSH1 0x0 PUSH2 0x238B DUP6 DUP3 DUP7 ADD PUSH2 0x22A0 JUMP JUMPDEST SWAP3 POP POP PUSH1 0x20 PUSH2 0x239C DUP6 DUP3 DUP7 ADD PUSH2 0x2278 JUMP JUMPDEST SWAP2 POP POP SWAP3 POP SWAP3 SWAP1 POP JUMP JUMPDEST PUSH1 0x0 DUP1 PUSH1 0x40 DUP4 DUP6 SUB SLT ISZERO PUSH2 0x23B9 JUMPI PUSH1 0x0 DUP1 REVERT JUMPDEST PUSH1 0x0 PUSH2 0x23C7 DUP6 DUP3 DUP7 ADD PUSH2 0x22A0 JUMP JUMPDEST SWAP3 POP POP PUSH1 0x20 PUSH2 0x23D8 DUP6 DUP3 DUP7 ADD PUSH2 0x22B4 JUMP JUMPDEST SWAP2 POP POP SWAP3 POP SWAP3 SWAP1 POP JUMP JUMPDEST PUSH1 0x0 DUP1 PUSH1 0x0 PUSH1 0x60 DUP5 DUP7 SUB SLT ISZERO PUSH2 0x23F7 JUMPI PUSH1 0x0 DUP1 REVERT JUMPDEST PUSH1 0x0 PUSH2 0x2405 DUP7 DUP3 DUP8 ADD PUSH2 0x22A0 JUMP JUMPDEST SWAP4 POP POP PUSH1 0x20 PUSH2 0x2416 DUP7 DUP3 DUP8 ADD PUSH2 0x22C8 JUMP JUMPDEST SWAP3 POP POP PUSH1 0x40 PUSH2 0x2427 DUP7 DUP3 DUP8 ADD PUSH2 0x22B4 JUMP JUMPDEST SWAP2 POP POP SWAP3 POP SWAP3 POP SWAP3 JUMP JUMPDEST PUSH1 0x0 DUP1 PUSH1 0x0 DUP1 PUSH1 0x80 DUP6 DUP8 SUB SLT ISZERO PUSH2 0x2447 JUMPI PUSH1 0x0 DUP1 REVERT JUMPDEST PUSH1 0x0 PUSH2 0x2455 DUP8 DUP3 DUP9 ADD PUSH2 0x22A0 JUMP JUMPDEST SWAP5 POP POP PUSH1 0x20 PUSH2 0x2466 DUP8 DUP3 DUP9 ADD PUSH2 0x22C8 JUMP JUMPDEST SWAP4 POP POP PUSH1 0x40 PUSH2 0x2477 DUP8 DUP3 DUP9 ADD PUSH2 0x22C8 JUMP JUMPDEST SWAP3 POP POP PUSH1 0x60 PUSH2 0x2488 DUP8 DUP3 DUP9 ADD PUSH2 0x22B4 JUMP JUMPDEST SWAP2 POP POP SWAP3 SWAP6 SWAP2 SWAP5 POP SWAP3 POP JUMP JUMPDEST PUSH1 0x0 PUSH1 0x20 DUP3 DUP5 SUB SLT ISZERO PUSH2 0x24A6 JUMPI PUSH1 0x0 DUP1 REVERT JUMPDEST PUSH1 0x0 PUSH2 0x24B4 DUP5 DUP3 DUP6 ADD PUSH2 0x22C8 JUMP JUMPDEST SWAP2 POP POP SWAP3 SWAP2 POP POP JUMP JUMPDEST PUSH1 0x0 DUP1 PUSH1 0x40 DUP4 DUP6 SUB SLT ISZERO PUSH2 0x24D0 JUMPI PUSH1 0x0 DUP1 REVERT JUMPDEST PUSH1 0x0 PUSH2 0x24DE DUP6 DUP3 DUP7 ADD PUSH2 0x22C8 JUMP JUMPDEST SWAP3 POP POP PUSH1 0x20 PUSH2 0x24EF DUP6 DUP3 DUP7 ADD PUSH2 0x22A0 JUMP JUMPDEST SWAP2 POP POP SWAP3 POP SWAP3 SWAP1 POP JUMP JUMPDEST PUSH1 0x0 DUP1 PUSH1 0x0 PUSH1 0x60 DUP5 DUP7 SUB SLT ISZERO PUSH2 0x250E JUMPI PUSH1 0x0 DUP1 REVERT JUMPDEST PUSH1 0x0 PUSH2 0x251C DUP7 DUP3 DUP8 ADD PUSH2 0x22C8 JUMP JUMPDEST SWAP4 POP POP PUSH1 0x20 PUSH2 0x252D DUP7 DUP3 DUP8 ADD PUSH2 0x22A0 JUMP JUMPDEST SWAP3 POP POP PUSH1 0x40 PUSH2 0x253E DUP7 DUP3 DUP8 ADD PUSH2 0x22B4 JUMP JUMPDEST SWAP2 POP POP SWAP3 POP SWAP3 POP SWAP3 JUMP JUMPDEST PUSH2 0x2551 DUP2 PUSH2 0x2AC0 JUMP JUMPDEST DUP3 MSTORE POP POP JUMP JUMPDEST PUSH2 0x2560 DUP2 PUSH2 0x2A00 JUMP JUMPDEST DUP3 MSTORE POP POP JUMP JUMPDEST PUSH2 0x256F DUP2 PUSH2 0x2A00 JUMP JUMPDEST DUP3 MSTORE POP POP JUMP JUMPDEST PUSH1 0x0 PUSH2 0x2580 DUP3 PUSH2 0x29D0 JUMP JUMPDEST DUP1 DUP5 MSTORE PUSH1 0x20 DUP5 ADD SWAP4 POP PUSH2 0x2592 DUP4 PUSH2 0x29B6 JUMP JUMPDEST PUSH1 0x0 JUMPDEST DUP3 DUP2 LT ISZERO PUSH2 0x25C5 JUMPI PUSH2 0x25A8 DUP7 DUP4 MLOAD PUSH2 0x2686 JUMP JUMPDEST PUSH2 0x25B1 DUP3 PUSH2 0x29E6 JUMP JUMPDEST SWAP2 POP PUSH2 0x100 DUP7 ADD SWAP6 POP PUSH1 0x1 DUP2 ADD SWAP1 POP PUSH2 0x2595 JUMP JUMPDEST POP DUP5 SWAP3 POP POP POP SWAP3 SWAP2 POP POP JUMP JUMPDEST PUSH1 0x0 PUSH2 0x25DC DUP3 PUSH2 0x29DB JUMP JUMPDEST DUP1 DUP5 MSTORE PUSH1 0x20 DUP5 ADD SWAP4 POP PUSH2 0x25EE DUP4 PUSH2 0x29C3 JUMP JUMPDEST PUSH1 0x0 JUMPDEST DUP3 DUP2 LT ISZERO PUSH2 0x2620 JUMPI PUSH2 0x2604 DUP7 DUP4 MLOAD PUSH2 0x2728 JUMP JUMPDEST PUSH2 0x260D DUP3 PUSH2 0x29F3 JUMP JUMPDEST SWAP2 POP PUSH1 0x40 DUP7 ADD SWAP6 POP PUSH1 0x1 DUP2 ADD SWAP1 POP PUSH2 0x25F1 JUMP JUMPDEST POP DUP5 SWAP3 POP POP POP SWAP3 SWAP2 POP POP JUMP JUMPDEST PUSH2 0x2635 DUP2 PUSH2 0x2A12 JUMP JUMPDEST DUP3 MSTORE POP POP JUMP JUMPDEST PUSH2 0x2644 DUP2 PUSH2 0x2A1E JUMP JUMPDEST DUP3 MSTORE POP POP JUMP JUMPDEST PUSH2 0x2653 DUP2 PUSH2 0x2A1E JUMP JUMPDEST DUP3 MSTORE POP POP JUMP JUMPDEST PUSH2 0x2662 DUP2 PUSH2 0x2AD2 JUMP JUMPDEST DUP3 MSTORE POP POP JUMP JUMPDEST PUSH2 0x2671 DUP2 PUSH2 0x2AD2 JUMP JUMPDEST DUP3 MSTORE POP POP JUMP JUMPDEST PUSH2 0x2680 DUP2 PUSH2 0x2A3E JUMP JUMPDEST DUP3 MSTORE POP POP JUMP JUMPDEST PUSH2 0x100 DUP3 ADD PUSH1 0x0 DUP3 ADD MLOAD PUSH2 0x269D PUSH1 0x0 DUP6 ADD DUP3 PUSH2 0x2757 JUMP JUMPDEST POP PUSH1 0x20 DUP3 ADD MLOAD PUSH2 0x26B0 PUSH1 0x20 DUP6 ADD DUP3 PUSH2 0x2557 JUMP JUMPDEST POP PUSH1 0x40 DUP3 ADD MLOAD PUSH2 0x26C3 PUSH1 0x40 DUP6 ADD DUP3 PUSH2 0x2659 JUMP JUMPDEST POP PUSH1 0x60 DUP3 ADD MLOAD PUSH2 0x26D6 PUSH1 0x60 DUP6 ADD DUP3 PUSH2 0x263B JUMP JUMPDEST POP PUSH1 0x80 DUP3 ADD MLOAD PUSH2 0x26E9 PUSH1 0x80 DUP6 ADD DUP3 PUSH2 0x2757 JUMP JUMPDEST POP PUSH1 0xA0 DUP3 ADD MLOAD PUSH2 0x26FC PUSH1 0xA0 DUP6 ADD DUP3 PUSH2 0x2757 JUMP JUMPDEST POP PUSH1 0xC0 DUP3 ADD MLOAD PUSH2 0x270F PUSH1 0xC0 DUP6 ADD DUP3 PUSH2 0x2757 JUMP JUMPDEST POP PUSH1 0xE0 DUP3 ADD MLOAD PUSH2 0x2722 PUSH1 0xE0 DUP6 ADD DUP3 PUSH2 0x2757 JUMP JUMPDEST POP POP POP POP JUMP JUMPDEST PUSH1 0x40 DUP3 ADD PUSH1 0x0 DUP3 ADD MLOAD PUSH2 0x273E PUSH1 0x0 DUP6 ADD DUP3 PUSH2 0x263B JUMP JUMPDEST POP PUSH1 0x20 DUP3 ADD MLOAD PUSH2 0x2751 PUSH1 0x20 DUP6 ADD DUP3 PUSH2 0x2557 JUMP JUMPDEST POP POP POP POP JUMP JUMPDEST PUSH2 0x2760 DUP2 PUSH2 0x2A6B JUMP JUMPDEST DUP3 MSTORE POP POP JUMP JUMPDEST PUSH2 0x276F DUP2 PUSH2 0x2A6B JUMP JUMPDEST DUP3 MSTORE POP POP JUMP JUMPDEST PUSH1 0x0 PUSH1 0x60 DUP3 ADD SWAP1 POP PUSH2 0x278A PUSH1 0x0 DUP4 ADD DUP7 PUSH2 0x2548 JUMP JUMPDEST PUSH2 0x2797 PUSH1 0x20 DUP4 ADD DUP6 PUSH2 0x2566 JUMP JUMPDEST PUSH2 0x27A4 PUSH1 0x40 DUP4 ADD DUP5 PUSH2 0x2766 JUMP JUMPDEST SWAP5 SWAP4 POP POP POP POP JUMP JUMPDEST PUSH1 0x0 PUSH1 0x60 DUP3 ADD SWAP1 POP PUSH2 0x27C1 PUSH1 0x0 DUP4 ADD DUP7 PUSH2 0x2566 JUMP JUMPDEST PUSH2 0x27CE PUSH1 0x20 DUP4 ADD DUP6 PUSH2 0x2548 JUMP JUMPDEST PUSH2 0x27DB PUSH1 0x40 DUP4 ADD DUP5 PUSH2 0x2766 JUMP JUMPDEST SWAP5 SWAP4 POP POP POP POP JUMP JUMPDEST PUSH1 0x0 PUSH1 0x40 DUP3 ADD SWAP1 POP PUSH2 0x27F8 PUSH1 0x0 DUP4 ADD DUP6 PUSH2 0x2566 JUMP JUMPDEST PUSH2 0x2805 PUSH1 0x20 DUP4 ADD DUP5 PUSH2 0x2766 JUMP JUMPDEST SWAP4 SWAP3 POP POP POP JUMP JUMPDEST PUSH1 0x0 PUSH1 0x20 DUP3 ADD SWAP1 POP DUP2 DUP2 SUB PUSH1 0x0 DUP4 ADD MSTORE PUSH2 0x2826 DUP2 DUP5 PUSH2 0x2575 JUMP JUMPDEST SWAP1 POP SWAP3 SWAP2 POP POP JUMP JUMPDEST PUSH1 0x0 PUSH1 0x20 DUP3 ADD SWAP1 POP DUP2 DUP2 SUB PUSH1 0x0 DUP4 ADD MSTORE PUSH2 0x2848 DUP2 DUP5 PUSH2 0x25D1 JUMP JUMPDEST SWAP1 POP SWAP3 SWAP2 POP POP JUMP JUMPDEST PUSH1 0x0 PUSH1 0x20 DUP3 ADD SWAP1 POP PUSH2 0x2865 PUSH1 0x0 DUP4 ADD DUP5 PUSH2 0x262C JUMP JUMPDEST SWAP3 SWAP2 POP POP JUMP JUMPDEST PUSH1 0x0 PUSH1 0x20 DUP3 ADD SWAP1 POP PUSH2 0x2880 PUSH1 0x0 DUP4 ADD DUP5 PUSH2 0x264A JUMP JUMPDEST SWAP3 SWAP2 POP POP JUMP JUMPDEST PUSH1 0x0 PUSH1 0x40 DUP3 ADD SWAP1 POP PUSH2 0x289B PUSH1 0x0 DUP4 ADD DUP6 PUSH2 0x264A JUMP JUMPDEST PUSH2 0x28A8 PUSH1 0x20 DUP4 ADD DUP5 PUSH2 0x2566 JUMP JUMPDEST SWAP4 SWAP3 POP POP POP JUMP JUMPDEST PUSH1 0x0 PUSH1 0x20 DUP3 ADD SWAP1 POP PUSH2 0x28C4 PUSH1 0x0 DUP4 ADD DUP5 PUSH2 0x2677 JUMP JUMPDEST SWAP3 SWAP2 POP POP JUMP JUMPDEST PUSH1 0x0 PUSH1 0x20 DUP3 ADD SWAP1 POP PUSH2 0x28DF PUSH1 0x0 DUP4 ADD DUP5 PUSH2 0x2766 JUMP JUMPDEST SWAP3 SWAP2 POP POP JUMP JUMPDEST PUSH1 0x0 PUSH2 0x100 DUP3 ADD SWAP1 POP PUSH2 0x28FB PUSH1 0x0 DUP4 ADD DUP12 PUSH2 0x2766 JUMP JUMPDEST PUSH2 0x2908 PUSH1 0x20 DUP4 ADD DUP11 PUSH2 0x2566 JUMP JUMPDEST PUSH2 0x2915 PUSH1 0x40 DUP4 ADD DUP10 PUSH2 0x2668 JUMP JUMPDEST PUSH2 0x2922 PUSH1 0x60 DUP4 ADD DUP9 PUSH2 0x264A JUMP JUMPDEST PUSH2 0x292F PUSH1 0x80 DUP4 ADD DUP8 PUSH2 0x2766 JUMP JUMPDEST PUSH2 0x293C PUSH1 0xA0 DUP4 ADD DUP7 PUSH2 0x2766 JUMP JUMPDEST PUSH2 0x2949 PUSH1 0xC0 DUP4 ADD DUP6 PUSH2 0x2766 JUMP JUMPDEST PUSH2 0x2956 PUSH1 0xE0 DUP4 ADD DUP5 PUSH2 0x2766 JUMP JUMPDEST SWAP10 SWAP9 POP POP POP POP POP POP POP POP POP JUMP JUMPDEST PUSH1 0x0 PUSH1 0xA0 DUP3 ADD SWAP1 POP PUSH2 0x2978 PUSH1 0x0 DUP4 ADD DUP9 PUSH2 0x2766 JUMP JUMPDEST PUSH2 0x2985 PUSH1 0x20 DUP4 ADD DUP8 PUSH2 0x2766 JUMP JUMPDEST PUSH2 0x2992 PUSH1 0x40 DUP4 ADD DUP7 PUSH2 0x2766 JUMP JUMPDEST PUSH2 0x299F PUSH1 0x60 DUP4 ADD DUP6 PUSH2 0x2766 JUMP JUMPDEST PUSH2 0x29AC PUSH1 0x80 DUP4 ADD DUP5 PUSH2 0x2766 JUMP JUMPDEST SWAP7 SWAP6 POP POP POP POP POP POP JUMP JUMPDEST PUSH1 0x0 PUSH1 0x20 DUP3 ADD SWAP1 POP SWAP2 SWAP1 POP JUMP JUMPDEST PUSH1 0x0 PUSH1 0x20 DUP3 ADD SWAP1 POP SWAP2 SWAP1 POP JUMP JUMPDEST PUSH1 0x0 DUP2 MLOAD SWAP1 POP SWAP2 SWAP1 POP JUMP JUMPDEST PUSH1 0x0 DUP2 MLOAD SWAP1 POP SWAP2 SWAP1 POP JUMP JUMPDEST PUSH1 0x0 PUSH1 0x20 DUP3 ADD SWAP1 POP SWAP2 SWAP1 POP JUMP JUMPDEST PUSH1 0x0 PUSH1 0x20 DUP3 ADD SWAP1 POP SWAP2 SWAP1 POP JUMP JUMPDEST PUSH1 0x0 PUSH2 0x2A0B DUP3 PUSH2 0x2A4B JUMP JUMPDEST SWAP1 POP SWAP2 SWAP1 POP JUMP JUMPDEST PUSH1 0x0 DUP2 ISZERO ISZERO SWAP1 POP SWAP2 SWAP1 POP JUMP JUMPDEST PUSH1 0x0 DUP2 SWAP1 POP SWAP2 SWAP1 POP JUMP JUMPDEST PUSH1 0x0 PUSH1 0x2 DUP3 LT ISZERO ISZERO PUSH2 0x2A36 JUMPI INVALID JUMPDEST DUP2 SWAP1 POP SWAP2 SWAP1 POP JUMP JUMPDEST PUSH1 0x0 DUP2 PUSH1 0xF SIGNEXTEND SWAP1 POP SWAP2 SWAP1 POP JUMP JUMPDEST PUSH1 0x0 PUSH20 0xFFFFFFFFFFFFFFFFFFFFFFFFFFFFFFFFFFFFFFFF DUP3 AND SWAP1 POP SWAP2 SWAP1 POP JUMP JUMPDEST PUSH1 0x0 DUP2 SWAP1 POP SWAP2 SWAP1 POP JUMP JUMPDEST PUSH1 0x0 PUSH2 0x2A80 DUP3 PUSH2 0x2A4B JUMP JUMPDEST SWAP1 POP SWAP2 SWAP1 POP JUMP JUMPDEST PUSH1 0x0 DUP2 ISZERO ISZERO SWAP1 POP SWAP2 SWAP1 POP JUMP JUMPDEST PUSH1 0x0 DUP2 SWAP1 POP SWAP2 SWAP1 POP JUMP JUMPDEST PUSH1 0x0 PUSH1 0x2 DUP3 LT ISZERO ISZERO PUSH2 0x2AAE JUMPI PUSH1 0x0 DUP1 REVERT JUMPDEST DUP2 SWAP1 POP SWAP2 SWAP1 POP JUMP JUMPDEST PUSH1 0x0 DUP2 SWAP1 POP SWAP2 SWAP1 POP JUMP JUMPDEST PUSH1 0x0 PUSH2 0x2ACB DUP3 PUSH2 0x2AE4 JUMP JUMPDEST SWAP1 POP SWAP2 SWAP1 POP JUMP JUMPDEST PUSH1 0x0 PUSH2 0x2ADD DUP3 PUSH2 0x2A28 JUMP JUMPDEST SWAP1 POP SWAP2 SWAP1 POP JUMP JUMPDEST PUSH1 0x0 PUSH2 0x2AEF DUP3 PUSH2 0x2AF6 JUMP JUMPDEST SWAP1 POP SWAP2 SWAP1 POP JUMP JUMPDEST PUSH1 0x0 PUSH2 0x2B01 DUP3 PUSH2 0x2A4B JUMP JUMPDEST SWAP1 POP SWAP2 SWAP1 POP JUMP INVALID LOG2 PUSH6 0x627A7A723058 KECCAK256 0xd4 0xc9 DUP14 0xd9 BYTE PUSH23 0x87CA4EAADE145019CEE5F763FF5165CA61C0A70BEAFD3C SWAP2 SGT DELEGATECALL PUSH13 0x6578706572696D656E74616CF5 STOP CALLDATACOPY "
		},
		"gasEstimates": {
			"creation": {
				"codeDepositCost": "2214800",
				"executionCost": "2368",
				"totalCost": "2217168"
			},
			"external": {
				"addToken(bytes32,address)": "infinite",
				"allBuyBooks(bytes32)": "902",
				"allOrders(uint256)": "1151",
				"allSellBooks(bytes32)": "945",
				"contains_token(bytes32)": "938",
				"deleteLimitOrder(uint256,bytes32,uint8)": "infinite",
				"deposit(uint256,bytes32)": "infinite",
				"getNextID()": "610",
				"getOrders(bytes32,uint8)": "infinite",
				"getTokens()": "infinite",
				"id_ticker()": "646",
				"makeLimitOrder(bytes32,uint256,uint256,uint8)": "infinite",
				"makeMarketOrder(bytes32,uint256,uint8)": "infinite",
				"market_order_ticker()": "579",
				"orders(uint256)": "infinite",
				"tokenList(uint256)": "1086",
				"tokens(bytes32)": "1340",
				"trade_ticker()": "557",
				"traderBalances(address,bytes32)": "1118",
				"withdraw(uint256,bytes32)": "infinite"
			}
		},
		"methodIdentifiers": {
			"addToken(bytes32,address)": "9776aacf",
			"allBuyBooks(bytes32)": "1238fcf0",
			"allOrders(uint256)": "eb5945e4",
			"allSellBooks(bytes32)": "a56cce46",
			"contains_token(bytes32)": "8ac39371",
			"deleteLimitOrder(uint256,bytes32,uint8)": "17aa080c",
			"deposit(uint256,bytes32)": "c9630cb0",
			"getNextID()": "2b0b086e",
			"getOrders(bytes32,uint8)": "46e9658b",
			"getTokens()": "aa6ca808",
			"id_ticker()": "5e74e17a",
			"makeLimitOrder(bytes32,uint256,uint256,uint8)": "da28bd5c",
			"makeMarketOrder(bytes32,uint256,uint8)": "be2a296b",
			"market_order_ticker()": "653a839e",
			"orders(uint256)": "a85c38ef",
			"tokenList(uint256)": "9ead7222",
			"tokens(bytes32)": "904194a3",
			"trade_ticker()": "5f697363",
			"traderBalances(address,bytes32)": "72ce957e",
			"withdraw(uint256,bytes32)": "a8d2021a"
		}
	},
	"abi": [
		{
			"constant": true,
			"inputs": [
				{
					"name": "",
					"type": "bytes32"
				}
			],
			"name": "allBuyBooks",
			"outputs": [
				{
					"name": "idCount",
					"type": "int128"
				}
			],
			"payable": false,
			"stateMutability": "view",
			"type": "function"
		},
		{
			"constant": false,
			"inputs": [
				{
					"name": "id",
					"type": "uint256"
				},
				{
					"name": "ticker",
					"type": "bytes32"
				},
				{
					"name": "side",
					"type": "uint8"
				}
			],
			"name": "deleteLimitOrder",
			"outputs": [
				{
					"name": "",
					"type": "bool"
				}
			],
			"payable": false,
			"stateMutability": "nonpayable",
			"type": "function"
		},
		{
			"constant": false,
			"inputs": [],
			"name": "getNextID",
			"outputs": [
				{
					"name": "",
					"type": "uint256"
				}
			],
			"payable": false,
			"stateMutability": "nonpayable",
			"type": "function"
		},
		{
			"constant": true,
			"inputs": [
				{
					"name": "ticker",
					"type": "bytes32"
				},
				{
					"name": "side",
					"type": "uint8"
				}
			],
			"name": "getOrders",
			"outputs": [
				{
					"components": [
						{
							"name": "id",
							"type": "uint256"
						},
						{
							"name": "trader",
							"type": "address"
						},
						{
							"name": "side",
							"type": "uint8"
						},
						{
							"name": "ticker",
							"type": "bytes32"
						},
						{
							"name": "amount",
							"type": "uint256"
						},
						{
							"name": "filled",
							"type": "uint256"
						},
						{
							"name": "price",
							"type": "uint256"
						},
						{
							"name": "date",
							"type": "uint256"
						}
					],
					"name": "",
					"type": "tuple[]"
				}
			],
			"payable": false,
			"stateMutability": "view",
			"type": "function"
		},
		{
			"constant": true,
			"inputs": [],
			"name": "id_ticker",
			"outputs": [
				{
					"name": "",
					"type": "uint256"
				}
			],
			"payable": false,
			"stateMutability": "view",
			"type": "function"
		},
		{
			"constant": true,
			"inputs": [],
			"name": "trade_ticker",
			"outputs": [
				{
					"name": "",
					"type": "uint256"
				}
			],
			"payable": false,
			"stateMutability": "view",
			"type": "function"
		},
		{
			"constant": true,
			"inputs": [],
			"name": "market_order_ticker",
			"outputs": [
				{
					"name": "",
					"type": "uint256"
				}
			],
			"payable": false,
			"stateMutability": "view",
			"type": "function"
		},
		{
			"constant": true,
			"inputs": [
				{
					"name": "",
					"type": "address"
				},
				{
					"name": "",
					"type": "bytes32"
				}
			],
			"name": "traderBalances",
			"outputs": [
				{
					"name": "",
					"type": "uint256"
				}
			],
			"payable": false,
			"stateMutability": "view",
			"type": "function"
		},
		{
			"constant": true,
			"inputs": [
				{
					"name": "",
					"type": "bytes32"
				}
			],
			"name": "contains_token",
			"outputs": [
				{
					"name": "",
					"type": "bool"
				}
			],
			"payable": false,
			"stateMutability": "view",
			"type": "function"
		},
		{
			"constant": true,
			"inputs": [
				{
					"name": "",
					"type": "bytes32"
				}
			],
			"name": "tokens",
			"outputs": [
				{
					"name": "ticker",
					"type": "bytes32"
				},
				{
					"name": "tokenAddress",
					"type": "address"
				}
			],
			"payable": false,
			"stateMutability": "view",
			"type": "function"
		},
		{
			"constant": false,
			"inputs": [
				{
					"name": "ticker",
					"type": "bytes32"
				},
				{
					"name": "tokenAddress",
					"type": "address"
				}
			],
			"name": "addToken",
			"outputs": [],
			"payable": false,
			"stateMutability": "nonpayable",
			"type": "function"
		},
		{
			"constant": true,
			"inputs": [
				{
					"name": "",
					"type": "uint256"
				}
			],
			"name": "tokenList",
			"outputs": [
				{
					"name": "",
					"type": "bytes32"
				}
			],
			"payable": false,
			"stateMutability": "view",
			"type": "function"
		},
		{
			"constant": true,
			"inputs": [
				{
					"name": "",
					"type": "bytes32"
				}
			],
			"name": "allSellBooks",
			"outputs": [
				{
					"name": "idCount",
					"type": "int128"
				}
			],
			"payable": false,
			"stateMutability": "view",
			"type": "function"
		},
		{
			"constant": true,
			"inputs": [
				{
					"name": "",
					"type": "uint256"
				}
			],
			"name": "orders",
			"outputs": [
				{
					"name": "id",
					"type": "uint256"
				},
				{
					"name": "trader",
					"type": "address"
				},
				{
					"name": "side",
					"type": "uint8"
				},
				{
					"name": "ticker",
					"type": "bytes32"
				},
				{
					"name": "amount",
					"type": "uint256"
				},
				{
					"name": "filled",
					"type": "uint256"
				},
				{
					"name": "price",
					"type": "uint256"
				},
				{
					"name": "date",
					"type": "uint256"
				}
			],
			"payable": false,
			"stateMutability": "view",
			"type": "function"
		},
		{
			"constant": false,
			"inputs": [
				{
					"name": "amount",
					"type": "uint256"
				},
				{
					"name": "ticker",
					"type": "bytes32"
				}
			],
			"name": "withdraw",
			"outputs": [],
			"payable": false,
			"stateMutability": "nonpayable",
			"type": "function"
		},
		{
			"constant": true,
			"inputs": [],
			"name": "getTokens",
			"outputs": [
				{
					"components": [
						{
							"name": "ticker",
							"type": "bytes32"
						},
						{
							"name": "tokenAddress",
							"type": "address"
						}
					],
					"name": "",
					"type": "tuple[]"
				}
			],
			"payable": false,
			"stateMutability": "view",
			"type": "function"
		},
		{
			"constant": false,
			"inputs": [
				{
					"name": "ticker",
					"type": "bytes32"
				},
				{
					"name": "amount",
					"type": "uint256"
				},
				{
					"name": "side",
					"type": "uint8"
				}
			],
			"name": "makeMarketOrder",
			"outputs": [],
			"payable": false,
			"stateMutability": "nonpayable",
			"type": "function"
		},
		{
			"constant": false,
			"inputs": [
				{
					"name": "amount",
					"type": "uint256"
				},
				{
					"name": "ticker",
					"type": "bytes32"
				}
			],
			"name": "deposit",
			"outputs": [],
			"payable": false,
			"stateMutability": "nonpayable",
			"type": "function"
		},
		{
			"constant": false,
			"inputs": [
				{
					"name": "ticker",
					"type": "bytes32"
				},
				{
					"name": "amount",
					"type": "uint256"
				},
				{
					"name": "price",
					"type": "uint256"
				},
				{
					"name": "side",
					"type": "uint8"
				}
			],
			"name": "makeLimitOrder",
			"outputs": [],
			"payable": false,
			"stateMutability": "nonpayable",
			"type": "function"
		},
		{
			"constant": true,
			"inputs": [
				{
					"name": "",
					"type": "uint256"
				}
			],
			"name": "allOrders",
			"outputs": [
				{
					"name": "",
					"type": "uint256"
				}
			],
			"payable": false,
			"stateMutability": "view",
			"type": "function"
		},
		{
			"anonymous": false,
			"inputs": [
				{
					"indexed": false,
					"name": "tradeId",
					"type": "uint256"
				},
				{
					"indexed": false,
					"name": "orderId",
					"type": "uint256"
				},
				{
					"indexed": true,
					"name": "ticker",
					"type": "bytes32"
				},
				{
					"indexed": true,
					"name": "trader1",
					"type": "address"
				},
				{
					"indexed": true,
					"name": "trader2",
					"type": "address"
				},
				{
					"indexed": false,
					"name": "amount",
					"type": "uint256"
				},
				{
					"indexed": false,
					"name": "price",
					"type": "uint256"
				},
				{
					"indexed": false,
					"name": "date",
					"type": "uint256"
				}
			],
			"name": "NewTrade",
			"type": "event"
		}
	]
}