{
	"data": {
		"bytecode": {
			"linkReferences": {},
			"object": "608060405234801561001057600080fd5b5061002e60006100336401000000000261077c176401000000009004565b610116565b600081600101805490501415610113578060010160408051908101604052806000600f0b81526020016000600f0b81525090806001815401808255809150509060018203906000526020600020016000909192909190915060008201518160000160006101000a8154816fffffffffffffffffffffffffffffffff0219169083600f0b6fffffffffffffffffffffffffffffffff16021790555060208201518160000160106101000a8154816fffffffffffffffffffffffffffffffff0219169083600f0b6fffffffffffffffffffffffffffffffff1602179055505050505b50565b6111c6806101256000396000f3006080604052600436106100ba576000357c0100000000000000000000000000000000000000000000000000000000900463ffffffff16806326207bd1146100bf5780632d883a73146100fc5780633075f5521461013957806373d4a13a146101645780637f671c1b1461018f5780638860805a146101cc578063949d225d146101f7578063ddc86af614610222578063e43305451461025f578063e6e462381461028a578063f12a15b1146102b5578063f6f7301e146102de575b600080fd5b3480156100cb57600080fd5b506100e660048036036100e19190810190610f48565b61031b565b6040516100f391906110c9565b60405180910390f35b34801561010857600080fd5b50610123600480360361011e9190810190610f71565b610340565b60405161013091906110ae565b60405180910390f35b34801561014557600080fd5b5061014e610363565b60405161015b91906110ae565b60405180910390f35b34801561017057600080fd5b5061017961037a565b6040516101869190611093565b60405180910390f35b34801561019b57600080fd5b506101b660048036036101b19190810190610f48565b610393565b6040516101c391906110ae565b60405180910390f35b3480156101d857600080fd5b506101e16103b6565b6040516101ee91906110ae565b60405180910390f35b34801561020357600080fd5b5061020c6103cd565b60405161021991906110c9565b60405180910390f35b34801561022e57600080fd5b5061024960048036036102449190810190610f48565b6103de565b60405161025691906110ae565b60405180910390f35b34801561026b57600080fd5b50610274610401565b6040516102819190611071565b60405180910390f35b34801561029657600080fd5b5061029f610412565b6040516102ac9190611093565b60405180910390f35b3480156102c157600080fd5b506102dc60048036036102d79190810190610f07565b61042b565b005b3480156102ea57600080fd5b5061030560048036036103009190810190610f48565b610474565b60405161031291906110ae565b60405180910390f35b600080600201600083600f0b600f0b8152602001908152602001600020549050919050565b610348610da9565b61035c82600061049790919063ffffffff16565b9050919050565b61036b610da9565b6103756000610538565b905090565b60008060000160009054906101000a9004600f0b905081565b61039b610da9565b6103af82600061055290919063ffffffff16565b9050919050565b6103be610da9565b6103c86000610635565b905090565b60006103d9600061064f565b905090565b6103e6610da9565b6103fa82600061067990919063ffffffff16565b9050919050565b606061040d60006106ae565b905090565b60008060000160009054906101000a9004600f0b905090565b60005b815181101561047057610462828281518110151561044857fe5b90602001906020020151600061055290919063ffffffff16565b50808060010191505061042e565b5050565b61047c610da9565b61049082600061074790919063ffffffff16565b9050919050565b61049f610da9565b818360010180549050116104cf5760408051908101604052806000600f0b81526020016000600f0b815250610530565b82600101828154811015156104e057fe5b906000526020600020016040805190810160405290816000820160009054906101000a9004600f0b600f0b600f0b81526020016000820160109054906101000a9004600f0b600f0b600f0b815250505b905092915050565b610540610da9565b61054b826001610497565b9050919050565b61055a610da9565b610562610da9565b60008460010180549050141561057c5761057b8461077c565b5b83600001600081819054906101000a9004600f0b8092919060010191906101000a8154816fffffffffffffffffffffffffffffffff0219169083600f0b6fffffffffffffffffffffffffffffffff160217905550508360010180548091906001016105e79190610dc9565b5060408051908101604052808560000160009054906101000a9004600f0b600f0b815260200184600f0b815250905061062b8482600187600101805490500361085f565b8091505092915050565b61063d610da9565b610648826001610957565b9050919050565b600080826001018054905011610666576000610672565b60018260010180549050035b9050919050565b610681610da9565b6106a68384600201600085600f0b600f0b815260200190815260200160002054610957565b905092915050565b606081600101805480602002602001604051908101604052809291908181526020016000905b8282101561073c578382906000526020600020016040805190810160405290816000820160009054906101000a9004600f0b600f0b600f0b81526020016000820160109054906101000a9004600f0b600f0b600f0b81525050815260200190600101906106d4565b505050509050919050565b61074f610da9565b6107748384600201600085600f0b600f0b815260200190815260200160002054610497565b905092915050565b60008160010180549050141561085c578060010160408051908101604052806000600f0b81526020016000600f0b81525090806001815401808255809150509060018203906000526020600020016000909192909190915060008201518160000160006101000a8154816fffffffffffffffffffffffffffffffff0219169083600f0b6fffffffffffffffffffffffffffffffff16021790555060208201518160000160106101000a8154816fffffffffffffffffffffffffffffffff0219169083600f0b6fffffffffffffffffffffffffffffffff1602179055505050505b50565b60018114806108af57508260010160028281151561087957fe5b0481548110151561088657fe5b9060005260206000200160000160109054906101000a9004600f0b600f0b8260200151600f0b13155b156108c4576108bf838383610b49565b610952565b61093a83846001016002848115156108d857fe5b048154811015156108e557fe5b906000526020600020016040805190810160405290816000820160009054906101000a9004600f0b600f0b600f0b81526020016000820160109054906101000a9004600f0b600f0b600f0b8152505083610b49565b610951838360028481151561094b57fe5b0461085f565b5b505050565b61095f610da9565b610967610da9565b61096f610da9565b838560010180549050111580610986575060008411155b156109af5760408051908101604052806000600f0b81526020016000600f0b8152509250610b41565b84600101848154811015156109c057fe5b906000526020600020016040805190810160405290816000820160009054906101000a9004600f0b600f0b600f0b81526020016000820160109054906101000a9004600f0b600f0b600f0b8152505091508460020160008360000151600f0b600f0b815260200190815260200160002060009055846001016001866001018054905003815481101515610a4f57fe5b906000526020600020016040805190810160405290816000820160009054906101000a9004600f0b600f0b600f0b81526020016000820160109054906101000a9004600f0b600f0b600f0b81525050905084600101805480919060019003610ab79190610dc9565b508460010180549050841015610b3d57610ad285828661085f565b610b3c858660010186815481101515610ae757fe5b906000526020600020016040805190810160405290816000820160009054906101000a9004600f0b600f0b600f0b81526020016000820160109054906101000a9004600f0b600f0b600f0b8152505086610c15565b5b8192505b505092915050565b818360010182815481101515610b5b57fe5b9060005260206000200160008201518160000160006101000a8154816fffffffffffffffffffffffffffffffff0219169083600f0b6fffffffffffffffffffffffffffffffff16021790555060208201518160000160106101000a8154816fffffffffffffffffffffffffffffffff0219169083600f0b6fffffffffffffffffffffffffffffffff160217905550905050808360020160008460000151600f0b600f0b815260200190815260200160002081905550505050565b600080610c20610da9565b856001018054905092506002840291508183111515610c4957610c44868686610b49565b610da1565b8560010182815481101515610c5a57fe5b906000526020600020016040805190810160405290816000820160009054906101000a9004600f0b600f0b600f0b81526020016000820160109054906101000a9004600f0b600f0b600f0b8152505090506001820183118015610cf457508060200151600f0b8660010160018401815481101515610cd457fe5b9060005260206000200160000160109054906101000a9004600f0b600f0b135b15610d62578560010182600101925082815481101515610d1057fe5b906000526020600020016040805190810160405290816000820160009054906101000a9004600f0b600f0b600f0b81526020016000820160109054906101000a9004600f0b600f0b600f0b8152505090505b8460200151600f0b8160200151600f0b131515610d8957610d84868686610b49565b610da0565b610d94868286610b49565b610d9f868684610c15565b5b5b505050505050565b60408051908101604052806000600f0b81526020016000600f0b81525090565b815481835581811115610df057818360005260206000209182019101610def9190610df5565b5b505050565b610e5791905b80821115610e5357600080820160006101000a8154906fffffffffffffffffffffffffffffffff02191690556000820160106101000a8154906fffffffffffffffffffffffffffffffff021916905550600101610dfb565b5090565b90565b600082601f8301121515610e6d57600080fd5b8135610e80610e7b82611111565b6110e4565b91508181835260208401935060208101905083856020840282011115610ea557600080fd5b60005b83811015610ed55781610ebb8882610edf565b845260208401935060208301925050600181019050610ea8565b5050505092915050565b6000610eeb8235611175565b905092915050565b6000610eff8235611182565b905092915050565b600060208284031215610f1957600080fd5b600082013567ffffffffffffffff811115610f3357600080fd5b610f3f84828501610e5a565b91505092915050565b600060208284031215610f5a57600080fd5b6000610f6884828501610edf565b91505092915050565b600060208284031215610f8357600080fd5b6000610f9184828501610ef3565b91505092915050565b6000610fa582611146565b808452602084019350610fb783611139565b60005b82811015610fe957610fcd868351611033565b610fd682611151565b9150604086019550600181019050610fba565b50849250505092915050565b610ffe8161115e565b82525050565b60408201600082015161101a6000850182610ff5565b50602082015161102d6020850182610ff5565b50505050565b6040820160008201516110496000850182610ff5565b50602082015161105c6020850182610ff5565b50505050565b61106b8161116b565b82525050565b6000602082019050818103600083015261108b8184610f9a565b905092915050565b60006020820190506110a86000830184610ff5565b92915050565b60006040820190506110c36000830184611004565b92915050565b60006020820190506110de6000830184611062565b92915050565b6000604051905081810181811067ffffffffffffffff8211171561110757600080fd5b8060405250919050565b600067ffffffffffffffff82111561112857600080fd5b602082029050602081019050919050565b6000602082019050919050565b600081519050919050565b6000602082019050919050565b600081600f0b9050919050565b6000819050919050565b600081600f0b9050919050565b60008190509190505600a265627a7a7230582046f998b0a22a153eb4472e6a784ca4a22aaf2d99e950e770224af506472965396c6578706572696d656e74616cf50037",
			"opcodes": "PUSH1 0x80 PUSH1 0x40 MSTORE CALLVALUE DUP1 ISZERO PUSH2 0x10 JUMPI PUSH1 0x0 DUP1 REVERT JUMPDEST POP PUSH2 0x2E PUSH1 0x0 PUSH2 0x33 PUSH5 0x100000000 MUL PUSH2 0x77C OR PUSH5 0x100000000 SWAP1 DIV JUMP JUMPDEST PUSH2 0x116 JUMP JUMPDEST PUSH1 0x0 DUP2 PUSH1 0x1 ADD DUP1 SLOAD SWAP1 POP EQ ISZERO PUSH2 0x113 JUMPI DUP1 PUSH1 0x1 ADD PUSH1 0x40 DUP1 MLOAD SWAP1 DUP2 ADD PUSH1 0x40 MSTORE DUP1 PUSH1 0x0 PUSH1 0xF SIGNEXTEND DUP2 MSTORE PUSH1 0x20 ADD PUSH1 0x0 PUSH1 0xF SIGNEXTEND DUP2 MSTORE POP SWAP1 DUP1 PUSH1 0x1 DUP2 SLOAD ADD DUP1 DUP3 SSTORE DUP1 SWAP2 POP POP SWAP1 PUSH1 0x1 DUP3 SUB SWAP1 PUSH1 0x0 MSTORE PUSH1 0x20 PUSH1 0x0 KECCAK256 ADD PUSH1 0x0 SWAP1 SWAP2 SWAP3 SWAP1 SWAP2 SWAP1 SWAP2 POP PUSH1 0x0 DUP3 ADD MLOAD DUP2 PUSH1 0x0 ADD PUSH1 0x0 PUSH2 0x100 EXP DUP2 SLOAD DUP2 PUSH16 0xFFFFFFFFFFFFFFFFFFFFFFFFFFFFFFFF MUL NOT AND SWAP1 DUP4 PUSH1 0xF SIGNEXTEND PUSH16 0xFFFFFFFFFFFFFFFFFFFFFFFFFFFFFFFF AND MUL OR SWAP1 SSTORE POP PUSH1 0x20 DUP3 ADD MLOAD DUP2 PUSH1 0x0 ADD PUSH1 0x10 PUSH2 0x100 EXP DUP2 SLOAD DUP2 PUSH16 0xFFFFFFFFFFFFFFFFFFFFFFFFFFFFFFFF MUL NOT AND SWAP1 DUP4 PUSH1 0xF SIGNEXTEND PUSH16 0xFFFFFFFFFFFFFFFFFFFFFFFFFFFFFFFF AND MUL OR SWAP1 SSTORE POP POP POP POP JUMPDEST POP JUMP JUMPDEST PUSH2 0x11C6 DUP1 PUSH2 0x125 PUSH1 0x0 CODECOPY PUSH1 0x0 RETURN STOP PUSH1 0x80 PUSH1 0x40 MSTORE PUSH1 0x4 CALLDATASIZE LT PUSH2 0xBA JUMPI PUSH1 0x0 CALLDATALOAD PUSH29 0x100000000000000000000000000000000000000000000000000000000 SWAP1 DIV PUSH4 0xFFFFFFFF AND DUP1 PUSH4 0x26207BD1 EQ PUSH2 0xBF JUMPI DUP1 PUSH4 0x2D883A73 EQ PUSH2 0xFC JUMPI DUP1 PUSH4 0x3075F552 EQ PUSH2 0x139 JUMPI DUP1 PUSH4 0x73D4A13A EQ PUSH2 0x164 JUMPI DUP1 PUSH4 0x7F671C1B EQ PUSH2 0x18F JUMPI DUP1 PUSH4 0x8860805A EQ PUSH2 0x1CC JUMPI DUP1 PUSH4 0x949D225D EQ PUSH2 0x1F7 JUMPI DUP1 PUSH4 0xDDC86AF6 EQ PUSH2 0x222 JUMPI DUP1 PUSH4 0xE4330545 EQ PUSH2 0x25F JUMPI DUP1 PUSH4 0xE6E46238 EQ PUSH2 0x28A JUMPI DUP1 PUSH4 0xF12A15B1 EQ PUSH2 0x2B5 JUMPI DUP1 PUSH4 0xF6F7301E EQ PUSH2 0x2DE JUMPI JUMPDEST PUSH1 0x0 DUP1 REVERT JUMPDEST CALLVALUE DUP1 ISZERO PUSH2 0xCB JUMPI PUSH1 0x0 DUP1 REVERT JUMPDEST POP PUSH2 0xE6 PUSH1 0x4 DUP1 CALLDATASIZE SUB PUSH2 0xE1 SWAP2 SWAP1 DUP2 ADD SWAP1 PUSH2 0xF48 JUMP JUMPDEST PUSH2 0x31B JUMP JUMPDEST PUSH1 0x40 MLOAD PUSH2 0xF3 SWAP2 SWAP1 PUSH2 0x10C9 JUMP JUMPDEST PUSH1 0x40 MLOAD DUP1 SWAP2 SUB SWAP1 RETURN JUMPDEST CALLVALUE DUP1 ISZERO PUSH2 0x108 JUMPI PUSH1 0x0 DUP1 REVERT JUMPDEST POP PUSH2 0x123 PUSH1 0x4 DUP1 CALLDATASIZE SUB PUSH2 0x11E SWAP2 SWAP1 DUP2 ADD SWAP1 PUSH2 0xF71 JUMP JUMPDEST PUSH2 0x340 JUMP JUMPDEST PUSH1 0x40 MLOAD PUSH2 0x130 SWAP2 SWAP1 PUSH2 0x10AE JUMP JUMPDEST PUSH1 0x40 MLOAD DUP1 SWAP2 SUB SWAP1 RETURN JUMPDEST CALLVALUE DUP1 ISZERO PUSH2 0x145 JUMPI PUSH1 0x0 DUP1 REVERT JUMPDEST POP PUSH2 0x14E PUSH2 0x363 JUMP JUMPDEST PUSH1 0x40 MLOAD PUSH2 0x15B SWAP2 SWAP1 PUSH2 0x10AE JUMP JUMPDEST PUSH1 0x40 MLOAD DUP1 SWAP2 SUB SWAP1 RETURN JUMPDEST CALLVALUE DUP1 ISZERO PUSH2 0x170 JUMPI PUSH1 0x0 DUP1 REVERT JUMPDEST POP PUSH2 0x179 PUSH2 0x37A JUMP JUMPDEST PUSH1 0x40 MLOAD PUSH2 0x186 SWAP2 SWAP1 PUSH2 0x1093 JUMP JUMPDEST PUSH1 0x40 MLOAD DUP1 SWAP2 SUB SWAP1 RETURN JUMPDEST CALLVALUE DUP1 ISZERO PUSH2 0x19B JUMPI PUSH1 0x0 DUP1 REVERT JUMPDEST POP PUSH2 0x1B6 PUSH1 0x4 DUP1 CALLDATASIZE SUB PUSH2 0x1B1 SWAP2 SWAP1 DUP2 ADD SWAP1 PUSH2 0xF48 JUMP JUMPDEST PUSH2 0x393 JUMP JUMPDEST PUSH1 0x40 MLOAD PUSH2 0x1C3 SWAP2 SWAP1 PUSH2 0x10AE JUMP JUMPDEST PUSH1 0x40 MLOAD DUP1 SWAP2 SUB SWAP1 RETURN JUMPDEST CALLVALUE DUP1 ISZERO PUSH2 0x1D8 JUMPI PUSH1 0x0 DUP1 REVERT JUMPDEST POP PUSH2 0x1E1 PUSH2 0x3B6 JUMP JUMPDEST PUSH1 0x40 MLOAD PUSH2 0x1EE SWAP2 SWAP1 PUSH2 0x10AE JUMP JUMPDEST PUSH1 0x40 MLOAD DUP1 SWAP2 SUB SWAP1 RETURN JUMPDEST CALLVALUE DUP1 ISZERO PUSH2 0x203 JUMPI PUSH1 0x0 DUP1 REVERT JUMPDEST POP PUSH2 0x20C PUSH2 0x3CD JUMP JUMPDEST PUSH1 0x40 MLOAD PUSH2 0x219 SWAP2 SWAP1 PUSH2 0x10C9 JUMP JUMPDEST PUSH1 0x40 MLOAD DUP1 SWAP2 SUB SWAP1 RETURN JUMPDEST CALLVALUE DUP1 ISZERO PUSH2 0x22E JUMPI PUSH1 0x0 DUP1 REVERT JUMPDEST POP PUSH2 0x249 PUSH1 0x4 DUP1 CALLDATASIZE SUB PUSH2 0x244 SWAP2 SWAP1 DUP2 ADD SWAP1 PUSH2 0xF48 JUMP JUMPDEST PUSH2 0x3DE JUMP JUMPDEST PUSH1 0x40 MLOAD PUSH2 0x256 SWAP2 SWAP1 PUSH2 0x10AE JUMP JUMPDEST PUSH1 0x40 MLOAD DUP1 SWAP2 SUB SWAP1 RETURN JUMPDEST CALLVALUE DUP1 ISZERO PUSH2 0x26B JUMPI PUSH1 0x0 DUP1 REVERT JUMPDEST POP PUSH2 0x274 PUSH2 0x401 JUMP JUMPDEST PUSH1 0x40 MLOAD PUSH2 0x281 SWAP2 SWAP1 PUSH2 0x1071 JUMP JUMPDEST PUSH1 0x40 MLOAD DUP1 SWAP2 SUB SWAP1 RETURN JUMPDEST CALLVALUE DUP1 ISZERO PUSH2 0x296 JUMPI PUSH1 0x0 DUP1 REVERT JUMPDEST POP PUSH2 0x29F PUSH2 0x412 JUMP JUMPDEST PUSH1 0x40 MLOAD PUSH2 0x2AC SWAP2 SWAP1 PUSH2 0x1093 JUMP JUMPDEST PUSH1 0x40 MLOAD DUP1 SWAP2 SUB SWAP1 RETURN JUMPDEST CALLVALUE DUP1 ISZERO PUSH2 0x2C1 JUMPI PUSH1 0x0 DUP1 REVERT JUMPDEST POP PUSH2 0x2DC PUSH1 0x4 DUP1 CALLDATASIZE SUB PUSH2 0x2D7 SWAP2 SWAP1 DUP2 ADD SWAP1 PUSH2 0xF07 JUMP JUMPDEST PUSH2 0x42B JUMP JUMPDEST STOP JUMPDEST CALLVALUE DUP1 ISZERO PUSH2 0x2EA JUMPI PUSH1 0x0 DUP1 REVERT JUMPDEST POP PUSH2 0x305 PUSH1 0x4 DUP1 CALLDATASIZE SUB PUSH2 0x300 SWAP2 SWAP1 DUP2 ADD SWAP1 PUSH2 0xF48 JUMP JUMPDEST PUSH2 0x474 JUMP JUMPDEST PUSH1 0x40 MLOAD PUSH2 0x312 SWAP2 SWAP1 PUSH2 0x10AE JUMP JUMPDEST PUSH1 0x40 MLOAD DUP1 SWAP2 SUB SWAP1 RETURN JUMPDEST PUSH1 0x0 DUP1 PUSH1 0x2 ADD PUSH1 0x0 DUP4 PUSH1 0xF SIGNEXTEND PUSH1 0xF SIGNEXTEND DUP2 MSTORE PUSH1 0x20 ADD SWAP1 DUP2 MSTORE PUSH1 0x20 ADD PUSH1 0x0 KECCAK256 SLOAD SWAP1 POP SWAP2 SWAP1 POP JUMP JUMPDEST PUSH2 0x348 PUSH2 0xDA9 JUMP JUMPDEST PUSH2 0x35C DUP3 PUSH1 0x0 PUSH2 0x497 SWAP1 SWAP2 SWAP1 PUSH4 0xFFFFFFFF AND JUMP JUMPDEST SWAP1 POP SWAP2 SWAP1 POP JUMP JUMPDEST PUSH2 0x36B PUSH2 0xDA9 JUMP JUMPDEST PUSH2 0x375 PUSH1 0x0 PUSH2 0x538 JUMP JUMPDEST SWAP1 POP SWAP1 JUMP JUMPDEST PUSH1 0x0 DUP1 PUSH1 0x0 ADD PUSH1 0x0 SWAP1 SLOAD SWAP1 PUSH2 0x100 EXP SWAP1 DIV PUSH1 0xF SIGNEXTEND SWAP1 POP DUP2 JUMP JUMPDEST PUSH2 0x39B PUSH2 0xDA9 JUMP JUMPDEST PUSH2 0x3AF DUP3 PUSH1 0x0 PUSH2 0x552 SWAP1 SWAP2 SWAP1 PUSH4 0xFFFFFFFF AND JUMP JUMPDEST SWAP1 POP SWAP2 SWAP1 POP JUMP JUMPDEST PUSH2 0x3BE PUSH2 0xDA9 JUMP JUMPDEST PUSH2 0x3C8 PUSH1 0x0 PUSH2 0x635 JUMP JUMPDEST SWAP1 POP SWAP1 JUMP JUMPDEST PUSH1 0x0 PUSH2 0x3D9 PUSH1 0x0 PUSH2 0x64F JUMP JUMPDEST SWAP1 POP SWAP1 JUMP JUMPDEST PUSH2 0x3E6 PUSH2 0xDA9 JUMP JUMPDEST PUSH2 0x3FA DUP3 PUSH1 0x0 PUSH2 0x679 SWAP1 SWAP2 SWAP1 PUSH4 0xFFFFFFFF AND JUMP JUMPDEST SWAP1 POP SWAP2 SWAP1 POP JUMP JUMPDEST PUSH1 0x60 PUSH2 0x40D PUSH1 0x0 PUSH2 0x6AE JUMP JUMPDEST SWAP1 POP SWAP1 JUMP JUMPDEST PUSH1 0x0 DUP1 PUSH1 0x0 ADD PUSH1 0x0 SWAP1 SLOAD SWAP1 PUSH2 0x100 EXP SWAP1 DIV PUSH1 0xF SIGNEXTEND SWAP1 POP SWAP1 JUMP JUMPDEST PUSH1 0x0 JUMPDEST DUP2 MLOAD DUP2 LT ISZERO PUSH2 0x470 JUMPI PUSH2 0x462 DUP3 DUP3 DUP2 MLOAD DUP2 LT ISZERO ISZERO PUSH2 0x448 JUMPI INVALID JUMPDEST SWAP1 PUSH1 0x20 ADD SWAP1 PUSH1 0x20 MUL ADD MLOAD PUSH1 0x0 PUSH2 0x552 SWAP1 SWAP2 SWAP1 PUSH4 0xFFFFFFFF AND JUMP JUMPDEST POP DUP1 DUP1 PUSH1 0x1 ADD SWAP2 POP POP PUSH2 0x42E JUMP JUMPDEST POP POP JUMP JUMPDEST PUSH2 0x47C PUSH2 0xDA9 JUMP JUMPDEST PUSH2 0x490 DUP3 PUSH1 0x0 PUSH2 0x747 SWAP1 SWAP2 SWAP1 PUSH4 0xFFFFFFFF AND JUMP JUMPDEST SWAP1 POP SWAP2 SWAP1 POP JUMP JUMPDEST PUSH2 0x49F PUSH2 0xDA9 JUMP JUMPDEST DUP2 DUP4 PUSH1 0x1 ADD DUP1 SLOAD SWAP1 POP GT PUSH2 0x4CF JUMPI PUSH1 0x40 DUP1 MLOAD SWAP1 DUP2 ADD PUSH1 0x40 MSTORE DUP1 PUSH1 0x0 PUSH1 0xF SIGNEXTEND DUP2 MSTORE PUSH1 0x20 ADD PUSH1 0x0 PUSH1 0xF SIGNEXTEND DUP2 MSTORE POP PUSH2 0x530 JUMP JUMPDEST DUP3 PUSH1 0x1 ADD DUP3 DUP2 SLOAD DUP2 LT ISZERO ISZERO PUSH2 0x4E0 JUMPI INVALID JUMPDEST SWAP1 PUSH1 0x0 MSTORE PUSH1 0x20 PUSH1 0x0 KECCAK256 ADD PUSH1 0x40 DUP1 MLOAD SWAP1 DUP2 ADD PUSH1 0x40 MSTORE SWAP1 DUP2 PUSH1 0x0 DUP3 ADD PUSH1 0x0 SWAP1 SLOAD SWAP1 PUSH2 0x100 EXP SWAP1 DIV PUSH1 0xF SIGNEXTEND PUSH1 0xF SIGNEXTEND PUSH1 0xF SIGNEXTEND DUP2 MSTORE PUSH1 0x20 ADD PUSH1 0x0 DUP3 ADD PUSH1 0x10 SWAP1 SLOAD SWAP1 PUSH2 0x100 EXP SWAP1 DIV PUSH1 0xF SIGNEXTEND PUSH1 0xF SIGNEXTEND PUSH1 0xF SIGNEXTEND DUP2 MSTORE POP POP JUMPDEST SWAP1 POP SWAP3 SWAP2 POP POP JUMP JUMPDEST PUSH2 0x540 PUSH2 0xDA9 JUMP JUMPDEST PUSH2 0x54B DUP3 PUSH1 0x1 PUSH2 0x497 JUMP JUMPDEST SWAP1 POP SWAP2 SWAP1 POP JUMP JUMPDEST PUSH2 0x55A PUSH2 0xDA9 JUMP JUMPDEST PUSH2 0x562 PUSH2 0xDA9 JUMP JUMPDEST PUSH1 0x0 DUP5 PUSH1 0x1 ADD DUP1 SLOAD SWAP1 POP EQ ISZERO PUSH2 0x57C JUMPI PUSH2 0x57B DUP5 PUSH2 0x77C JUMP JUMPDEST JUMPDEST DUP4 PUSH1 0x0 ADD PUSH1 0x0 DUP2 DUP2 SWAP1 SLOAD SWAP1 PUSH2 0x100 EXP SWAP1 DIV PUSH1 0xF SIGNEXTEND DUP1 SWAP3 SWAP2 SWAP1 PUSH1 0x1 ADD SWAP2 SWAP1 PUSH2 0x100 EXP DUP2 SLOAD DUP2 PUSH16 0xFFFFFFFFFFFFFFFFFFFFFFFFFFFFFFFF MUL NOT AND SWAP1 DUP4 PUSH1 0xF SIGNEXTEND PUSH16 0xFFFFFFFFFFFFFFFFFFFFFFFFFFFFFFFF AND MUL OR SWAP1 SSTORE POP POP DUP4 PUSH1 0x1 ADD DUP1 SLOAD DUP1 SWAP2 SWAP1 PUSH1 0x1 ADD PUSH2 0x5E7 SWAP2 SWAP1 PUSH2 0xDC9 JUMP JUMPDEST POP PUSH1 0x40 DUP1 MLOAD SWAP1 DUP2 ADD PUSH1 0x40 MSTORE DUP1 DUP6 PUSH1 0x0 ADD PUSH1 0x0 SWAP1 SLOAD SWAP1 PUSH2 0x100 EXP SWAP1 DIV PUSH1 0xF SIGNEXTEND PUSH1 0xF SIGNEXTEND DUP2 MSTORE PUSH1 0x20 ADD DUP5 PUSH1 0xF SIGNEXTEND DUP2 MSTORE POP SWAP1 POP PUSH2 0x62B DUP5 DUP3 PUSH1 0x1 DUP8 PUSH1 0x1 ADD DUP1 SLOAD SWAP1 POP SUB PUSH2 0x85F JUMP JUMPDEST DUP1 SWAP2 POP POP SWAP3 SWAP2 POP POP JUMP JUMPDEST PUSH2 0x63D PUSH2 0xDA9 JUMP JUMPDEST PUSH2 0x648 DUP3 PUSH1 0x1 PUSH2 0x957 JUMP JUMPDEST SWAP1 POP SWAP2 SWAP1 POP JUMP JUMPDEST PUSH1 0x0 DUP1 DUP3 PUSH1 0x1 ADD DUP1 SLOAD SWAP1 POP GT PUSH2 0x666 JUMPI PUSH1 0x0 PUSH2 0x672 JUMP JUMPDEST PUSH1 0x1 DUP3 PUSH1 0x1 ADD DUP1 SLOAD SWAP1 POP SUB JUMPDEST SWAP1 POP SWAP2 SWAP1 POP JUMP JUMPDEST PUSH2 0x681 PUSH2 0xDA9 JUMP JUMPDEST PUSH2 0x6A6 DUP4 DUP5 PUSH1 0x2 ADD PUSH1 0x0 DUP6 PUSH1 0xF SIGNEXTEND PUSH1 0xF SIGNEXTEND DUP2 MSTORE PUSH1 0x20 ADD SWAP1 DUP2 MSTORE PUSH1 0x20 ADD PUSH1 0x0 KECCAK256 SLOAD PUSH2 0x957 JUMP JUMPDEST SWAP1 POP SWAP3 SWAP2 POP POP JUMP JUMPDEST PUSH1 0x60 DUP2 PUSH1 0x1 ADD DUP1 SLOAD DUP1 PUSH1 0x20 MUL PUSH1 0x20 ADD PUSH1 0x40 MLOAD SWAP1 DUP2 ADD PUSH1 0x40 MSTORE DUP1 SWAP3 SWAP2 SWAP1 DUP2 DUP2 MSTORE PUSH1 0x20 ADD PUSH1 0x0 SWAP1 JUMPDEST DUP3 DUP3 LT ISZERO PUSH2 0x73C JUMPI DUP4 DUP3 SWAP1 PUSH1 0x0 MSTORE PUSH1 0x20 PUSH1 0x0 KECCAK256 ADD PUSH1 0x40 DUP1 MLOAD SWAP1 DUP2 ADD PUSH1 0x40 MSTORE SWAP1 DUP2 PUSH1 0x0 DUP3 ADD PUSH1 0x0 SWAP1 SLOAD SWAP1 PUSH2 0x100 EXP SWAP1 DIV PUSH1 0xF SIGNEXTEND PUSH1 0xF SIGNEXTEND PUSH1 0xF SIGNEXTEND DUP2 MSTORE PUSH1 0x20 ADD PUSH1 0x0 DUP3 ADD PUSH1 0x10 SWAP1 SLOAD SWAP1 PUSH2 0x100 EXP SWAP1 DIV PUSH1 0xF SIGNEXTEND PUSH1 0xF SIGNEXTEND PUSH1 0xF SIGNEXTEND DUP2 MSTORE POP POP DUP2 MSTORE PUSH1 0x20 ADD SWAP1 PUSH1 0x1 ADD SWAP1 PUSH2 0x6D4 JUMP JUMPDEST POP POP POP POP SWAP1 POP SWAP2 SWAP1 POP JUMP JUMPDEST PUSH2 0x74F PUSH2 0xDA9 JUMP JUMPDEST PUSH2 0x774 DUP4 DUP5 PUSH1 0x2 ADD PUSH1 0x0 DUP6 PUSH1 0xF SIGNEXTEND PUSH1 0xF SIGNEXTEND DUP2 MSTORE PUSH1 0x20 ADD SWAP1 DUP2 MSTORE PUSH1 0x20 ADD PUSH1 0x0 KECCAK256 SLOAD PUSH2 0x497 JUMP JUMPDEST SWAP1 POP SWAP3 SWAP2 POP POP JUMP JUMPDEST PUSH1 0x0 DUP2 PUSH1 0x1 ADD DUP1 SLOAD SWAP1 POP EQ ISZERO PUSH2 0x85C JUMPI DUP1 PUSH1 0x1 ADD PUSH1 0x40 DUP1 MLOAD SWAP1 DUP2 ADD PUSH1 0x40 MSTORE DUP1 PUSH1 0x0 PUSH1 0xF SIGNEXTEND DUP2 MSTORE PUSH1 0x20 ADD PUSH1 0x0 PUSH1 0xF SIGNEXTEND DUP2 MSTORE POP SWAP1 DUP1 PUSH1 0x1 DUP2 SLOAD ADD DUP1 DUP3 SSTORE DUP1 SWAP2 POP POP SWAP1 PUSH1 0x1 DUP3 SUB SWAP1 PUSH1 0x0 MSTORE PUSH1 0x20 PUSH1 0x0 KECCAK256 ADD PUSH1 0x0 SWAP1 SWAP2 SWAP3 SWAP1 SWAP2 SWAP1 SWAP2 POP PUSH1 0x0 DUP3 ADD MLOAD DUP2 PUSH1 0x0 ADD PUSH1 0x0 PUSH2 0x100 EXP DUP2 SLOAD DUP2 PUSH16 0xFFFFFFFFFFFFFFFFFFFFFFFFFFFFFFFF MUL NOT AND SWAP1 DUP4 PUSH1 0xF SIGNEXTEND PUSH16 0xFFFFFFFFFFFFFFFFFFFFFFFFFFFFFFFF AND MUL OR SWAP1 SSTORE POP PUSH1 0x20 DUP3 ADD MLOAD DUP2 PUSH1 0x0 ADD PUSH1 0x10 PUSH2 0x100 EXP DUP2 SLOAD DUP2 PUSH16 0xFFFFFFFFFFFFFFFFFFFFFFFFFFFFFFFF MUL NOT AND SWAP1 DUP4 PUSH1 0xF SIGNEXTEND PUSH16 0xFFFFFFFFFFFFFFFFFFFFFFFFFFFFFFFF AND MUL OR SWAP1 SSTORE POP POP POP POP JUMPDEST POP JUMP JUMPDEST PUSH1 0x1 DUP2 EQ DUP1 PUSH2 0x8AF JUMPI POP DUP3 PUSH1 0x1 ADD PUSH1 0x2 DUP3 DUP2 ISZERO ISZERO PUSH2 0x879 JUMPI INVALID JUMPDEST DIV DUP2 SLOAD DUP2 LT ISZERO ISZERO PUSH2 0x886 JUMPI INVALID JUMPDEST SWAP1 PUSH1 0x0 MSTORE PUSH1 0x20 PUSH1 0x0 KECCAK256 ADD PUSH1 0x0 ADD PUSH1 0x10 SWAP1 SLOAD SWAP1 PUSH2 0x100 EXP SWAP1 DIV PUSH1 0xF SIGNEXTEND PUSH1 0xF SIGNEXTEND DUP3 PUSH1 0x20 ADD MLOAD PUSH1 0xF SIGNEXTEND SGT ISZERO JUMPDEST ISZERO PUSH2 0x8C4 JUMPI PUSH2 0x8BF DUP4 DUP4 DUP4 PUSH2 0xB49 JUMP JUMPDEST PUSH2 0x952 JUMP JUMPDEST PUSH2 0x93A DUP4 DUP5 PUSH1 0x1 ADD PUSH1 0x2 DUP5 DUP2 ISZERO ISZERO PUSH2 0x8D8 JUMPI INVALID JUMPDEST DIV DUP2 SLOAD DUP2 LT ISZERO ISZERO PUSH2 0x8E5 JUMPI INVALID JUMPDEST SWAP1 PUSH1 0x0 MSTORE PUSH1 0x20 PUSH1 0x0 KECCAK256 ADD PUSH1 0x40 DUP1 MLOAD SWAP1 DUP2 ADD PUSH1 0x40 MSTORE SWAP1 DUP2 PUSH1 0x0 DUP3 ADD PUSH1 0x0 SWAP1 SLOAD SWAP1 PUSH2 0x100 EXP SWAP1 DIV PUSH1 0xF SIGNEXTEND PUSH1 0xF SIGNEXTEND PUSH1 0xF SIGNEXTEND DUP2 MSTORE PUSH1 0x20 ADD PUSH1 0x0 DUP3 ADD PUSH1 0x10 SWAP1 SLOAD SWAP1 PUSH2 0x100 EXP SWAP1 DIV PUSH1 0xF SIGNEXTEND PUSH1 0xF SIGNEXTEND PUSH1 0xF SIGNEXTEND DUP2 MSTORE POP POP DUP4 PUSH2 0xB49 JUMP JUMPDEST PUSH2 0x951 DUP4 DUP4 PUSH1 0x2 DUP5 DUP2 ISZERO ISZERO PUSH2 0x94B JUMPI INVALID JUMPDEST DIV PUSH2 0x85F JUMP JUMPDEST JUMPDEST POP POP POP JUMP JUMPDEST PUSH2 0x95F PUSH2 0xDA9 JUMP JUMPDEST PUSH2 0x967 PUSH2 0xDA9 JUMP JUMPDEST PUSH2 0x96F PUSH2 0xDA9 JUMP JUMPDEST DUP4 DUP6 PUSH1 0x1 ADD DUP1 SLOAD SWAP1 POP GT ISZERO DUP1 PUSH2 0x986 JUMPI POP PUSH1 0x0 DUP5 GT ISZERO JUMPDEST ISZERO PUSH2 0x9AF JUMPI PUSH1 0x40 DUP1 MLOAD SWAP1 DUP2 ADD PUSH1 0x40 MSTORE DUP1 PUSH1 0x0 PUSH1 0xF SIGNEXTEND DUP2 MSTORE PUSH1 0x20 ADD PUSH1 0x0 PUSH1 0xF SIGNEXTEND DUP2 MSTORE POP SWAP3 POP PUSH2 0xB41 JUMP JUMPDEST DUP5 PUSH1 0x1 ADD DUP5 DUP2 SLOAD DUP2 LT ISZERO ISZERO PUSH2 0x9C0 JUMPI INVALID JUMPDEST SWAP1 PUSH1 0x0 MSTORE PUSH1 0x20 PUSH1 0x0 KECCAK256 ADD PUSH1 0x40 DUP1 MLOAD SWAP1 DUP2 ADD PUSH1 0x40 MSTORE SWAP1 DUP2 PUSH1 0x0 DUP3 ADD PUSH1 0x0 SWAP1 SLOAD SWAP1 PUSH2 0x100 EXP SWAP1 DIV PUSH1 0xF SIGNEXTEND PUSH1 0xF SIGNEXTEND PUSH1 0xF SIGNEXTEND DUP2 MSTORE PUSH1 0x20 ADD PUSH1 0x0 DUP3 ADD PUSH1 0x10 SWAP1 SLOAD SWAP1 PUSH2 0x100 EXP SWAP1 DIV PUSH1 0xF SIGNEXTEND PUSH1 0xF SIGNEXTEND PUSH1 0xF SIGNEXTEND DUP2 MSTORE POP POP SWAP2 POP DUP5 PUSH1 0x2 ADD PUSH1 0x0 DUP4 PUSH1 0x0 ADD MLOAD PUSH1 0xF SIGNEXTEND PUSH1 0xF SIGNEXTEND DUP2 MSTORE PUSH1 0x20 ADD SWAP1 DUP2 MSTORE PUSH1 0x20 ADD PUSH1 0x0 KECCAK256 PUSH1 0x0 SWAP1 SSTORE DUP5 PUSH1 0x1 ADD PUSH1 0x1 DUP7 PUSH1 0x1 ADD DUP1 SLOAD SWAP1 POP SUB DUP2 SLOAD DUP2 LT ISZERO ISZERO PUSH2 0xA4F JUMPI INVALID JUMPDEST SWAP1 PUSH1 0x0 MSTORE PUSH1 0x20 PUSH1 0x0 KECCAK256 ADD PUSH1 0x40 DUP1 MLOAD SWAP1 DUP2 ADD PUSH1 0x40 MSTORE SWAP1 DUP2 PUSH1 0x0 DUP3 ADD PUSH1 0x0 SWAP1 SLOAD SWAP1 PUSH2 0x100 EXP SWAP1 DIV PUSH1 0xF SIGNEXTEND PUSH1 0xF SIGNEXTEND PUSH1 0xF SIGNEXTEND DUP2 MSTORE PUSH1 0x20 ADD PUSH1 0x0 DUP3 ADD PUSH1 0x10 SWAP1 SLOAD SWAP1 PUSH2 0x100 EXP SWAP1 DIV PUSH1 0xF SIGNEXTEND PUSH1 0xF SIGNEXTEND PUSH1 0xF SIGNEXTEND DUP2 MSTORE POP POP SWAP1 POP DUP5 PUSH1 0x1 ADD DUP1 SLOAD DUP1 SWAP2 SWAP1 PUSH1 0x1 SWAP1 SUB PUSH2 0xAB7 SWAP2 SWAP1 PUSH2 0xDC9 JUMP JUMPDEST POP DUP5 PUSH1 0x1 ADD DUP1 SLOAD SWAP1 POP DUP5 LT ISZERO PUSH2 0xB3D JUMPI PUSH2 0xAD2 DUP6 DUP3 DUP7 PUSH2 0x85F JUMP JUMPDEST PUSH2 0xB3C DUP6 DUP7 PUSH1 0x1 ADD DUP7 DUP2 SLOAD DUP2 LT ISZERO ISZERO PUSH2 0xAE7 JUMPI INVALID JUMPDEST SWAP1 PUSH1 0x0 MSTORE PUSH1 0x20 PUSH1 0x0 KECCAK256 ADD PUSH1 0x40 DUP1 MLOAD SWAP1 DUP2 ADD PUSH1 0x40 MSTORE SWAP1 DUP2 PUSH1 0x0 DUP3 ADD PUSH1 0x0 SWAP1 SLOAD SWAP1 PUSH2 0x100 EXP SWAP1 DIV PUSH1 0xF SIGNEXTEND PUSH1 0xF SIGNEXTEND PUSH1 0xF SIGNEXTEND DUP2 MSTORE PUSH1 0x20 ADD PUSH1 0x0 DUP3 ADD PUSH1 0x10 SWAP1 SLOAD SWAP1 PUSH2 0x100 EXP SWAP1 DIV PUSH1 0xF SIGNEXTEND PUSH1 0xF SIGNEXTEND PUSH1 0xF SIGNEXTEND DUP2 MSTORE POP POP DUP7 PUSH2 0xC15 JUMP JUMPDEST JUMPDEST DUP2 SWAP3 POP JUMPDEST POP POP SWAP3 SWAP2 POP POP JUMP JUMPDEST DUP2 DUP4 PUSH1 0x1 ADD DUP3 DUP2 SLOAD DUP2 LT ISZERO ISZERO PUSH2 0xB5B JUMPI INVALID JUMPDEST SWAP1 PUSH1 0x0 MSTORE PUSH1 0x20 PUSH1 0x0 KECCAK256 ADD PUSH1 0x0 DUP3 ADD MLOAD DUP2 PUSH1 0x0 ADD PUSH1 0x0 PUSH2 0x100 EXP DUP2 SLOAD DUP2 PUSH16 0xFFFFFFFFFFFFFFFFFFFFFFFFFFFFFFFF MUL NOT AND SWAP1 DUP4 PUSH1 0xF SIGNEXTEND PUSH16 0xFFFFFFFFFFFFFFFFFFFFFFFFFFFFFFFF AND MUL OR SWAP1 SSTORE POP PUSH1 0x20 DUP3 ADD MLOAD DUP2 PUSH1 0x0 ADD PUSH1 0x10 PUSH2 0x100 EXP DUP2 SLOAD DUP2 PUSH16 0xFFFFFFFFFFFFFFFFFFFFFFFFFFFFFFFF MUL NOT AND SWAP1 DUP4 PUSH1 0xF SIGNEXTEND PUSH16 0xFFFFFFFFFFFFFFFFFFFFFFFFFFFFFFFF AND MUL OR SWAP1 SSTORE POP SWAP1 POP POP DUP1 DUP4 PUSH1 0x2 ADD PUSH1 0x0 DUP5 PUSH1 0x0 ADD MLOAD PUSH1 0xF SIGNEXTEND PUSH1 0xF SIGNEXTEND DUP2 MSTORE PUSH1 0x20 ADD SWAP1 DUP2 MSTORE PUSH1 0x20 ADD PUSH1 0x0 KECCAK256 DUP2 SWAP1 SSTORE POP POP POP POP JUMP JUMPDEST PUSH1 0x0 DUP1 PUSH2 0xC20 PUSH2 0xDA9 JUMP JUMPDEST DUP6 PUSH1 0x1 ADD DUP1 SLOAD SWAP1 POP SWAP3 POP PUSH1 0x2 DUP5 MUL SWAP2 POP DUP2 DUP4 GT ISZERO ISZERO PUSH2 0xC49 JUMPI PUSH2 0xC44 DUP7 DUP7 DUP7 PUSH2 0xB49 JUMP JUMPDEST PUSH2 0xDA1 JUMP JUMPDEST DUP6 PUSH1 0x1 ADD DUP3 DUP2 SLOAD DUP2 LT ISZERO ISZERO PUSH2 0xC5A JUMPI INVALID JUMPDEST SWAP1 PUSH1 0x0 MSTORE PUSH1 0x20 PUSH1 0x0 KECCAK256 ADD PUSH1 0x40 DUP1 MLOAD SWAP1 DUP2 ADD PUSH1 0x40 MSTORE SWAP1 DUP2 PUSH1 0x0 DUP3 ADD PUSH1 0x0 SWAP1 SLOAD SWAP1 PUSH2 0x100 EXP SWAP1 DIV PUSH1 0xF SIGNEXTEND PUSH1 0xF SIGNEXTEND PUSH1 0xF SIGNEXTEND DUP2 MSTORE PUSH1 0x20 ADD PUSH1 0x0 DUP3 ADD PUSH1 0x10 SWAP1 SLOAD SWAP1 PUSH2 0x100 EXP SWAP1 DIV PUSH1 0xF SIGNEXTEND PUSH1 0xF SIGNEXTEND PUSH1 0xF SIGNEXTEND DUP2 MSTORE POP POP SWAP1 POP PUSH1 0x1 DUP3 ADD DUP4 GT DUP1 ISZERO PUSH2 0xCF4 JUMPI POP DUP1 PUSH1 0x20 ADD MLOAD PUSH1 0xF SIGNEXTEND DUP7 PUSH1 0x1 ADD PUSH1 0x1 DUP5 ADD DUP2 SLOAD DUP2 LT ISZERO ISZERO PUSH2 0xCD4 JUMPI INVALID JUMPDEST SWAP1 PUSH1 0x0 MSTORE PUSH1 0x20 PUSH1 0x0 KECCAK256 ADD PUSH1 0x0 ADD PUSH1 0x10 SWAP1 SLOAD SWAP1 PUSH2 0x100 EXP SWAP1 DIV PUSH1 0xF SIGNEXTEND PUSH1 0xF SIGNEXTEND SGT JUMPDEST ISZERO PUSH2 0xD62 JUMPI DUP6 PUSH1 0x1 ADD DUP3 PUSH1 0x1 ADD SWAP3 POP DUP3 DUP2 SLOAD DUP2 LT ISZERO ISZERO PUSH2 0xD10 JUMPI INVALID JUMPDEST SWAP1 PUSH1 0x0 MSTORE PUSH1 0x20 PUSH1 0x0 KECCAK256 ADD PUSH1 0x40 DUP1 MLOAD SWAP1 DUP2 ADD PUSH1 0x40 MSTORE SWAP1 DUP2 PUSH1 0x0 DUP3 ADD PUSH1 0x0 SWAP1 SLOAD SWAP1 PUSH2 0x100 EXP SWAP1 DIV PUSH1 0xF SIGNEXTEND PUSH1 0xF SIGNEXTEND PUSH1 0xF SIGNEXTEND DUP2 MSTORE PUSH1 0x20 ADD PUSH1 0x0 DUP3 ADD PUSH1 0x10 SWAP1 SLOAD SWAP1 PUSH2 0x100 EXP SWAP1 DIV PUSH1 0xF SIGNEXTEND PUSH1 0xF SIGNEXTEND PUSH1 0xF SIGNEXTEND DUP2 MSTORE POP POP SWAP1 POP JUMPDEST DUP5 PUSH1 0x20 ADD MLOAD PUSH1 0xF SIGNEXTEND DUP2 PUSH1 0x20 ADD MLOAD PUSH1 0xF SIGNEXTEND SGT ISZERO ISZERO PUSH2 0xD89 JUMPI PUSH2 0xD84 DUP7 DUP7 DUP7 PUSH2 0xB49 JUMP JUMPDEST PUSH2 0xDA0 JUMP JUMPDEST PUSH2 0xD94 DUP7 DUP3 DUP7 PUSH2 0xB49 JUMP JUMPDEST PUSH2 0xD9F DUP7 DUP7 DUP5 PUSH2 0xC15 JUMP JUMPDEST JUMPDEST JUMPDEST POP POP POP POP POP POP JUMP JUMPDEST PUSH1 0x40 DUP1 MLOAD SWAP1 DUP2 ADD PUSH1 0x40 MSTORE DUP1 PUSH1 0x0 PUSH1 0xF SIGNEXTEND DUP2 MSTORE PUSH1 0x20 ADD PUSH1 0x0 PUSH1 0xF SIGNEXTEND DUP2 MSTORE POP SWAP1 JUMP JUMPDEST DUP2 SLOAD DUP2 DUP4 SSTORE DUP2 DUP2 GT ISZERO PUSH2 0xDF0 JUMPI DUP2 DUP4 PUSH1 0x0 MSTORE PUSH1 0x20 PUSH1 0x0 KECCAK256 SWAP2 DUP3 ADD SWAP2 ADD PUSH2 0xDEF SWAP2 SWAP1 PUSH2 0xDF5 JUMP JUMPDEST JUMPDEST POP POP POP JUMP JUMPDEST PUSH2 0xE57 SWAP2 SWAP1 JUMPDEST DUP1 DUP3 GT ISZERO PUSH2 0xE53 JUMPI PUSH1 0x0 DUP1 DUP3 ADD PUSH1 0x0 PUSH2 0x100 EXP DUP2 SLOAD SWAP1 PUSH16 0xFFFFFFFFFFFFFFFFFFFFFFFFFFFFFFFF MUL NOT AND SWAP1 SSTORE PUSH1 0x0 DUP3 ADD PUSH1 0x10 PUSH2 0x100 EXP DUP2 SLOAD SWAP1 PUSH16 0xFFFFFFFFFFFFFFFFFFFFFFFFFFFFFFFF MUL NOT AND SWAP1 SSTORE POP PUSH1 0x1 ADD PUSH2 0xDFB JUMP JUMPDEST POP SWAP1 JUMP JUMPDEST SWAP1 JUMP JUMPDEST PUSH1 0x0 DUP3 PUSH1 0x1F DUP4 ADD SLT ISZERO ISZERO PUSH2 0xE6D JUMPI PUSH1 0x0 DUP1 REVERT JUMPDEST DUP2 CALLDATALOAD PUSH2 0xE80 PUSH2 0xE7B DUP3 PUSH2 0x1111 JUMP JUMPDEST PUSH2 0x10E4 JUMP JUMPDEST SWAP2 POP DUP2 DUP2 DUP4 MSTORE PUSH1 0x20 DUP5 ADD SWAP4 POP PUSH1 0x20 DUP2 ADD SWAP1 POP DUP4 DUP6 PUSH1 0x20 DUP5 MUL DUP3 ADD GT ISZERO PUSH2 0xEA5 JUMPI PUSH1 0x0 DUP1 REVERT JUMPDEST PUSH1 0x0 JUMPDEST DUP4 DUP2 LT ISZERO PUSH2 0xED5 JUMPI DUP2 PUSH2 0xEBB DUP9 DUP3 PUSH2 0xEDF JUMP JUMPDEST DUP5 MSTORE PUSH1 0x20 DUP5 ADD SWAP4 POP PUSH1 0x20 DUP4 ADD SWAP3 POP POP PUSH1 0x1 DUP2 ADD SWAP1 POP PUSH2 0xEA8 JUMP JUMPDEST POP POP POP POP SWAP3 SWAP2 POP POP JUMP JUMPDEST PUSH1 0x0 PUSH2 0xEEB DUP3 CALLDATALOAD PUSH2 0x1175 JUMP JUMPDEST SWAP1 POP SWAP3 SWAP2 POP POP JUMP JUMPDEST PUSH1 0x0 PUSH2 0xEFF DUP3 CALLDATALOAD PUSH2 0x1182 JUMP JUMPDEST SWAP1 POP SWAP3 SWAP2 POP POP JUMP JUMPDEST PUSH1 0x0 PUSH1 0x20 DUP3 DUP5 SUB SLT ISZERO PUSH2 0xF19 JUMPI PUSH1 0x0 DUP1 REVERT JUMPDEST PUSH1 0x0 DUP3 ADD CALLDATALOAD PUSH8 0xFFFFFFFFFFFFFFFF DUP2 GT ISZERO PUSH2 0xF33 JUMPI PUSH1 0x0 DUP1 REVERT JUMPDEST PUSH2 0xF3F DUP5 DUP3 DUP6 ADD PUSH2 0xE5A JUMP JUMPDEST SWAP2 POP POP SWAP3 SWAP2 POP POP JUMP JUMPDEST PUSH1 0x0 PUSH1 0x20 DUP3 DUP5 SUB SLT ISZERO PUSH2 0xF5A JUMPI PUSH1 0x0 DUP1 REVERT JUMPDEST PUSH1 0x0 PUSH2 0xF68 DUP5 DUP3 DUP6 ADD PUSH2 0xEDF JUMP JUMPDEST SWAP2 POP POP SWAP3 SWAP2 POP POP JUMP JUMPDEST PUSH1 0x0 PUSH1 0x20 DUP3 DUP5 SUB SLT ISZERO PUSH2 0xF83 JUMPI PUSH1 0x0 DUP1 REVERT JUMPDEST PUSH1 0x0 PUSH2 0xF91 DUP5 DUP3 DUP6 ADD PUSH2 0xEF3 JUMP JUMPDEST SWAP2 POP POP SWAP3 SWAP2 POP POP JUMP JUMPDEST PUSH1 0x0 PUSH2 0xFA5 DUP3 PUSH2 0x1146 JUMP JUMPDEST DUP1 DUP5 MSTORE PUSH1 0x20 DUP5 ADD SWAP4 POP PUSH2 0xFB7 DUP4 PUSH2 0x1139 JUMP JUMPDEST PUSH1 0x0 JUMPDEST DUP3 DUP2 LT ISZERO PUSH2 0xFE9 JUMPI PUSH2 0xFCD DUP7 DUP4 MLOAD PUSH2 0x1033 JUMP JUMPDEST PUSH2 0xFD6 DUP3 PUSH2 0x1151 JUMP JUMPDEST SWAP2 POP PUSH1 0x40 DUP7 ADD SWAP6 POP PUSH1 0x1 DUP2 ADD SWAP1 POP PUSH2 0xFBA JUMP JUMPDEST POP DUP5 SWAP3 POP POP POP SWAP3 SWAP2 POP POP JUMP JUMPDEST PUSH2 0xFFE DUP2 PUSH2 0x115E JUMP JUMPDEST DUP3 MSTORE POP POP JUMP JUMPDEST PUSH1 0x40 DUP3 ADD PUSH1 0x0 DUP3 ADD MLOAD PUSH2 0x101A PUSH1 0x0 DUP6 ADD DUP3 PUSH2 0xFF5 JUMP JUMPDEST POP PUSH1 0x20 DUP3 ADD MLOAD PUSH2 0x102D PUSH1 0x20 DUP6 ADD DUP3 PUSH2 0xFF5 JUMP JUMPDEST POP POP POP POP JUMP JUMPDEST PUSH1 0x40 DUP3 ADD PUSH1 0x0 DUP3 ADD MLOAD PUSH2 0x1049 PUSH1 0x0 DUP6 ADD DUP3 PUSH2 0xFF5 JUMP JUMPDEST POP PUSH1 0x20 DUP3 ADD MLOAD PUSH2 0x105C PUSH1 0x20 DUP6 ADD DUP3 PUSH2 0xFF5 JUMP JUMPDEST POP POP POP POP JUMP JUMPDEST PUSH2 0x106B DUP2 PUSH2 0x116B JUMP JUMPDEST DUP3 MSTORE POP POP JUMP JUMPDEST PUSH1 0x0 PUSH1 0x20 DUP3 ADD SWAP1 POP DUP2 DUP2 SUB PUSH1 0x0 DUP4 ADD MSTORE PUSH2 0x108B DUP2 DUP5 PUSH2 0xF9A JUMP JUMPDEST SWAP1 POP SWAP3 SWAP2 POP POP JUMP JUMPDEST PUSH1 0x0 PUSH1 0x20 DUP3 ADD SWAP1 POP PUSH2 0x10A8 PUSH1 0x0 DUP4 ADD DUP5 PUSH2 0xFF5 JUMP JUMPDEST SWAP3 SWAP2 POP POP JUMP JUMPDEST PUSH1 0x0 PUSH1 0x40 DUP3 ADD SWAP1 POP PUSH2 0x10C3 PUSH1 0x0 DUP4 ADD DUP5 PUSH2 0x1004 JUMP JUMPDEST SWAP3 SWAP2 POP POP JUMP JUMPDEST PUSH1 0x0 PUSH1 0x20 DUP3 ADD SWAP1 POP PUSH2 0x10DE PUSH1 0x0 DUP4 ADD DUP5 PUSH2 0x1062 JUMP JUMPDEST SWAP3 SWAP2 POP POP JUMP JUMPDEST PUSH1 0x0 PUSH1 0x40 MLOAD SWAP1 POP DUP2 DUP2 ADD DUP2 DUP2 LT PUSH8 0xFFFFFFFFFFFFFFFF DUP3 GT OR ISZERO PUSH2 0x1107 JUMPI PUSH1 0x0 DUP1 REVERT JUMPDEST DUP1 PUSH1 0x40 MSTORE POP SWAP2 SWAP1 POP JUMP JUMPDEST PUSH1 0x0 PUSH8 0xFFFFFFFFFFFFFFFF DUP3 GT ISZERO PUSH2 0x1128 JUMPI PUSH1 0x0 DUP1 REVERT JUMPDEST PUSH1 0x20 DUP3 MUL SWAP1 POP PUSH1 0x20 DUP2 ADD SWAP1 POP SWAP2 SWAP1 POP JUMP JUMPDEST PUSH1 0x0 PUSH1 0x20 DUP3 ADD SWAP1 POP SWAP2 SWAP1 POP JUMP JUMPDEST PUSH1 0x0 DUP2 MLOAD SWAP1 POP SWAP2 SWAP1 POP JUMP JUMPDEST PUSH1 0x0 PUSH1 0x20 DUP3 ADD SWAP1 POP SWAP2 SWAP1 POP JUMP JUMPDEST PUSH1 0x0 DUP2 PUSH1 0xF SIGNEXTEND SWAP1 POP SWAP2 SWAP1 POP JUMP JUMPDEST PUSH1 0x0 DUP2 SWAP1 POP SWAP2 SWAP1 POP JUMP JUMPDEST PUSH1 0x0 DUP2 PUSH1 0xF SIGNEXTEND SWAP1 POP SWAP2 SWAP1 POP JUMP JUMPDEST PUSH1 0x0 DUP2 SWAP1 POP SWAP2 SWAP1 POP JUMP STOP LOG2 PUSH6 0x627A7A723058 KECCAK256 0x46 0xf9 SWAP9 0xb0 LOG2 0x2a ISZERO RETURNDATACOPY 0xb4 0x47 0x2e PUSH11 0x784CA4A22AAF2D99E950E7 PUSH17 0x224AF506472965396C6578706572696D65 PUSH15 0x74616CF50037000000000000000000 "
		},
		"gasEstimates": {
			"creation": {
				"codeDepositCost": "910000",
				"executionCost": "infinite",
				"totalCost": "infinite"
			},
			"external": {
				"data()": "644",
				"dump()": "infinite",
				"extractById(int128)": "infinite",
				"extractMax()": "infinite",
				"getById(int128)": "infinite",
				"getByIndex(uint256)": "infinite",
				"getMax()": "infinite",
				"heapify(int128[])": "infinite",
				"idCount()": "776",
				"indices(int128)": "847",
				"insert(int128)": "infinite",
				"size()": "959"
			}
		},
		"methodIdentifiers": {
			"data()": "73d4a13a",
			"dump()": "e4330545",
			"extractById(int128)": "ddc86af6",
			"extractMax()": "8860805a",
			"getById(int128)": "f6f7301e",
			"getByIndex(uint256)": "2d883a73",
			"getMax()": "3075f552",
			"heapify(int128[])": "f12a15b1",
			"idCount()": "e6e46238",
			"indices(int128)": "26207bd1",
			"insert(int128)": "7f671c1b",
			"size()": "949d225d"
		}
	},
	"abi": [
		{
			"constant": true,
			"inputs": [
				{
					"name": "id",
					"type": "int128"
				}
			],
			"name": "indices",
			"outputs": [
				{
					"name": "",
					"type": "uint256"
				}
			],
			"payable": false,
			"stateMutability": "view",
			"type": "function"
		},
		{
			"constant": true,
			"inputs": [
				{
					"name": "i",
					"type": "uint256"
				}
			],
			"name": "getByIndex",
			"outputs": [
				{
					"components": [
						{
							"name": "id",
							"type": "int128"
						},
						{
							"name": "priority",
							"type": "int128"
						}
					],
					"name": "",
					"type": "tuple"
				}
			],
			"payable": false,
			"stateMutability": "view",
			"type": "function"
		},
		{
			"constant": true,
			"inputs": [],
			"name": "getMax",
			"outputs": [
				{
					"components": [
						{
							"name": "id",
							"type": "int128"
						},
						{
							"name": "priority",
							"type": "int128"
						}
					],
					"name": "",
					"type": "tuple"
				}
			],
			"payable": false,
			"stateMutability": "view",
			"type": "function"
		},
		{
			"constant": true,
			"inputs": [],
			"name": "data",
			"outputs": [
				{
					"name": "idCount",
					"type": "int128"
				}
			],
			"payable": false,
			"stateMutability": "view",
			"type": "function"
		},
		{
			"constant": false,
			"inputs": [
				{
					"name": "priority",
					"type": "int128"
				}
			],
			"name": "insert",
			"outputs": [
				{
					"components": [
						{
							"name": "id",
							"type": "int128"
						},
						{
							"name": "priority",
							"type": "int128"
						}
					],
					"name": "",
					"type": "tuple"
				}
			],
			"payable": false,
			"stateMutability": "nonpayable",
			"type": "function"
		},
		{
			"constant": false,
			"inputs": [],
			"name": "extractMax",
			"outputs": [
				{
					"components": [
						{
							"name": "id",
							"type": "int128"
						},
						{
							"name": "priority",
							"type": "int128"
						}
					],
					"name": "",
					"type": "tuple"
				}
			],
			"payable": false,
			"stateMutability": "nonpayable",
			"type": "function"
		},
		{
			"constant": true,
			"inputs": [],
			"name": "size",
			"outputs": [
				{
					"name": "",
					"type": "uint256"
				}
			],
			"payable": false,
			"stateMutability": "view",
			"type": "function"
		},
		{
			"constant": false,
			"inputs": [
				{
					"name": "id",
					"type": "int128"
				}
			],
			"name": "extractById",
			"outputs": [
				{
					"components": [
						{
							"name": "id",
							"type": "int128"
						},
						{
							"name": "priority",
							"type": "int128"
						}
					],
					"name": "",
					"type": "tuple"
				}
			],
			"payable": false,
			"stateMutability": "nonpayable",
			"type": "function"
		},
		{
			"constant": true,
			"inputs": [],
			"name": "dump",
			"outputs": [
				{
					"components": [
						{
							"name": "id",
							"type": "int128"
						},
						{
							"name": "priority",
							"type": "int128"
						}
					],
					"name": "",
					"type": "tuple[]"
				}
			],
			"payable": false,
			"stateMutability": "view",
			"type": "function"
		},
		{
			"constant": true,
			"inputs": [],
			"name": "idCount",
			"outputs": [
				{
					"name": "",
					"type": "int128"
				}
			],
			"payable": false,
			"stateMutability": "view",
			"type": "function"
		},
		{
			"constant": false,
			"inputs": [
				{
					"name": "priorities",
					"type": "int128[]"
				}
			],
			"name": "heapify",
			"outputs": [],
			"payable": false,
			"stateMutability": "nonpayable",
			"type": "function"
		},
		{
			"constant": true,
			"inputs": [
				{
					"name": "id",
					"type": "int128"
				}
			],
			"name": "getById",
			"outputs": [
				{
					"components": [
						{
							"name": "id",
							"type": "int128"
						},
						{
							"name": "priority",
							"type": "int128"
						}
					],
					"name": "",
					"type": "tuple"
				}
			],
			"payable": false,
			"stateMutability": "view",
			"type": "function"
		},
		{
			"inputs": [],
			"payable": false,
			"stateMutability": "nonpayable",
			"type": "constructor"
		}
	]
}